{
	"InVisiDots.sol": {
		"InVisiDots": {
			"abi": [
				{
					"inputs": [],
					"stateMutability": "nonpayable",
					"type": "constructor"
				},
				{
					"anonymous": false,
					"inputs": [
						{
							"indexed": true,
							"internalType": "address",
							"name": "owner",
							"type": "address"
						},
						{
							"indexed": true,
							"internalType": "address",
							"name": "spender",
							"type": "address"
						},
						{
							"indexed": false,
							"internalType": "uint256",
							"name": "value",
							"type": "uint256"
						}
					],
					"name": "Approval",
					"type": "event"
				},
				{
					"anonymous": false,
					"inputs": [
						{
							"indexed": true,
							"internalType": "address",
							"name": "previousOwner",
							"type": "address"
						},
						{
							"indexed": true,
							"internalType": "address",
							"name": "newOwner",
							"type": "address"
						}
					],
					"name": "OwnershipTransferred",
					"type": "event"
				},
				{
					"anonymous": false,
					"inputs": [
						{
							"indexed": false,
							"internalType": "address",
							"name": "account",
							"type": "address"
						}
					],
					"name": "Paused",
					"type": "event"
				},
				{
					"anonymous": false,
					"inputs": [
						{
							"indexed": true,
							"internalType": "address",
							"name": "from",
							"type": "address"
						},
						{
							"indexed": true,
							"internalType": "address",
							"name": "to",
							"type": "address"
						},
						{
							"indexed": false,
							"internalType": "uint256",
							"name": "value",
							"type": "uint256"
						}
					],
					"name": "Transfer",
					"type": "event"
				},
				{
					"anonymous": false,
					"inputs": [
						{
							"indexed": false,
							"internalType": "address",
							"name": "account",
							"type": "address"
						}
					],
					"name": "Unpaused",
					"type": "event"
				},
				{
					"inputs": [
						{
							"internalType": "address",
							"name": "owner",
							"type": "address"
						},
						{
							"internalType": "address",
							"name": "spender",
							"type": "address"
						}
					],
					"name": "allowance",
					"outputs": [
						{
							"internalType": "uint256",
							"name": "",
							"type": "uint256"
						}
					],
					"stateMutability": "view",
					"type": "function"
				},
				{
					"inputs": [
						{
							"internalType": "address",
							"name": "spender",
							"type": "address"
						},
						{
							"internalType": "uint256",
							"name": "amount",
							"type": "uint256"
						}
					],
					"name": "approve",
					"outputs": [
						{
							"internalType": "bool",
							"name": "",
							"type": "bool"
						}
					],
					"stateMutability": "nonpayable",
					"type": "function"
				},
				{
					"inputs": [
						{
							"internalType": "address",
							"name": "account",
							"type": "address"
						}
					],
					"name": "balanceOf",
					"outputs": [
						{
							"internalType": "uint256",
							"name": "",
							"type": "uint256"
						}
					],
					"stateMutability": "view",
					"type": "function"
				},
				{
					"inputs": [
						{
							"internalType": "uint256",
							"name": "amount",
							"type": "uint256"
						}
					],
					"name": "burn",
					"outputs": [],
					"stateMutability": "nonpayable",
					"type": "function"
				},
				{
					"inputs": [
						{
							"internalType": "address",
							"name": "account",
							"type": "address"
						},
						{
							"internalType": "uint256",
							"name": "amount",
							"type": "uint256"
						}
					],
					"name": "burnFrom",
					"outputs": [],
					"stateMutability": "nonpayable",
					"type": "function"
				},
				{
					"inputs": [],
					"name": "decimals",
					"outputs": [
						{
							"internalType": "uint8",
							"name": "",
							"type": "uint8"
						}
					],
					"stateMutability": "view",
					"type": "function"
				},
				{
					"inputs": [
						{
							"internalType": "address",
							"name": "spender",
							"type": "address"
						},
						{
							"internalType": "uint256",
							"name": "subtractedValue",
							"type": "uint256"
						}
					],
					"name": "decreaseAllowance",
					"outputs": [
						{
							"internalType": "bool",
							"name": "",
							"type": "bool"
						}
					],
					"stateMutability": "nonpayable",
					"type": "function"
				},
				{
					"inputs": [
						{
							"internalType": "int256",
							"name": "",
							"type": "int256"
						}
					],
					"name": "game",
					"outputs": [],
					"stateMutability": "nonpayable",
					"type": "function"
				},
				{
					"inputs": [
						{
							"internalType": "address",
							"name": "spender",
							"type": "address"
						},
						{
							"internalType": "uint256",
							"name": "addedValue",
							"type": "uint256"
						}
					],
					"name": "increaseAllowance",
					"outputs": [
						{
							"internalType": "bool",
							"name": "",
							"type": "bool"
						}
					],
					"stateMutability": "nonpayable",
					"type": "function"
				},
				{
					"inputs": [
						{
							"internalType": "address",
							"name": "to",
							"type": "address"
						},
						{
							"internalType": "uint256",
							"name": "amount",
							"type": "uint256"
						}
					],
					"name": "mint",
					"outputs": [],
					"stateMutability": "nonpayable",
					"type": "function"
				},
				{
					"inputs": [],
					"name": "name",
					"outputs": [
						{
							"internalType": "string",
							"name": "",
							"type": "string"
						}
					],
					"stateMutability": "view",
					"type": "function"
				},
				{
					"inputs": [],
					"name": "owner",
					"outputs": [
						{
							"internalType": "address",
							"name": "",
							"type": "address"
						}
					],
					"stateMutability": "view",
					"type": "function"
				},
				{
					"inputs": [],
					"name": "pause",
					"outputs": [],
					"stateMutability": "nonpayable",
					"type": "function"
				},
				{
					"inputs": [],
					"name": "paused",
					"outputs": [
						{
							"internalType": "bool",
							"name": "",
							"type": "bool"
						}
					],
					"stateMutability": "view",
					"type": "function"
				},
				{
					"inputs": [],
					"name": "renounceOwnership",
					"outputs": [],
					"stateMutability": "nonpayable",
					"type": "function"
				},
				{
					"inputs": [],
					"name": "symbol",
					"outputs": [
						{
							"internalType": "string",
							"name": "",
							"type": "string"
						}
					],
					"stateMutability": "view",
					"type": "function"
				},
				{
					"inputs": [],
					"name": "totalSupply",
					"outputs": [
						{
							"internalType": "uint256",
							"name": "",
							"type": "uint256"
						}
					],
					"stateMutability": "view",
					"type": "function"
				},
				{
					"inputs": [
						{
							"internalType": "address",
							"name": "to",
							"type": "address"
						},
						{
							"internalType": "uint256",
							"name": "amount",
							"type": "uint256"
						}
					],
					"name": "transfer",
					"outputs": [
						{
							"internalType": "bool",
							"name": "",
							"type": "bool"
						}
					],
					"stateMutability": "nonpayable",
					"type": "function"
				},
				{
					"inputs": [
						{
							"internalType": "address",
							"name": "from",
							"type": "address"
						},
						{
							"internalType": "address",
							"name": "to",
							"type": "address"
						},
						{
							"internalType": "uint256",
							"name": "amount",
							"type": "uint256"
						}
					],
					"name": "transferFrom",
					"outputs": [
						{
							"internalType": "bool",
							"name": "",
							"type": "bool"
						}
					],
					"stateMutability": "nonpayable",
					"type": "function"
				},
				{
					"inputs": [
						{
							"internalType": "address",
							"name": "newOwner",
							"type": "address"
						}
					],
					"name": "transferOwnership",
					"outputs": [],
					"stateMutability": "nonpayable",
					"type": "function"
				},
				{
					"inputs": [],
					"name": "unpause",
					"outputs": [],
					"stateMutability": "nonpayable",
					"type": "function"
				}
			],
			"devdoc": {
				"kind": "dev",
				"methods": {
					"allowance(address,address)": {
						"details": "See {IERC20-allowance}."
					},
					"approve(address,uint256)": {
						"details": "See {IERC20-approve}. NOTE: If `amount` is the maximum `uint256`, the allowance is not updated on `transferFrom`. This is semantically equivalent to an infinite approval. Requirements: - `spender` cannot be the zero address."
					},
					"balanceOf(address)": {
						"details": "See {IERC20-balanceOf}."
					},
					"burn(uint256)": {
						"details": "Destroys `amount` tokens from the caller. See {ERC20-_burn}."
					},
					"burnFrom(address,uint256)": {
						"details": "Destroys `amount` tokens from `account`, deducting from the caller's allowance. See {ERC20-_burn} and {ERC20-allowance}. Requirements: - the caller must have allowance for ``accounts``'s tokens of at least `amount`."
					},
					"decimals()": {
						"details": "Returns the number of decimals used to get its user representation. For example, if `decimals` equals `2`, a balance of `505` tokens should be displayed to a user as `5.05` (`505 / 10 ** 2`). Tokens usually opt for a value of 18, imitating the relationship between Ether and Wei. This is the value {ERC20} uses, unless this function is overridden; NOTE: This information is only used for _display_ purposes: it in no way affects any of the arithmetic of the contract, including {IERC20-balanceOf} and {IERC20-transfer}."
					},
					"decreaseAllowance(address,uint256)": {
						"details": "Atomically decreases the allowance granted to `spender` by the caller. This is an alternative to {approve} that can be used as a mitigation for problems described in {IERC20-approve}. Emits an {Approval} event indicating the updated allowance. Requirements: - `spender` cannot be the zero address. - `spender` must have allowance for the caller of at least `subtractedValue`."
					},
					"increaseAllowance(address,uint256)": {
						"details": "Atomically increases the allowance granted to `spender` by the caller. This is an alternative to {approve} that can be used as a mitigation for problems described in {IERC20-approve}. Emits an {Approval} event indicating the updated allowance. Requirements: - `spender` cannot be the zero address."
					},
					"name()": {
						"details": "Returns the name of the token."
					},
					"owner()": {
						"details": "Returns the address of the current owner."
					},
					"paused()": {
						"details": "Returns true if the contract is paused, and false otherwise."
					},
					"renounceOwnership()": {
						"details": "Leaves the contract without owner. It will not be possible to call `onlyOwner` functions anymore. Can only be called by the current owner. NOTE: Renouncing ownership will leave the contract without an owner, thereby removing any functionality that is only available to the owner."
					},
					"symbol()": {
						"details": "Returns the symbol of the token, usually a shorter version of the name."
					},
					"totalSupply()": {
						"details": "See {IERC20-totalSupply}."
					},
					"transfer(address,uint256)": {
						"details": "See {IERC20-transfer}. Requirements: - `to` cannot be the zero address. - the caller must have a balance of at least `amount`."
					},
					"transferFrom(address,address,uint256)": {
						"details": "See {IERC20-transferFrom}. Emits an {Approval} event indicating the updated allowance. This is not required by the EIP. See the note at the beginning of {ERC20}. NOTE: Does not update the allowance if the current allowance is the maximum `uint256`. Requirements: - `from` and `to` cannot be the zero address. - `from` must have a balance of at least `amount`. - the caller must have allowance for ``from``'s tokens of at least `amount`."
					},
					"transferOwnership(address)": {
						"details": "Transfers ownership of the contract to a new account (`newOwner`). Can only be called by the current owner."
					}
				},
				"version": 1
			},
			"evm": {
				"assembly": "    /* \"InVisiDots.sol\":322:914  contract InVisiDots is ERC20, ERC20Burnable, Pausable, Ownable {... */\n  mstore(0x40, 0x80)\n    /* \"InVisiDots.sol\":391:434  constructor() ERC20(\"InVisiDots\", \"IVD\") {} */\n  callvalue\n  dup1\n  iszero\n  tag_1\n  jumpi\n  0x00\n  dup1\n  revert\ntag_1:\n  pop\n    /* \"@openzeppelin/contracts@4.7.3/token/ERC20/ERC20.sol\":1978:2091  constructor(string memory name_, string memory symbol_) {... */\n  mload(0x40)\n  dup1\n  0x40\n  add\n  0x40\n  mstore\n  dup1\n  0x0a\n  dup2\n  mstore\n  0x20\n  add\n  0x496e56697369446f747300000000000000000000000000000000000000000000\n  dup2\n  mstore\n  pop\n  mload(0x40)\n  dup1\n  0x40\n  add\n  0x40\n  mstore\n  dup1\n  0x03\n  dup2\n  mstore\n  0x20\n  add\n  0x4956440000000000000000000000000000000000000000000000000000000000\n  dup2\n  mstore\n  pop\n    /* \"@openzeppelin/contracts@4.7.3/token/ERC20/ERC20.sol\":2052:2057  name_ */\n  dup2\n    /* \"@openzeppelin/contracts@4.7.3/token/ERC20/ERC20.sol\":2044:2049  _name */\n  0x03\n    /* \"@openzeppelin/contracts@4.7.3/token/ERC20/ERC20.sol\":2044:2057  _name = name_ */\n  swap1\n  dup1\n  mload\n  swap1\n  0x20\n  add\n  swap1\n  tag_7\n  swap3\n  swap2\n  swap1\n  tag_8\n  jump\t// in\ntag_7:\n  pop\n    /* \"@openzeppelin/contracts@4.7.3/token/ERC20/ERC20.sol\":2077:2084  symbol_ */\n  dup1\n    /* \"@openzeppelin/contracts@4.7.3/token/ERC20/ERC20.sol\":2067:2074  _symbol */\n  0x04\n    /* \"@openzeppelin/contracts@4.7.3/token/ERC20/ERC20.sol\":2067:2084  _symbol = symbol_ */\n  swap1\n  dup1\n  mload\n  swap1\n  0x20\n  add\n  swap1\n  tag_9\n  swap3\n  swap2\n  swap1\n  tag_8\n  jump\t// in\ntag_9:\n  pop\n    /* \"@openzeppelin/contracts@4.7.3/token/ERC20/ERC20.sol\":1978:2091  constructor(string memory name_, string memory symbol_) {... */\n  pop\n  pop\n    /* \"@openzeppelin/contracts@4.7.3/security/Pausable.sol\":1006:1011  false */\n  0x00\n    /* \"@openzeppelin/contracts@4.7.3/security/Pausable.sol\":996:1003  _paused */\n  0x05\n  0x00\n    /* \"@openzeppelin/contracts@4.7.3/security/Pausable.sol\":996:1011  _paused = false */\n  0x0100\n  exp\n  dup2\n  sload\n  dup2\n  0xff\n  mul\n  not\n  and\n  swap1\n  dup4\n  iszero\n  iszero\n  mul\n  or\n  swap1\n  sstore\n  pop\n    /* \"@openzeppelin/contracts@4.7.3/access/Ownable.sol\":936:968  _transferOwnership(_msgSender()) */\n  tag_12\n    /* \"@openzeppelin/contracts@4.7.3/access/Ownable.sol\":955:967  _msgSender() */\n  tag_13\n    /* \"@openzeppelin/contracts@4.7.3/access/Ownable.sol\":955:965  _msgSender */\n  shl(0x20, tag_14)\n    /* \"@openzeppelin/contracts@4.7.3/access/Ownable.sol\":955:967  _msgSender() */\n  0x20\n  shr\n  jump\t// in\ntag_13:\n    /* \"@openzeppelin/contracts@4.7.3/access/Ownable.sol\":936:954  _transferOwnership */\n  shl(0x20, tag_15)\n    /* \"@openzeppelin/contracts@4.7.3/access/Ownable.sol\":936:968  _transferOwnership(_msgSender()) */\n  0x20\n  shr\n  jump\t// in\ntag_12:\n    /* \"InVisiDots.sol\":322:914  contract InVisiDots is ERC20, ERC20Burnable, Pausable, Ownable {... */\n  jump(tag_17)\n    /* \"@openzeppelin/contracts@4.7.3/utils/Context.sol\":640:736  function _msgSender() internal view virtual returns (address) {... */\ntag_14:\n    /* \"@openzeppelin/contracts@4.7.3/utils/Context.sol\":693:700  address */\n  0x00\n    /* \"@openzeppelin/contracts@4.7.3/utils/Context.sol\":719:729  msg.sender */\n  caller\n    /* \"@openzeppelin/contracts@4.7.3/utils/Context.sol\":712:729  return msg.sender */\n  swap1\n  pop\n    /* \"@openzeppelin/contracts@4.7.3/utils/Context.sol\":640:736  function _msgSender() internal view virtual returns (address) {... */\n  swap1\n  jump\t// out\n    /* \"@openzeppelin/contracts@4.7.3/access/Ownable.sol\":2433:2620  function _transferOwnership(address newOwner) internal virtual {... */\ntag_15:\n    /* \"@openzeppelin/contracts@4.7.3/access/Ownable.sol\":2506:2522  address oldOwner */\n  0x00\n    /* \"@openzeppelin/contracts@4.7.3/access/Ownable.sol\":2525:2531  _owner */\n  0x05\n  0x01\n  swap1\n  sload\n  swap1\n  0x0100\n  exp\n  swap1\n  div\n  0xffffffffffffffffffffffffffffffffffffffff\n  and\n    /* \"@openzeppelin/contracts@4.7.3/access/Ownable.sol\":2506:2531  address oldOwner = _owner */\n  swap1\n  pop\n    /* \"@openzeppelin/contracts@4.7.3/access/Ownable.sol\":2550:2558  newOwner */\n  dup2\n    /* \"@openzeppelin/contracts@4.7.3/access/Ownable.sol\":2541:2547  _owner */\n  0x05\n  0x01\n    /* \"@openzeppelin/contracts@4.7.3/access/Ownable.sol\":2541:2558  _owner = newOwner */\n  0x0100\n  exp\n  dup2\n  sload\n  dup2\n  0xffffffffffffffffffffffffffffffffffffffff\n  mul\n  not\n  and\n  swap1\n  dup4\n  0xffffffffffffffffffffffffffffffffffffffff\n  and\n  mul\n  or\n  swap1\n  sstore\n  pop\n    /* \"@openzeppelin/contracts@4.7.3/access/Ownable.sol\":2604:2612  newOwner */\n  dup2\n    /* \"@openzeppelin/contracts@4.7.3/access/Ownable.sol\":2573:2613  OwnershipTransferred(oldOwner, newOwner) */\n  0xffffffffffffffffffffffffffffffffffffffff\n  and\n    /* \"@openzeppelin/contracts@4.7.3/access/Ownable.sol\":2594:2602  oldOwner */\n  dup2\n    /* \"@openzeppelin/contracts@4.7.3/access/Ownable.sol\":2573:2613  OwnershipTransferred(oldOwner, newOwner) */\n  0xffffffffffffffffffffffffffffffffffffffff\n  and\n  0x8be0079c531659141344cd1fd0a4f28419497f9722a3daafe3b4186f6b6457e0\n  mload(0x40)\n  mload(0x40)\n  dup1\n  swap2\n  sub\n  swap1\n  log3\n    /* \"@openzeppelin/contracts@4.7.3/access/Ownable.sol\":2496:2620  {... */\n  pop\n    /* \"@openzeppelin/contracts@4.7.3/access/Ownable.sol\":2433:2620  function _transferOwnership(address newOwner) internal virtual {... */\n  pop\n  jump\t// out\n    /* \"InVisiDots.sol\":322:914  contract InVisiDots is ERC20, ERC20Burnable, Pausable, Ownable {... */\ntag_8:\n  dup3\n  dup1\n  sload\n  tag_20\n  swap1\n  tag_21\n  jump\t// in\ntag_20:\n  swap1\n  0x00\n  mstore\n  keccak256(0x00, 0x20)\n  swap1\n  0x1f\n  add\n  0x20\n  swap1\n  div\n  dup2\n  add\n  swap3\n  dup3\n  tag_23\n  jumpi\n  0x00\n  dup6\n  sstore\n  jump(tag_22)\ntag_23:\n  dup3\n  0x1f\n  lt\n  tag_24\n  jumpi\n  dup1\n  mload\n  not(0xff)\n  and\n  dup4\n  dup1\n  add\n  or\n  dup6\n  sstore\n  jump(tag_22)\ntag_24:\n  dup3\n  dup1\n  add\n  0x01\n  add\n  dup6\n  sstore\n  dup3\n  iszero\n  tag_22\n  jumpi\n  swap2\n  dup3\n  add\ntag_25:\n  dup3\n  dup2\n  gt\n  iszero\n  tag_26\n  jumpi\n  dup3\n  mload\n  dup3\n  sstore\n  swap2\n  0x20\n  add\n  swap2\n  swap1\n  0x01\n  add\n  swap1\n  jump(tag_25)\ntag_26:\ntag_22:\n  pop\n  swap1\n  pop\n  tag_27\n  swap2\n  swap1\n  tag_28\n  jump\t// in\ntag_27:\n  pop\n  swap1\n  jump\t// out\ntag_28:\ntag_29:\n  dup1\n  dup3\n  gt\n  iszero\n  tag_30\n  jumpi\n  0x00\n  dup2\n  0x00\n  swap1\n  sstore\n  pop\n  0x01\n  add\n  jump(tag_29)\ntag_30:\n  pop\n  swap1\n  jump\t// out\n    /* \"#utility.yul\":7:327   */\ntag_21:\n    /* \"#utility.yul\":51:57   */\n  0x00\n    /* \"#utility.yul\":88:89   */\n  0x02\n    /* \"#utility.yul\":82:86   */\n  dup3\n    /* \"#utility.yul\":78:90   */\n  div\n    /* \"#utility.yul\":68:90   */\n  swap1\n  pop\n    /* \"#utility.yul\":135:136   */\n  0x01\n    /* \"#utility.yul\":129:133   */\n  dup3\n    /* \"#utility.yul\":125:137   */\n  and\n    /* \"#utility.yul\":156:174   */\n  dup1\n    /* \"#utility.yul\":146:227   */\n  tag_33\n  jumpi\n    /* \"#utility.yul\":212:216   */\n  0x7f\n    /* \"#utility.yul\":204:210   */\n  dup3\n    /* \"#utility.yul\":200:217   */\n  and\n    /* \"#utility.yul\":190:217   */\n  swap2\n  pop\n    /* \"#utility.yul\":146:227   */\ntag_33:\n    /* \"#utility.yul\":274:276   */\n  0x20\n    /* \"#utility.yul\":266:272   */\n  dup3\n    /* \"#utility.yul\":263:277   */\n  lt\n    /* \"#utility.yul\":243:261   */\n  dup2\n    /* \"#utility.yul\":240:278   */\n  eq\n    /* \"#utility.yul\":237:321   */\n  iszero\n  tag_34\n  jumpi\n    /* \"#utility.yul\":293:311   */\n  tag_35\n  tag_36\n  jump\t// in\ntag_35:\n    /* \"#utility.yul\":237:321   */\ntag_34:\n    /* \"#utility.yul\":58:327   */\n  pop\n    /* \"#utility.yul\":7:327   */\n  swap2\n  swap1\n  pop\n  jump\t// out\n    /* \"#utility.yul\":333:513   */\ntag_36:\n    /* \"#utility.yul\":381:458   */\n  0x4e487b7100000000000000000000000000000000000000000000000000000000\n    /* \"#utility.yul\":378:379   */\n  0x00\n    /* \"#utility.yul\":371:459   */\n  mstore\n    /* \"#utility.yul\":478:482   */\n  0x22\n    /* \"#utility.yul\":475:476   */\n  0x04\n    /* \"#utility.yul\":468:483   */\n  mstore\n    /* \"#utility.yul\":502:506   */\n  0x24\n    /* \"#utility.yul\":499:500   */\n  0x00\n    /* \"#utility.yul\":492:507   */\n  revert\n    /* \"InVisiDots.sol\":322:914  contract InVisiDots is ERC20, ERC20Burnable, Pausable, Ownable {... */\ntag_17:\n  dataSize(sub_0)\n  dup1\n  dataOffset(sub_0)\n  0x00\n  codecopy\n  0x00\n  return\nstop\n\nsub_0: assembly {\n        /* \"InVisiDots.sol\":322:914  contract InVisiDots is ERC20, ERC20Burnable, Pausable, Ownable {... */\n      mstore(0x40, 0x80)\n      callvalue\n      dup1\n      iszero\n      tag_1\n      jumpi\n      0x00\n      dup1\n      revert\n    tag_1:\n      pop\n      jumpi(tag_2, lt(calldatasize, 0x04))\n      shr(0xe0, calldataload(0x00))\n      dup1\n      0x5c975abb\n      gt\n      tag_24\n      jumpi\n      dup1\n      0x8da5cb5b\n      gt\n      tag_25\n      jumpi\n      dup1\n      0x8da5cb5b\n      eq\n      tag_18\n      jumpi\n      dup1\n      0x95d89b41\n      eq\n      tag_19\n      jumpi\n      dup1\n      0xa457c2d7\n      eq\n      tag_20\n      jumpi\n      dup1\n      0xa9059cbb\n      eq\n      tag_21\n      jumpi\n      dup1\n      0xdd62ed3e\n      eq\n      tag_22\n      jumpi\n      dup1\n      0xf2fde38b\n      eq\n      tag_23\n      jumpi\n      jump(tag_2)\n    tag_25:\n      dup1\n      0x5c975abb\n      eq\n      tag_13\n      jumpi\n      dup1\n      0x70a08231\n      eq\n      tag_14\n      jumpi\n      dup1\n      0x715018a6\n      eq\n      tag_15\n      jumpi\n      dup1\n      0x79cc6790\n      eq\n      tag_16\n      jumpi\n      dup1\n      0x8456cb59\n      eq\n      tag_17\n      jumpi\n      jump(tag_2)\n    tag_24:\n      dup1\n      0x39509351\n      gt\n      tag_26\n      jumpi\n      dup1\n      0x39509351\n      eq\n      tag_8\n      jumpi\n      dup1\n      0x3badee64\n      eq\n      tag_9\n      jumpi\n      dup1\n      0x3f4ba83a\n      eq\n      tag_10\n      jumpi\n      dup1\n      0x40c10f19\n      eq\n      tag_11\n      jumpi\n      dup1\n      0x42966c68\n      eq\n      tag_12\n      jumpi\n      jump(tag_2)\n    tag_26:\n      dup1\n      0x06fdde03\n      eq\n      tag_3\n      jumpi\n      dup1\n      0x095ea7b3\n      eq\n      tag_4\n      jumpi\n      dup1\n      0x18160ddd\n      eq\n      tag_5\n      jumpi\n      dup1\n      0x23b872dd\n      eq\n      tag_6\n      jumpi\n      dup1\n      0x313ce567\n      eq\n      tag_7\n      jumpi\n    tag_2:\n      0x00\n      dup1\n      revert\n        /* \"@openzeppelin/contracts@4.7.3/token/ERC20/ERC20.sol\":2156:2254  function name() public view virtual override returns (string memory) {... */\n    tag_3:\n      tag_27\n      tag_28\n      jump\t// in\n    tag_27:\n      mload(0x40)\n      tag_29\n      swap2\n      swap1\n      tag_30\n      jump\t// in\n    tag_29:\n      mload(0x40)\n      dup1\n      swap2\n      sub\n      swap1\n      return\n        /* \"@openzeppelin/contracts@4.7.3/token/ERC20/ERC20.sol\":4433:4630  function approve(address spender, uint256 amount) public virtual override returns (bool) {... */\n    tag_4:\n      tag_31\n      0x04\n      dup1\n      calldatasize\n      sub\n      dup2\n      add\n      swap1\n      tag_32\n      swap2\n      swap1\n      tag_33\n      jump\t// in\n    tag_32:\n      tag_34\n      jump\t// in\n    tag_31:\n      mload(0x40)\n      tag_35\n      swap2\n      swap1\n      tag_36\n      jump\t// in\n    tag_35:\n      mload(0x40)\n      dup1\n      swap2\n      sub\n      swap1\n      return\n        /* \"@openzeppelin/contracts@4.7.3/token/ERC20/ERC20.sol\":3244:3350  function totalSupply() public view virtual override returns (uint256) {... */\n    tag_5:\n      tag_37\n      tag_38\n      jump\t// in\n    tag_37:\n      mload(0x40)\n      tag_39\n      swap2\n      swap1\n      tag_40\n      jump\t// in\n    tag_39:\n      mload(0x40)\n      dup1\n      swap2\n      sub\n      swap1\n      return\n        /* \"@openzeppelin/contracts@4.7.3/token/ERC20/ERC20.sol\":5192:5478  function transferFrom(... */\n    tag_6:\n      tag_41\n      0x04\n      dup1\n      calldatasize\n      sub\n      dup2\n      add\n      swap1\n      tag_42\n      swap2\n      swap1\n      tag_43\n      jump\t// in\n    tag_42:\n      tag_44\n      jump\t// in\n    tag_41:\n      mload(0x40)\n      tag_45\n      swap2\n      swap1\n      tag_36\n      jump\t// in\n    tag_45:\n      mload(0x40)\n      dup1\n      swap2\n      sub\n      swap1\n      return\n        /* \"@openzeppelin/contracts@4.7.3/token/ERC20/ERC20.sol\":3093:3184  function decimals() public view virtual override returns (uint8) {... */\n    tag_7:\n      tag_46\n      tag_47\n      jump\t// in\n    tag_46:\n      mload(0x40)\n      tag_48\n      swap2\n      swap1\n      tag_49\n      jump\t// in\n    tag_48:\n      mload(0x40)\n      dup1\n      swap2\n      sub\n      swap1\n      return\n        /* \"@openzeppelin/contracts@4.7.3/token/ERC20/ERC20.sol\":5873:6107  function increaseAllowance(address spender, uint256 addedValue) public virtual returns (bool) {... */\n    tag_8:\n      tag_50\n      0x04\n      dup1\n      calldatasize\n      sub\n      dup2\n      add\n      swap1\n      tag_51\n      swap2\n      swap1\n      tag_33\n      jump\t// in\n    tag_51:\n      tag_52\n      jump\t// in\n    tag_50:\n      mload(0x40)\n      tag_53\n      swap2\n      swap1\n      tag_36\n      jump\t// in\n    tag_53:\n      mload(0x40)\n      dup1\n      swap2\n      sub\n      swap1\n      return\n        /* \"InVisiDots.sol\":872:912  function game(int ) public ... */\n    tag_9:\n      tag_54\n      0x04\n      dup1\n      calldatasize\n      sub\n      dup2\n      add\n      swap1\n      tag_55\n      swap2\n      swap1\n      tag_56\n      jump\t// in\n    tag_55:\n      tag_57\n      jump\t// in\n    tag_54:\n      stop\n        /* \"InVisiDots.sol\":505:568  function unpause() public onlyOwner {... */\n    tag_10:\n      tag_58\n      tag_59\n      jump\t// in\n    tag_58:\n      stop\n        /* \"InVisiDots.sol\":574:667  function mint(address to, uint256 amount) public onlyOwner {... */\n    tag_11:\n      tag_60\n      0x04\n      dup1\n      calldatasize\n      sub\n      dup2\n      add\n      swap1\n      tag_61\n      swap2\n      swap1\n      tag_33\n      jump\t// in\n    tag_61:\n      tag_62\n      jump\t// in\n    tag_60:\n      stop\n        /* \"@openzeppelin/contracts@4.7.3/token/ERC20/extensions/ERC20Burnable.sol\":578:667  function burn(uint256 amount) public virtual {... */\n    tag_12:\n      tag_63\n      0x04\n      dup1\n      calldatasize\n      sub\n      dup2\n      add\n      swap1\n      tag_64\n      swap2\n      swap1\n      tag_65\n      jump\t// in\n    tag_64:\n      tag_66\n      jump\t// in\n    tag_63:\n      stop\n        /* \"@openzeppelin/contracts@4.7.3/security/Pausable.sol\":1615:1699  function paused() public view virtual returns (bool) {... */\n    tag_13:\n      tag_67\n      tag_68\n      jump\t// in\n    tag_67:\n      mload(0x40)\n      tag_69\n      swap2\n      swap1\n      tag_36\n      jump\t// in\n    tag_69:\n      mload(0x40)\n      dup1\n      swap2\n      sub\n      swap1\n      return\n        /* \"@openzeppelin/contracts@4.7.3/token/ERC20/ERC20.sol\":3408:3533  function balanceOf(address account) public view virtual override returns (uint256) {... */\n    tag_14:\n      tag_70\n      0x04\n      dup1\n      calldatasize\n      sub\n      dup2\n      add\n      swap1\n      tag_71\n      swap2\n      swap1\n      tag_72\n      jump\t// in\n    tag_71:\n      tag_73\n      jump\t// in\n    tag_70:\n      mload(0x40)\n      tag_74\n      swap2\n      swap1\n      tag_40\n      jump\t// in\n    tag_74:\n      mload(0x40)\n      dup1\n      swap2\n      sub\n      swap1\n      return\n        /* \"@openzeppelin/contracts@4.7.3/access/Ownable.sol\":1831:1932  function renounceOwnership() public virtual onlyOwner {... */\n    tag_15:\n      tag_75\n      tag_76\n      jump\t// in\n    tag_75:\n      stop\n        /* \"@openzeppelin/contracts@4.7.3/token/ERC20/extensions/ERC20Burnable.sol\":973:1134  function burnFrom(address account, uint256 amount) public virtual {... */\n    tag_16:\n      tag_77\n      0x04\n      dup1\n      calldatasize\n      sub\n      dup2\n      add\n      swap1\n      tag_78\n      swap2\n      swap1\n      tag_33\n      jump\t// in\n    tag_78:\n      tag_79\n      jump\t// in\n    tag_77:\n      stop\n        /* \"InVisiDots.sol\":440:499  function pause() public onlyOwner {... */\n    tag_17:\n      tag_80\n      tag_81\n      jump\t// in\n    tag_80:\n      stop\n        /* \"@openzeppelin/contracts@4.7.3/access/Ownable.sol\":1201:1286  function owner() public view virtual returns (address) {... */\n    tag_18:\n      tag_82\n      tag_83\n      jump\t// in\n    tag_82:\n      mload(0x40)\n      tag_84\n      swap2\n      swap1\n      tag_85\n      jump\t// in\n    tag_84:\n      mload(0x40)\n      dup1\n      swap2\n      sub\n      swap1\n      return\n        /* \"@openzeppelin/contracts@4.7.3/token/ERC20/ERC20.sol\":2367:2469  function symbol() public view virtual override returns (string memory) {... */\n    tag_19:\n      tag_86\n      tag_87\n      jump\t// in\n    tag_86:\n      mload(0x40)\n      tag_88\n      swap2\n      swap1\n      tag_30\n      jump\t// in\n    tag_88:\n      mload(0x40)\n      dup1\n      swap2\n      sub\n      swap1\n      return\n        /* \"@openzeppelin/contracts@4.7.3/token/ERC20/ERC20.sol\":6594:7021  function decreaseAllowance(address spender, uint256 subtractedValue) public virtual returns (bool) {... */\n    tag_20:\n      tag_89\n      0x04\n      dup1\n      calldatasize\n      sub\n      dup2\n      add\n      swap1\n      tag_90\n      swap2\n      swap1\n      tag_33\n      jump\t// in\n    tag_90:\n      tag_91\n      jump\t// in\n    tag_89:\n      mload(0x40)\n      tag_92\n      swap2\n      swap1\n      tag_36\n      jump\t// in\n    tag_92:\n      mload(0x40)\n      dup1\n      swap2\n      sub\n      swap1\n      return\n        /* \"@openzeppelin/contracts@4.7.3/token/ERC20/ERC20.sol\":3729:3918  function transfer(address to, uint256 amount) public virtual override returns (bool) {... */\n    tag_21:\n      tag_93\n      0x04\n      dup1\n      calldatasize\n      sub\n      dup2\n      add\n      swap1\n      tag_94\n      swap2\n      swap1\n      tag_33\n      jump\t// in\n    tag_94:\n      tag_95\n      jump\t// in\n    tag_93:\n      mload(0x40)\n      tag_96\n      swap2\n      swap1\n      tag_36\n      jump\t// in\n    tag_96:\n      mload(0x40)\n      dup1\n      swap2\n      sub\n      swap1\n      return\n        /* \"@openzeppelin/contracts@4.7.3/token/ERC20/ERC20.sol\":3976:4125  function allowance(address owner, address spender) public view virtual override returns (uint256) {... */\n    tag_22:\n      tag_97\n      0x04\n      dup1\n      calldatasize\n      sub\n      dup2\n      add\n      swap1\n      tag_98\n      swap2\n      swap1\n      tag_99\n      jump\t// in\n    tag_98:\n      tag_100\n      jump\t// in\n    tag_97:\n      mload(0x40)\n      tag_101\n      swap2\n      swap1\n      tag_40\n      jump\t// in\n    tag_101:\n      mload(0x40)\n      dup1\n      swap2\n      sub\n      swap1\n      return\n        /* \"@openzeppelin/contracts@4.7.3/access/Ownable.sol\":2081:2279  function transferOwnership(address newOwner) public virtual onlyOwner {... */\n    tag_23:\n      tag_102\n      0x04\n      dup1\n      calldatasize\n      sub\n      dup2\n      add\n      swap1\n      tag_103\n      swap2\n      swap1\n      tag_72\n      jump\t// in\n    tag_103:\n      tag_104\n      jump\t// in\n    tag_102:\n      stop\n        /* \"@openzeppelin/contracts@4.7.3/token/ERC20/ERC20.sol\":2156:2254  function name() public view virtual override returns (string memory) {... */\n    tag_28:\n        /* \"@openzeppelin/contracts@4.7.3/token/ERC20/ERC20.sol\":2210:2223  string memory */\n      0x60\n        /* \"@openzeppelin/contracts@4.7.3/token/ERC20/ERC20.sol\":2242:2247  _name */\n      0x03\n        /* \"@openzeppelin/contracts@4.7.3/token/ERC20/ERC20.sol\":2235:2247  return _name */\n      dup1\n      sload\n      tag_106\n      swap1\n      tag_107\n      jump\t// in\n    tag_106:\n      dup1\n      0x1f\n      add\n      0x20\n      dup1\n      swap2\n      div\n      mul\n      0x20\n      add\n      mload(0x40)\n      swap1\n      dup2\n      add\n      0x40\n      mstore\n      dup1\n      swap3\n      swap2\n      swap1\n      dup2\n      dup2\n      mstore\n      0x20\n      add\n      dup3\n      dup1\n      sload\n      tag_108\n      swap1\n      tag_107\n      jump\t// in\n    tag_108:\n      dup1\n      iszero\n      tag_109\n      jumpi\n      dup1\n      0x1f\n      lt\n      tag_110\n      jumpi\n      0x0100\n      dup1\n      dup4\n      sload\n      div\n      mul\n      dup4\n      mstore\n      swap2\n      0x20\n      add\n      swap2\n      jump(tag_109)\n    tag_110:\n      dup3\n      add\n      swap2\n      swap1\n      0x00\n      mstore\n      keccak256(0x00, 0x20)\n      swap1\n    tag_111:\n      dup2\n      sload\n      dup2\n      mstore\n      swap1\n      0x01\n      add\n      swap1\n      0x20\n      add\n      dup1\n      dup4\n      gt\n      tag_111\n      jumpi\n      dup3\n      swap1\n      sub\n      0x1f\n      and\n      dup3\n      add\n      swap2\n    tag_109:\n      pop\n      pop\n      pop\n      pop\n      pop\n      swap1\n      pop\n        /* \"@openzeppelin/contracts@4.7.3/token/ERC20/ERC20.sol\":2156:2254  function name() public view virtual override returns (string memory) {... */\n      swap1\n      jump\t// out\n        /* \"@openzeppelin/contracts@4.7.3/token/ERC20/ERC20.sol\":4433:4630  function approve(address spender, uint256 amount) public virtual override returns (bool) {... */\n    tag_34:\n        /* \"@openzeppelin/contracts@4.7.3/token/ERC20/ERC20.sol\":4516:4520  bool */\n      0x00\n        /* \"@openzeppelin/contracts@4.7.3/token/ERC20/ERC20.sol\":4532:4545  address owner */\n      dup1\n        /* \"@openzeppelin/contracts@4.7.3/token/ERC20/ERC20.sol\":4548:4560  _msgSender() */\n      tag_113\n        /* \"@openzeppelin/contracts@4.7.3/token/ERC20/ERC20.sol\":4548:4558  _msgSender */\n      tag_114\n        /* \"@openzeppelin/contracts@4.7.3/token/ERC20/ERC20.sol\":4548:4560  _msgSender() */\n      jump\t// in\n    tag_113:\n        /* \"@openzeppelin/contracts@4.7.3/token/ERC20/ERC20.sol\":4532:4560  address owner = _msgSender() */\n      swap1\n      pop\n        /* \"@openzeppelin/contracts@4.7.3/token/ERC20/ERC20.sol\":4570:4602  _approve(owner, spender, amount) */\n      tag_115\n        /* \"@openzeppelin/contracts@4.7.3/token/ERC20/ERC20.sol\":4579:4584  owner */\n      dup2\n        /* \"@openzeppelin/contracts@4.7.3/token/ERC20/ERC20.sol\":4586:4593  spender */\n      dup6\n        /* \"@openzeppelin/contracts@4.7.3/token/ERC20/ERC20.sol\":4595:4601  amount */\n      dup6\n        /* \"@openzeppelin/contracts@4.7.3/token/ERC20/ERC20.sol\":4570:4578  _approve */\n      tag_116\n        /* \"@openzeppelin/contracts@4.7.3/token/ERC20/ERC20.sol\":4570:4602  _approve(owner, spender, amount) */\n      jump\t// in\n    tag_115:\n        /* \"@openzeppelin/contracts@4.7.3/token/ERC20/ERC20.sol\":4619:4623  true */\n      0x01\n        /* \"@openzeppelin/contracts@4.7.3/token/ERC20/ERC20.sol\":4612:4623  return true */\n      swap2\n      pop\n      pop\n        /* \"@openzeppelin/contracts@4.7.3/token/ERC20/ERC20.sol\":4433:4630  function approve(address spender, uint256 amount) public virtual override returns (bool) {... */\n      swap3\n      swap2\n      pop\n      pop\n      jump\t// out\n        /* \"@openzeppelin/contracts@4.7.3/token/ERC20/ERC20.sol\":3244:3350  function totalSupply() public view virtual override returns (uint256) {... */\n    tag_38:\n        /* \"@openzeppelin/contracts@4.7.3/token/ERC20/ERC20.sol\":3305:3312  uint256 */\n      0x00\n        /* \"@openzeppelin/contracts@4.7.3/token/ERC20/ERC20.sol\":3331:3343  _totalSupply */\n      sload(0x02)\n        /* \"@openzeppelin/contracts@4.7.3/token/ERC20/ERC20.sol\":3324:3343  return _totalSupply */\n      swap1\n      pop\n        /* \"@openzeppelin/contracts@4.7.3/token/ERC20/ERC20.sol\":3244:3350  function totalSupply() public view virtual override returns (uint256) {... */\n      swap1\n      jump\t// out\n        /* \"@openzeppelin/contracts@4.7.3/token/ERC20/ERC20.sol\":5192:5478  function transferFrom(... */\n    tag_44:\n        /* \"@openzeppelin/contracts@4.7.3/token/ERC20/ERC20.sol\":5319:5323  bool */\n      0x00\n        /* \"@openzeppelin/contracts@4.7.3/token/ERC20/ERC20.sol\":5335:5350  address spender */\n      dup1\n        /* \"@openzeppelin/contracts@4.7.3/token/ERC20/ERC20.sol\":5353:5365  _msgSender() */\n      tag_119\n        /* \"@openzeppelin/contracts@4.7.3/token/ERC20/ERC20.sol\":5353:5363  _msgSender */\n      tag_114\n        /* \"@openzeppelin/contracts@4.7.3/token/ERC20/ERC20.sol\":5353:5365  _msgSender() */\n      jump\t// in\n    tag_119:\n        /* \"@openzeppelin/contracts@4.7.3/token/ERC20/ERC20.sol\":5335:5365  address spender = _msgSender() */\n      swap1\n      pop\n        /* \"@openzeppelin/contracts@4.7.3/token/ERC20/ERC20.sol\":5375:5413  _spendAllowance(from, spender, amount) */\n      tag_120\n        /* \"@openzeppelin/contracts@4.7.3/token/ERC20/ERC20.sol\":5391:5395  from */\n      dup6\n        /* \"@openzeppelin/contracts@4.7.3/token/ERC20/ERC20.sol\":5397:5404  spender */\n      dup3\n        /* \"@openzeppelin/contracts@4.7.3/token/ERC20/ERC20.sol\":5406:5412  amount */\n      dup6\n        /* \"@openzeppelin/contracts@4.7.3/token/ERC20/ERC20.sol\":5375:5390  _spendAllowance */\n      tag_121\n        /* \"@openzeppelin/contracts@4.7.3/token/ERC20/ERC20.sol\":5375:5413  _spendAllowance(from, spender, amount) */\n      jump\t// in\n    tag_120:\n        /* \"@openzeppelin/contracts@4.7.3/token/ERC20/ERC20.sol\":5423:5450  _transfer(from, to, amount) */\n      tag_122\n        /* \"@openzeppelin/contracts@4.7.3/token/ERC20/ERC20.sol\":5433:5437  from */\n      dup6\n        /* \"@openzeppelin/contracts@4.7.3/token/ERC20/ERC20.sol\":5439:5441  to */\n      dup6\n        /* \"@openzeppelin/contracts@4.7.3/token/ERC20/ERC20.sol\":5443:5449  amount */\n      dup6\n        /* \"@openzeppelin/contracts@4.7.3/token/ERC20/ERC20.sol\":5423:5432  _transfer */\n      tag_123\n        /* \"@openzeppelin/contracts@4.7.3/token/ERC20/ERC20.sol\":5423:5450  _transfer(from, to, amount) */\n      jump\t// in\n    tag_122:\n        /* \"@openzeppelin/contracts@4.7.3/token/ERC20/ERC20.sol\":5467:5471  true */\n      0x01\n        /* \"@openzeppelin/contracts@4.7.3/token/ERC20/ERC20.sol\":5460:5471  return true */\n      swap2\n      pop\n      pop\n        /* \"@openzeppelin/contracts@4.7.3/token/ERC20/ERC20.sol\":5192:5478  function transferFrom(... */\n      swap4\n      swap3\n      pop\n      pop\n      pop\n      jump\t// out\n        /* \"@openzeppelin/contracts@4.7.3/token/ERC20/ERC20.sol\":3093:3184  function decimals() public view virtual override returns (uint8) {... */\n    tag_47:\n        /* \"@openzeppelin/contracts@4.7.3/token/ERC20/ERC20.sol\":3151:3156  uint8 */\n      0x00\n        /* \"@openzeppelin/contracts@4.7.3/token/ERC20/ERC20.sol\":3175:3177  18 */\n      0x12\n        /* \"@openzeppelin/contracts@4.7.3/token/ERC20/ERC20.sol\":3168:3177  return 18 */\n      swap1\n      pop\n        /* \"@openzeppelin/contracts@4.7.3/token/ERC20/ERC20.sol\":3093:3184  function decimals() public view virtual override returns (uint8) {... */\n      swap1\n      jump\t// out\n        /* \"@openzeppelin/contracts@4.7.3/token/ERC20/ERC20.sol\":5873:6107  function increaseAllowance(address spender, uint256 addedValue) public virtual returns (bool) {... */\n    tag_52:\n        /* \"@openzeppelin/contracts@4.7.3/token/ERC20/ERC20.sol\":5961:5965  bool */\n      0x00\n        /* \"@openzeppelin/contracts@4.7.3/token/ERC20/ERC20.sol\":5977:5990  address owner */\n      dup1\n        /* \"@openzeppelin/contracts@4.7.3/token/ERC20/ERC20.sol\":5993:6005  _msgSender() */\n      tag_126\n        /* \"@openzeppelin/contracts@4.7.3/token/ERC20/ERC20.sol\":5993:6003  _msgSender */\n      tag_114\n        /* \"@openzeppelin/contracts@4.7.3/token/ERC20/ERC20.sol\":5993:6005  _msgSender() */\n      jump\t// in\n    tag_126:\n        /* \"@openzeppelin/contracts@4.7.3/token/ERC20/ERC20.sol\":5977:6005  address owner = _msgSender() */\n      swap1\n      pop\n        /* \"@openzeppelin/contracts@4.7.3/token/ERC20/ERC20.sol\":6015:6079  _approve(owner, spender, allowance(owner, spender) + addedValue) */\n      tag_127\n        /* \"@openzeppelin/contracts@4.7.3/token/ERC20/ERC20.sol\":6024:6029  owner */\n      dup2\n        /* \"@openzeppelin/contracts@4.7.3/token/ERC20/ERC20.sol\":6031:6038  spender */\n      dup6\n        /* \"@openzeppelin/contracts@4.7.3/token/ERC20/ERC20.sol\":6068:6078  addedValue */\n      dup6\n        /* \"@openzeppelin/contracts@4.7.3/token/ERC20/ERC20.sol\":6040:6065  allowance(owner, spender) */\n      tag_128\n        /* \"@openzeppelin/contracts@4.7.3/token/ERC20/ERC20.sol\":6050:6055  owner */\n      dup6\n        /* \"@openzeppelin/contracts@4.7.3/token/ERC20/ERC20.sol\":6057:6064  spender */\n      dup10\n        /* \"@openzeppelin/contracts@4.7.3/token/ERC20/ERC20.sol\":6040:6049  allowance */\n      tag_100\n        /* \"@openzeppelin/contracts@4.7.3/token/ERC20/ERC20.sol\":6040:6065  allowance(owner, spender) */\n      jump\t// in\n    tag_128:\n        /* \"@openzeppelin/contracts@4.7.3/token/ERC20/ERC20.sol\":6040:6078  allowance(owner, spender) + addedValue */\n      tag_129\n      swap2\n      swap1\n      tag_130\n      jump\t// in\n    tag_129:\n        /* \"@openzeppelin/contracts@4.7.3/token/ERC20/ERC20.sol\":6015:6023  _approve */\n      tag_116\n        /* \"@openzeppelin/contracts@4.7.3/token/ERC20/ERC20.sol\":6015:6079  _approve(owner, spender, allowance(owner, spender) + addedValue) */\n      jump\t// in\n    tag_127:\n        /* \"@openzeppelin/contracts@4.7.3/token/ERC20/ERC20.sol\":6096:6100  true */\n      0x01\n        /* \"@openzeppelin/contracts@4.7.3/token/ERC20/ERC20.sol\":6089:6100  return true */\n      swap2\n      pop\n      pop\n        /* \"@openzeppelin/contracts@4.7.3/token/ERC20/ERC20.sol\":5873:6107  function increaseAllowance(address spender, uint256 addedValue) public virtual returns (bool) {... */\n      swap3\n      swap2\n      pop\n      pop\n      jump\t// out\n        /* \"InVisiDots.sol\":872:912  function game(int ) public ... */\n    tag_57:\n      pop\n      jump\t// out\n        /* \"InVisiDots.sol\":505:568  function unpause() public onlyOwner {... */\n    tag_59:\n        /* \"@openzeppelin/contracts@4.7.3/access/Ownable.sol\":1094:1107  _checkOwner() */\n      tag_133\n        /* \"@openzeppelin/contracts@4.7.3/access/Ownable.sol\":1094:1105  _checkOwner */\n      tag_134\n        /* \"@openzeppelin/contracts@4.7.3/access/Ownable.sol\":1094:1107  _checkOwner() */\n      jump\t// in\n    tag_133:\n        /* \"InVisiDots.sol\":551:561  _unpause() */\n      tag_136\n        /* \"InVisiDots.sol\":551:559  _unpause */\n      tag_137\n        /* \"InVisiDots.sol\":551:561  _unpause() */\n      jump\t// in\n    tag_136:\n        /* \"InVisiDots.sol\":505:568  function unpause() public onlyOwner {... */\n      jump\t// out\n        /* \"InVisiDots.sol\":574:667  function mint(address to, uint256 amount) public onlyOwner {... */\n    tag_62:\n        /* \"@openzeppelin/contracts@4.7.3/access/Ownable.sol\":1094:1107  _checkOwner() */\n      tag_139\n        /* \"@openzeppelin/contracts@4.7.3/access/Ownable.sol\":1094:1105  _checkOwner */\n      tag_134\n        /* \"@openzeppelin/contracts@4.7.3/access/Ownable.sol\":1094:1107  _checkOwner() */\n      jump\t// in\n    tag_139:\n        /* \"InVisiDots.sol\":643:660  _mint(to, amount) */\n      tag_141\n        /* \"InVisiDots.sol\":649:651  to */\n      dup3\n        /* \"InVisiDots.sol\":653:659  amount */\n      dup3\n        /* \"InVisiDots.sol\":643:648  _mint */\n      tag_142\n        /* \"InVisiDots.sol\":643:660  _mint(to, amount) */\n      jump\t// in\n    tag_141:\n        /* \"InVisiDots.sol\":574:667  function mint(address to, uint256 amount) public onlyOwner {... */\n      pop\n      pop\n      jump\t// out\n        /* \"@openzeppelin/contracts@4.7.3/token/ERC20/extensions/ERC20Burnable.sol\":578:667  function burn(uint256 amount) public virtual {... */\n    tag_66:\n        /* \"@openzeppelin/contracts@4.7.3/token/ERC20/extensions/ERC20Burnable.sol\":633:660  _burn(_msgSender(), amount) */\n      tag_144\n        /* \"@openzeppelin/contracts@4.7.3/token/ERC20/extensions/ERC20Burnable.sol\":639:651  _msgSender() */\n      tag_145\n        /* \"@openzeppelin/contracts@4.7.3/token/ERC20/extensions/ERC20Burnable.sol\":639:649  _msgSender */\n      tag_114\n        /* \"@openzeppelin/contracts@4.7.3/token/ERC20/extensions/ERC20Burnable.sol\":639:651  _msgSender() */\n      jump\t// in\n    tag_145:\n        /* \"@openzeppelin/contracts@4.7.3/token/ERC20/extensions/ERC20Burnable.sol\":653:659  amount */\n      dup3\n        /* \"@openzeppelin/contracts@4.7.3/token/ERC20/extensions/ERC20Burnable.sol\":633:638  _burn */\n      tag_146\n        /* \"@openzeppelin/contracts@4.7.3/token/ERC20/extensions/ERC20Burnable.sol\":633:660  _burn(_msgSender(), amount) */\n      jump\t// in\n    tag_144:\n        /* \"@openzeppelin/contracts@4.7.3/token/ERC20/extensions/ERC20Burnable.sol\":578:667  function burn(uint256 amount) public virtual {... */\n      pop\n      jump\t// out\n        /* \"@openzeppelin/contracts@4.7.3/security/Pausable.sol\":1615:1699  function paused() public view virtual returns (bool) {... */\n    tag_68:\n        /* \"@openzeppelin/contracts@4.7.3/security/Pausable.sol\":1662:1666  bool */\n      0x00\n        /* \"@openzeppelin/contracts@4.7.3/security/Pausable.sol\":1685:1692  _paused */\n      0x05\n      0x00\n      swap1\n      sload\n      swap1\n      0x0100\n      exp\n      swap1\n      div\n      0xff\n      and\n        /* \"@openzeppelin/contracts@4.7.3/security/Pausable.sol\":1678:1692  return _paused */\n      swap1\n      pop\n        /* \"@openzeppelin/contracts@4.7.3/security/Pausable.sol\":1615:1699  function paused() public view virtual returns (bool) {... */\n      swap1\n      jump\t// out\n        /* \"@openzeppelin/contracts@4.7.3/token/ERC20/ERC20.sol\":3408:3533  function balanceOf(address account) public view virtual override returns (uint256) {... */\n    tag_73:\n        /* \"@openzeppelin/contracts@4.7.3/token/ERC20/ERC20.sol\":3482:3489  uint256 */\n      0x00\n        /* \"@openzeppelin/contracts@4.7.3/token/ERC20/ERC20.sol\":3508:3517  _balances */\n      dup1\n        /* \"@openzeppelin/contracts@4.7.3/token/ERC20/ERC20.sol\":3508:3526  _balances[account] */\n      0x00\n        /* \"@openzeppelin/contracts@4.7.3/token/ERC20/ERC20.sol\":3518:3525  account */\n      dup4\n        /* \"@openzeppelin/contracts@4.7.3/token/ERC20/ERC20.sol\":3508:3526  _balances[account] */\n      0xffffffffffffffffffffffffffffffffffffffff\n      and\n      0xffffffffffffffffffffffffffffffffffffffff\n      and\n      dup2\n      mstore\n      0x20\n      add\n      swap1\n      dup2\n      mstore\n      0x20\n      add\n      0x00\n      keccak256\n      sload\n        /* \"@openzeppelin/contracts@4.7.3/token/ERC20/ERC20.sol\":3501:3526  return _balances[account] */\n      swap1\n      pop\n        /* \"@openzeppelin/contracts@4.7.3/token/ERC20/ERC20.sol\":3408:3533  function balanceOf(address account) public view virtual override returns (uint256) {... */\n      swap2\n      swap1\n      pop\n      jump\t// out\n        /* \"@openzeppelin/contracts@4.7.3/access/Ownable.sol\":1831:1932  function renounceOwnership() public virtual onlyOwner {... */\n    tag_76:\n        /* \"@openzeppelin/contracts@4.7.3/access/Ownable.sol\":1094:1107  _checkOwner() */\n      tag_150\n        /* \"@openzeppelin/contracts@4.7.3/access/Ownable.sol\":1094:1105  _checkOwner */\n      tag_134\n        /* \"@openzeppelin/contracts@4.7.3/access/Ownable.sol\":1094:1107  _checkOwner() */\n      jump\t// in\n    tag_150:\n        /* \"@openzeppelin/contracts@4.7.3/access/Ownable.sol\":1895:1925  _transferOwnership(address(0)) */\n      tag_152\n        /* \"@openzeppelin/contracts@4.7.3/access/Ownable.sol\":1922:1923  0 */\n      0x00\n        /* \"@openzeppelin/contracts@4.7.3/access/Ownable.sol\":1895:1913  _transferOwnership */\n      tag_153\n        /* \"@openzeppelin/contracts@4.7.3/access/Ownable.sol\":1895:1925  _transferOwnership(address(0)) */\n      jump\t// in\n    tag_152:\n        /* \"@openzeppelin/contracts@4.7.3/access/Ownable.sol\":1831:1932  function renounceOwnership() public virtual onlyOwner {... */\n      jump\t// out\n        /* \"@openzeppelin/contracts@4.7.3/token/ERC20/extensions/ERC20Burnable.sol\":973:1134  function burnFrom(address account, uint256 amount) public virtual {... */\n    tag_79:\n        /* \"@openzeppelin/contracts@4.7.3/token/ERC20/extensions/ERC20Burnable.sol\":1049:1095  _spendAllowance(account, _msgSender(), amount) */\n      tag_155\n        /* \"@openzeppelin/contracts@4.7.3/token/ERC20/extensions/ERC20Burnable.sol\":1065:1072  account */\n      dup3\n        /* \"@openzeppelin/contracts@4.7.3/token/ERC20/extensions/ERC20Burnable.sol\":1074:1086  _msgSender() */\n      tag_156\n        /* \"@openzeppelin/contracts@4.7.3/token/ERC20/extensions/ERC20Burnable.sol\":1074:1084  _msgSender */\n      tag_114\n        /* \"@openzeppelin/contracts@4.7.3/token/ERC20/extensions/ERC20Burnable.sol\":1074:1086  _msgSender() */\n      jump\t// in\n    tag_156:\n        /* \"@openzeppelin/contracts@4.7.3/token/ERC20/extensions/ERC20Burnable.sol\":1088:1094  amount */\n      dup4\n        /* \"@openzeppelin/contracts@4.7.3/token/ERC20/extensions/ERC20Burnable.sol\":1049:1064  _spendAllowance */\n      tag_121\n        /* \"@openzeppelin/contracts@4.7.3/token/ERC20/extensions/ERC20Burnable.sol\":1049:1095  _spendAllowance(account, _msgSender(), amount) */\n      jump\t// in\n    tag_155:\n        /* \"@openzeppelin/contracts@4.7.3/token/ERC20/extensions/ERC20Burnable.sol\":1105:1127  _burn(account, amount) */\n      tag_157\n        /* \"@openzeppelin/contracts@4.7.3/token/ERC20/extensions/ERC20Burnable.sol\":1111:1118  account */\n      dup3\n        /* \"@openzeppelin/contracts@4.7.3/token/ERC20/extensions/ERC20Burnable.sol\":1120:1126  amount */\n      dup3\n        /* \"@openzeppelin/contracts@4.7.3/token/ERC20/extensions/ERC20Burnable.sol\":1105:1110  _burn */\n      tag_146\n        /* \"@openzeppelin/contracts@4.7.3/token/ERC20/extensions/ERC20Burnable.sol\":1105:1127  _burn(account, amount) */\n      jump\t// in\n    tag_157:\n        /* \"@openzeppelin/contracts@4.7.3/token/ERC20/extensions/ERC20Burnable.sol\":973:1134  function burnFrom(address account, uint256 amount) public virtual {... */\n      pop\n      pop\n      jump\t// out\n        /* \"InVisiDots.sol\":440:499  function pause() public onlyOwner {... */\n    tag_81:\n        /* \"@openzeppelin/contracts@4.7.3/access/Ownable.sol\":1094:1107  _checkOwner() */\n      tag_159\n        /* \"@openzeppelin/contracts@4.7.3/access/Ownable.sol\":1094:1105  _checkOwner */\n      tag_134\n        /* \"@openzeppelin/contracts@4.7.3/access/Ownable.sol\":1094:1107  _checkOwner() */\n      jump\t// in\n    tag_159:\n        /* \"InVisiDots.sol\":484:492  _pause() */\n      tag_161\n        /* \"InVisiDots.sol\":484:490  _pause */\n      tag_162\n        /* \"InVisiDots.sol\":484:492  _pause() */\n      jump\t// in\n    tag_161:\n        /* \"InVisiDots.sol\":440:499  function pause() public onlyOwner {... */\n      jump\t// out\n        /* \"@openzeppelin/contracts@4.7.3/access/Ownable.sol\":1201:1286  function owner() public view virtual returns (address) {... */\n    tag_83:\n        /* \"@openzeppelin/contracts@4.7.3/access/Ownable.sol\":1247:1254  address */\n      0x00\n        /* \"@openzeppelin/contracts@4.7.3/access/Ownable.sol\":1273:1279  _owner */\n      0x05\n      0x01\n      swap1\n      sload\n      swap1\n      0x0100\n      exp\n      swap1\n      div\n      0xffffffffffffffffffffffffffffffffffffffff\n      and\n        /* \"@openzeppelin/contracts@4.7.3/access/Ownable.sol\":1266:1279  return _owner */\n      swap1\n      pop\n        /* \"@openzeppelin/contracts@4.7.3/access/Ownable.sol\":1201:1286  function owner() public view virtual returns (address) {... */\n      swap1\n      jump\t// out\n        /* \"@openzeppelin/contracts@4.7.3/token/ERC20/ERC20.sol\":2367:2469  function symbol() public view virtual override returns (string memory) {... */\n    tag_87:\n        /* \"@openzeppelin/contracts@4.7.3/token/ERC20/ERC20.sol\":2423:2436  string memory */\n      0x60\n        /* \"@openzeppelin/contracts@4.7.3/token/ERC20/ERC20.sol\":2455:2462  _symbol */\n      0x04\n        /* \"@openzeppelin/contracts@4.7.3/token/ERC20/ERC20.sol\":2448:2462  return _symbol */\n      dup1\n      sload\n      tag_165\n      swap1\n      tag_107\n      jump\t// in\n    tag_165:\n      dup1\n      0x1f\n      add\n      0x20\n      dup1\n      swap2\n      div\n      mul\n      0x20\n      add\n      mload(0x40)\n      swap1\n      dup2\n      add\n      0x40\n      mstore\n      dup1\n      swap3\n      swap2\n      swap1\n      dup2\n      dup2\n      mstore\n      0x20\n      add\n      dup3\n      dup1\n      sload\n      tag_166\n      swap1\n      tag_107\n      jump\t// in\n    tag_166:\n      dup1\n      iszero\n      tag_167\n      jumpi\n      dup1\n      0x1f\n      lt\n      tag_168\n      jumpi\n      0x0100\n      dup1\n      dup4\n      sload\n      div\n      mul\n      dup4\n      mstore\n      swap2\n      0x20\n      add\n      swap2\n      jump(tag_167)\n    tag_168:\n      dup3\n      add\n      swap2\n      swap1\n      0x00\n      mstore\n      keccak256(0x00, 0x20)\n      swap1\n    tag_169:\n      dup2\n      sload\n      dup2\n      mstore\n      swap1\n      0x01\n      add\n      swap1\n      0x20\n      add\n      dup1\n      dup4\n      gt\n      tag_169\n      jumpi\n      dup3\n      swap1\n      sub\n      0x1f\n      and\n      dup3\n      add\n      swap2\n    tag_167:\n      pop\n      pop\n      pop\n      pop\n      pop\n      swap1\n      pop\n        /* \"@openzeppelin/contracts@4.7.3/token/ERC20/ERC20.sol\":2367:2469  function symbol() public view virtual override returns (string memory) {... */\n      swap1\n      jump\t// out\n        /* \"@openzeppelin/contracts@4.7.3/token/ERC20/ERC20.sol\":6594:7021  function decreaseAllowance(address spender, uint256 subtractedValue) public virtual returns (bool) {... */\n    tag_91:\n        /* \"@openzeppelin/contracts@4.7.3/token/ERC20/ERC20.sol\":6687:6691  bool */\n      0x00\n        /* \"@openzeppelin/contracts@4.7.3/token/ERC20/ERC20.sol\":6703:6716  address owner */\n      dup1\n        /* \"@openzeppelin/contracts@4.7.3/token/ERC20/ERC20.sol\":6719:6731  _msgSender() */\n      tag_171\n        /* \"@openzeppelin/contracts@4.7.3/token/ERC20/ERC20.sol\":6719:6729  _msgSender */\n      tag_114\n        /* \"@openzeppelin/contracts@4.7.3/token/ERC20/ERC20.sol\":6719:6731  _msgSender() */\n      jump\t// in\n    tag_171:\n        /* \"@openzeppelin/contracts@4.7.3/token/ERC20/ERC20.sol\":6703:6731  address owner = _msgSender() */\n      swap1\n      pop\n        /* \"@openzeppelin/contracts@4.7.3/token/ERC20/ERC20.sol\":6741:6765  uint256 currentAllowance */\n      0x00\n        /* \"@openzeppelin/contracts@4.7.3/token/ERC20/ERC20.sol\":6768:6793  allowance(owner, spender) */\n      tag_172\n        /* \"@openzeppelin/contracts@4.7.3/token/ERC20/ERC20.sol\":6778:6783  owner */\n      dup3\n        /* \"@openzeppelin/contracts@4.7.3/token/ERC20/ERC20.sol\":6785:6792  spender */\n      dup7\n        /* \"@openzeppelin/contracts@4.7.3/token/ERC20/ERC20.sol\":6768:6777  allowance */\n      tag_100\n        /* \"@openzeppelin/contracts@4.7.3/token/ERC20/ERC20.sol\":6768:6793  allowance(owner, spender) */\n      jump\t// in\n    tag_172:\n        /* \"@openzeppelin/contracts@4.7.3/token/ERC20/ERC20.sol\":6741:6793  uint256 currentAllowance = allowance(owner, spender) */\n      swap1\n      pop\n        /* \"@openzeppelin/contracts@4.7.3/token/ERC20/ERC20.sol\":6831:6846  subtractedValue */\n      dup4\n        /* \"@openzeppelin/contracts@4.7.3/token/ERC20/ERC20.sol\":6811:6827  currentAllowance */\n      dup2\n        /* \"@openzeppelin/contracts@4.7.3/token/ERC20/ERC20.sol\":6811:6846  currentAllowance >= subtractedValue */\n      lt\n      iszero\n        /* \"@openzeppelin/contracts@4.7.3/token/ERC20/ERC20.sol\":6803:6888  require(currentAllowance >= subtractedValue, \"ERC20: decreased allowance below zero\") */\n      tag_173\n      jumpi\n      mload(0x40)\n      0x08c379a000000000000000000000000000000000000000000000000000000000\n      dup2\n      mstore\n      0x04\n      add\n      tag_174\n      swap1\n      tag_175\n      jump\t// in\n    tag_174:\n      mload(0x40)\n      dup1\n      swap2\n      sub\n      swap1\n      revert\n    tag_173:\n        /* \"@openzeppelin/contracts@4.7.3/token/ERC20/ERC20.sol\":6922:6982  _approve(owner, spender, currentAllowance - subtractedValue) */\n      tag_176\n        /* \"@openzeppelin/contracts@4.7.3/token/ERC20/ERC20.sol\":6931:6936  owner */\n      dup3\n        /* \"@openzeppelin/contracts@4.7.3/token/ERC20/ERC20.sol\":6938:6945  spender */\n      dup7\n        /* \"@openzeppelin/contracts@4.7.3/token/ERC20/ERC20.sol\":6966:6981  subtractedValue */\n      dup7\n        /* \"@openzeppelin/contracts@4.7.3/token/ERC20/ERC20.sol\":6947:6963  currentAllowance */\n      dup5\n        /* \"@openzeppelin/contracts@4.7.3/token/ERC20/ERC20.sol\":6947:6981  currentAllowance - subtractedValue */\n      sub\n        /* \"@openzeppelin/contracts@4.7.3/token/ERC20/ERC20.sol\":6922:6930  _approve */\n      tag_116\n        /* \"@openzeppelin/contracts@4.7.3/token/ERC20/ERC20.sol\":6922:6982  _approve(owner, spender, currentAllowance - subtractedValue) */\n      jump\t// in\n    tag_176:\n        /* \"@openzeppelin/contracts@4.7.3/token/ERC20/ERC20.sol\":7010:7014  true */\n      0x01\n        /* \"@openzeppelin/contracts@4.7.3/token/ERC20/ERC20.sol\":7003:7014  return true */\n      swap3\n      pop\n      pop\n      pop\n        /* \"@openzeppelin/contracts@4.7.3/token/ERC20/ERC20.sol\":6594:7021  function decreaseAllowance(address spender, uint256 subtractedValue) public virtual returns (bool) {... */\n      swap3\n      swap2\n      pop\n      pop\n      jump\t// out\n        /* \"@openzeppelin/contracts@4.7.3/token/ERC20/ERC20.sol\":3729:3918  function transfer(address to, uint256 amount) public virtual override returns (bool) {... */\n    tag_95:\n        /* \"@openzeppelin/contracts@4.7.3/token/ERC20/ERC20.sol\":3808:3812  bool */\n      0x00\n        /* \"@openzeppelin/contracts@4.7.3/token/ERC20/ERC20.sol\":3824:3837  address owner */\n      dup1\n        /* \"@openzeppelin/contracts@4.7.3/token/ERC20/ERC20.sol\":3840:3852  _msgSender() */\n      tag_178\n        /* \"@openzeppelin/contracts@4.7.3/token/ERC20/ERC20.sol\":3840:3850  _msgSender */\n      tag_114\n        /* \"@openzeppelin/contracts@4.7.3/token/ERC20/ERC20.sol\":3840:3852  _msgSender() */\n      jump\t// in\n    tag_178:\n        /* \"@openzeppelin/contracts@4.7.3/token/ERC20/ERC20.sol\":3824:3852  address owner = _msgSender() */\n      swap1\n      pop\n        /* \"@openzeppelin/contracts@4.7.3/token/ERC20/ERC20.sol\":3862:3890  _transfer(owner, to, amount) */\n      tag_179\n        /* \"@openzeppelin/contracts@4.7.3/token/ERC20/ERC20.sol\":3872:3877  owner */\n      dup2\n        /* \"@openzeppelin/contracts@4.7.3/token/ERC20/ERC20.sol\":3879:3881  to */\n      dup6\n        /* \"@openzeppelin/contracts@4.7.3/token/ERC20/ERC20.sol\":3883:3889  amount */\n      dup6\n        /* \"@openzeppelin/contracts@4.7.3/token/ERC20/ERC20.sol\":3862:3871  _transfer */\n      tag_123\n        /* \"@openzeppelin/contracts@4.7.3/token/ERC20/ERC20.sol\":3862:3890  _transfer(owner, to, amount) */\n      jump\t// in\n    tag_179:\n        /* \"@openzeppelin/contracts@4.7.3/token/ERC20/ERC20.sol\":3907:3911  true */\n      0x01\n        /* \"@openzeppelin/contracts@4.7.3/token/ERC20/ERC20.sol\":3900:3911  return true */\n      swap2\n      pop\n      pop\n        /* \"@openzeppelin/contracts@4.7.3/token/ERC20/ERC20.sol\":3729:3918  function transfer(address to, uint256 amount) public virtual override returns (bool) {... */\n      swap3\n      swap2\n      pop\n      pop\n      jump\t// out\n        /* \"@openzeppelin/contracts@4.7.3/token/ERC20/ERC20.sol\":3976:4125  function allowance(address owner, address spender) public view virtual override returns (uint256) {... */\n    tag_100:\n        /* \"@openzeppelin/contracts@4.7.3/token/ERC20/ERC20.sol\":4065:4072  uint256 */\n      0x00\n        /* \"@openzeppelin/contracts@4.7.3/token/ERC20/ERC20.sol\":4091:4102  _allowances */\n      0x01\n        /* \"@openzeppelin/contracts@4.7.3/token/ERC20/ERC20.sol\":4091:4109  _allowances[owner] */\n      0x00\n        /* \"@openzeppelin/contracts@4.7.3/token/ERC20/ERC20.sol\":4103:4108  owner */\n      dup5\n        /* \"@openzeppelin/contracts@4.7.3/token/ERC20/ERC20.sol\":4091:4109  _allowances[owner] */\n      0xffffffffffffffffffffffffffffffffffffffff\n      and\n      0xffffffffffffffffffffffffffffffffffffffff\n      and\n      dup2\n      mstore\n      0x20\n      add\n      swap1\n      dup2\n      mstore\n      0x20\n      add\n      0x00\n      keccak256\n        /* \"@openzeppelin/contracts@4.7.3/token/ERC20/ERC20.sol\":4091:4118  _allowances[owner][spender] */\n      0x00\n        /* \"@openzeppelin/contracts@4.7.3/token/ERC20/ERC20.sol\":4110:4117  spender */\n      dup4\n        /* \"@openzeppelin/contracts@4.7.3/token/ERC20/ERC20.sol\":4091:4118  _allowances[owner][spender] */\n      0xffffffffffffffffffffffffffffffffffffffff\n      and\n      0xffffffffffffffffffffffffffffffffffffffff\n      and\n      dup2\n      mstore\n      0x20\n      add\n      swap1\n      dup2\n      mstore\n      0x20\n      add\n      0x00\n      keccak256\n      sload\n        /* \"@openzeppelin/contracts@4.7.3/token/ERC20/ERC20.sol\":4084:4118  return _allowances[owner][spender] */\n      swap1\n      pop\n        /* \"@openzeppelin/contracts@4.7.3/token/ERC20/ERC20.sol\":3976:4125  function allowance(address owner, address spender) public view virtual override returns (uint256) {... */\n      swap3\n      swap2\n      pop\n      pop\n      jump\t// out\n        /* \"@openzeppelin/contracts@4.7.3/access/Ownable.sol\":2081:2279  function transferOwnership(address newOwner) public virtual onlyOwner {... */\n    tag_104:\n        /* \"@openzeppelin/contracts@4.7.3/access/Ownable.sol\":1094:1107  _checkOwner() */\n      tag_182\n        /* \"@openzeppelin/contracts@4.7.3/access/Ownable.sol\":1094:1105  _checkOwner */\n      tag_134\n        /* \"@openzeppelin/contracts@4.7.3/access/Ownable.sol\":1094:1107  _checkOwner() */\n      jump\t// in\n    tag_182:\n        /* \"@openzeppelin/contracts@4.7.3/access/Ownable.sol\":2189:2190  0 */\n      0x00\n        /* \"@openzeppelin/contracts@4.7.3/access/Ownable.sol\":2169:2191  newOwner != address(0) */\n      0xffffffffffffffffffffffffffffffffffffffff\n      and\n        /* \"@openzeppelin/contracts@4.7.3/access/Ownable.sol\":2169:2177  newOwner */\n      dup2\n        /* \"@openzeppelin/contracts@4.7.3/access/Ownable.sol\":2169:2191  newOwner != address(0) */\n      0xffffffffffffffffffffffffffffffffffffffff\n      and\n      eq\n      iszero\n        /* \"@openzeppelin/contracts@4.7.3/access/Ownable.sol\":2161:2234  require(newOwner != address(0), \"Ownable: new owner is the zero address\") */\n      tag_184\n      jumpi\n      mload(0x40)\n      0x08c379a000000000000000000000000000000000000000000000000000000000\n      dup2\n      mstore\n      0x04\n      add\n      tag_185\n      swap1\n      tag_186\n      jump\t// in\n    tag_185:\n      mload(0x40)\n      dup1\n      swap2\n      sub\n      swap1\n      revert\n    tag_184:\n        /* \"@openzeppelin/contracts@4.7.3/access/Ownable.sol\":2244:2272  _transferOwnership(newOwner) */\n      tag_187\n        /* \"@openzeppelin/contracts@4.7.3/access/Ownable.sol\":2263:2271  newOwner */\n      dup2\n        /* \"@openzeppelin/contracts@4.7.3/access/Ownable.sol\":2244:2262  _transferOwnership */\n      tag_153\n        /* \"@openzeppelin/contracts@4.7.3/access/Ownable.sol\":2244:2272  _transferOwnership(newOwner) */\n      jump\t// in\n    tag_187:\n        /* \"@openzeppelin/contracts@4.7.3/access/Ownable.sol\":2081:2279  function transferOwnership(address newOwner) public virtual onlyOwner {... */\n      pop\n      jump\t// out\n        /* \"@openzeppelin/contracts@4.7.3/utils/Context.sol\":640:736  function _msgSender() internal view virtual returns (address) {... */\n    tag_114:\n        /* \"@openzeppelin/contracts@4.7.3/utils/Context.sol\":693:700  address */\n      0x00\n        /* \"@openzeppelin/contracts@4.7.3/utils/Context.sol\":719:729  msg.sender */\n      caller\n        /* \"@openzeppelin/contracts@4.7.3/utils/Context.sol\":712:729  return msg.sender */\n      swap1\n      pop\n        /* \"@openzeppelin/contracts@4.7.3/utils/Context.sol\":640:736  function _msgSender() internal view virtual returns (address) {... */\n      swap1\n      jump\t// out\n        /* \"@openzeppelin/contracts@4.7.3/token/ERC20/ERC20.sol\":10110:10480  function _approve(... */\n    tag_116:\n        /* \"@openzeppelin/contracts@4.7.3/token/ERC20/ERC20.sol\":10258:10259  0 */\n      0x00\n        /* \"@openzeppelin/contracts@4.7.3/token/ERC20/ERC20.sol\":10241:10260  owner != address(0) */\n      0xffffffffffffffffffffffffffffffffffffffff\n      and\n        /* \"@openzeppelin/contracts@4.7.3/token/ERC20/ERC20.sol\":10241:10246  owner */\n      dup4\n        /* \"@openzeppelin/contracts@4.7.3/token/ERC20/ERC20.sol\":10241:10260  owner != address(0) */\n      0xffffffffffffffffffffffffffffffffffffffff\n      and\n      eq\n      iszero\n        /* \"@openzeppelin/contracts@4.7.3/token/ERC20/ERC20.sol\":10233:10301  require(owner != address(0), \"ERC20: approve from the zero address\") */\n      tag_190\n      jumpi\n      mload(0x40)\n      0x08c379a000000000000000000000000000000000000000000000000000000000\n      dup2\n      mstore\n      0x04\n      add\n      tag_191\n      swap1\n      tag_192\n      jump\t// in\n    tag_191:\n      mload(0x40)\n      dup1\n      swap2\n      sub\n      swap1\n      revert\n    tag_190:\n        /* \"@openzeppelin/contracts@4.7.3/token/ERC20/ERC20.sol\":10338:10339  0 */\n      0x00\n        /* \"@openzeppelin/contracts@4.7.3/token/ERC20/ERC20.sol\":10319:10340  spender != address(0) */\n      0xffffffffffffffffffffffffffffffffffffffff\n      and\n        /* \"@openzeppelin/contracts@4.7.3/token/ERC20/ERC20.sol\":10319:10326  spender */\n      dup3\n        /* \"@openzeppelin/contracts@4.7.3/token/ERC20/ERC20.sol\":10319:10340  spender != address(0) */\n      0xffffffffffffffffffffffffffffffffffffffff\n      and\n      eq\n      iszero\n        /* \"@openzeppelin/contracts@4.7.3/token/ERC20/ERC20.sol\":10311:10379  require(spender != address(0), \"ERC20: approve to the zero address\") */\n      tag_193\n      jumpi\n      mload(0x40)\n      0x08c379a000000000000000000000000000000000000000000000000000000000\n      dup2\n      mstore\n      0x04\n      add\n      tag_194\n      swap1\n      tag_195\n      jump\t// in\n    tag_194:\n      mload(0x40)\n      dup1\n      swap2\n      sub\n      swap1\n      revert\n    tag_193:\n        /* \"@openzeppelin/contracts@4.7.3/token/ERC20/ERC20.sol\":10420:10426  amount */\n      dup1\n        /* \"@openzeppelin/contracts@4.7.3/token/ERC20/ERC20.sol\":10390:10401  _allowances */\n      0x01\n        /* \"@openzeppelin/contracts@4.7.3/token/ERC20/ERC20.sol\":10390:10408  _allowances[owner] */\n      0x00\n        /* \"@openzeppelin/contracts@4.7.3/token/ERC20/ERC20.sol\":10402:10407  owner */\n      dup6\n        /* \"@openzeppelin/contracts@4.7.3/token/ERC20/ERC20.sol\":10390:10408  _allowances[owner] */\n      0xffffffffffffffffffffffffffffffffffffffff\n      and\n      0xffffffffffffffffffffffffffffffffffffffff\n      and\n      dup2\n      mstore\n      0x20\n      add\n      swap1\n      dup2\n      mstore\n      0x20\n      add\n      0x00\n      keccak256\n        /* \"@openzeppelin/contracts@4.7.3/token/ERC20/ERC20.sol\":10390:10417  _allowances[owner][spender] */\n      0x00\n        /* \"@openzeppelin/contracts@4.7.3/token/ERC20/ERC20.sol\":10409:10416  spender */\n      dup5\n        /* \"@openzeppelin/contracts@4.7.3/token/ERC20/ERC20.sol\":10390:10417  _allowances[owner][spender] */\n      0xffffffffffffffffffffffffffffffffffffffff\n      and\n      0xffffffffffffffffffffffffffffffffffffffff\n      and\n      dup2\n      mstore\n      0x20\n      add\n      swap1\n      dup2\n      mstore\n      0x20\n      add\n      0x00\n      keccak256\n        /* \"@openzeppelin/contracts@4.7.3/token/ERC20/ERC20.sol\":10390:10426  _allowances[owner][spender] = amount */\n      dup2\n      swap1\n      sstore\n      pop\n        /* \"@openzeppelin/contracts@4.7.3/token/ERC20/ERC20.sol\":10457:10464  spender */\n      dup2\n        /* \"@openzeppelin/contracts@4.7.3/token/ERC20/ERC20.sol\":10441:10473  Approval(owner, spender, amount) */\n      0xffffffffffffffffffffffffffffffffffffffff\n      and\n        /* \"@openzeppelin/contracts@4.7.3/token/ERC20/ERC20.sol\":10450:10455  owner */\n      dup4\n        /* \"@openzeppelin/contracts@4.7.3/token/ERC20/ERC20.sol\":10441:10473  Approval(owner, spender, amount) */\n      0xffffffffffffffffffffffffffffffffffffffff\n      and\n      0x8c5be1e5ebec7d5bd14f71427d1e84f3dd0314c0f7b2291e5b200ac8c7c3b925\n        /* \"@openzeppelin/contracts@4.7.3/token/ERC20/ERC20.sol\":10466:10472  amount */\n      dup4\n        /* \"@openzeppelin/contracts@4.7.3/token/ERC20/ERC20.sol\":10441:10473  Approval(owner, spender, amount) */\n      mload(0x40)\n      tag_196\n      swap2\n      swap1\n      tag_40\n      jump\t// in\n    tag_196:\n      mload(0x40)\n      dup1\n      swap2\n      sub\n      swap1\n      log3\n        /* \"@openzeppelin/contracts@4.7.3/token/ERC20/ERC20.sol\":10110:10480  function _approve(... */\n      pop\n      pop\n      pop\n      jump\t// out\n        /* \"@openzeppelin/contracts@4.7.3/token/ERC20/ERC20.sol\":10761:11202  function _spendAllowance(... */\n    tag_121:\n        /* \"@openzeppelin/contracts@4.7.3/token/ERC20/ERC20.sol\":10891:10915  uint256 currentAllowance */\n      0x00\n        /* \"@openzeppelin/contracts@4.7.3/token/ERC20/ERC20.sol\":10918:10943  allowance(owner, spender) */\n      tag_198\n        /* \"@openzeppelin/contracts@4.7.3/token/ERC20/ERC20.sol\":10928:10933  owner */\n      dup5\n        /* \"@openzeppelin/contracts@4.7.3/token/ERC20/ERC20.sol\":10935:10942  spender */\n      dup5\n        /* \"@openzeppelin/contracts@4.7.3/token/ERC20/ERC20.sol\":10918:10927  allowance */\n      tag_100\n        /* \"@openzeppelin/contracts@4.7.3/token/ERC20/ERC20.sol\":10918:10943  allowance(owner, spender) */\n      jump\t// in\n    tag_198:\n        /* \"@openzeppelin/contracts@4.7.3/token/ERC20/ERC20.sol\":10891:10943  uint256 currentAllowance = allowance(owner, spender) */\n      swap1\n      pop\n        /* \"@openzeppelin/contracts@4.7.3/token/ERC20/ERC20.sol\":10977:10994  type(uint256).max */\n      0xffffffffffffffffffffffffffffffffffffffffffffffffffffffffffffffff\n        /* \"@openzeppelin/contracts@4.7.3/token/ERC20/ERC20.sol\":10957:10973  currentAllowance */\n      dup2\n        /* \"@openzeppelin/contracts@4.7.3/token/ERC20/ERC20.sol\":10957:10994  currentAllowance != type(uint256).max */\n      eq\n        /* \"@openzeppelin/contracts@4.7.3/token/ERC20/ERC20.sol\":10953:11196  if (currentAllowance != type(uint256).max) {... */\n      tag_199\n      jumpi\n        /* \"@openzeppelin/contracts@4.7.3/token/ERC20/ERC20.sol\":11038:11044  amount */\n      dup2\n        /* \"@openzeppelin/contracts@4.7.3/token/ERC20/ERC20.sol\":11018:11034  currentAllowance */\n      dup2\n        /* \"@openzeppelin/contracts@4.7.3/token/ERC20/ERC20.sol\":11018:11044  currentAllowance >= amount */\n      lt\n      iszero\n        /* \"@openzeppelin/contracts@4.7.3/token/ERC20/ERC20.sol\":11010:11078  require(currentAllowance >= amount, \"ERC20: insufficient allowance\") */\n      tag_200\n      jumpi\n      mload(0x40)\n      0x08c379a000000000000000000000000000000000000000000000000000000000\n      dup2\n      mstore\n      0x04\n      add\n      tag_201\n      swap1\n      tag_202\n      jump\t// in\n    tag_201:\n      mload(0x40)\n      dup1\n      swap2\n      sub\n      swap1\n      revert\n    tag_200:\n        /* \"@openzeppelin/contracts@4.7.3/token/ERC20/ERC20.sol\":11120:11171  _approve(owner, spender, currentAllowance - amount) */\n      tag_203\n        /* \"@openzeppelin/contracts@4.7.3/token/ERC20/ERC20.sol\":11129:11134  owner */\n      dup5\n        /* \"@openzeppelin/contracts@4.7.3/token/ERC20/ERC20.sol\":11136:11143  spender */\n      dup5\n        /* \"@openzeppelin/contracts@4.7.3/token/ERC20/ERC20.sol\":11164:11170  amount */\n      dup5\n        /* \"@openzeppelin/contracts@4.7.3/token/ERC20/ERC20.sol\":11145:11161  currentAllowance */\n      dup5\n        /* \"@openzeppelin/contracts@4.7.3/token/ERC20/ERC20.sol\":11145:11170  currentAllowance - amount */\n      sub\n        /* \"@openzeppelin/contracts@4.7.3/token/ERC20/ERC20.sol\":11120:11128  _approve */\n      tag_116\n        /* \"@openzeppelin/contracts@4.7.3/token/ERC20/ERC20.sol\":11120:11171  _approve(owner, spender, currentAllowance - amount) */\n      jump\t// in\n    tag_203:\n        /* \"@openzeppelin/contracts@4.7.3/token/ERC20/ERC20.sol\":10953:11196  if (currentAllowance != type(uint256).max) {... */\n    tag_199:\n        /* \"@openzeppelin/contracts@4.7.3/token/ERC20/ERC20.sol\":10881:11202  {... */\n      pop\n        /* \"@openzeppelin/contracts@4.7.3/token/ERC20/ERC20.sol\":10761:11202  function _spendAllowance(... */\n      pop\n      pop\n      pop\n      jump\t// out\n        /* \"@openzeppelin/contracts@4.7.3/token/ERC20/ERC20.sol\":7475:8126  function _transfer(... */\n    tag_123:\n        /* \"@openzeppelin/contracts@4.7.3/token/ERC20/ERC20.sol\":7617:7618  0 */\n      0x00\n        /* \"@openzeppelin/contracts@4.7.3/token/ERC20/ERC20.sol\":7601:7619  from != address(0) */\n      0xffffffffffffffffffffffffffffffffffffffff\n      and\n        /* \"@openzeppelin/contracts@4.7.3/token/ERC20/ERC20.sol\":7601:7605  from */\n      dup4\n        /* \"@openzeppelin/contracts@4.7.3/token/ERC20/ERC20.sol\":7601:7619  from != address(0) */\n      0xffffffffffffffffffffffffffffffffffffffff\n      and\n      eq\n      iszero\n        /* \"@openzeppelin/contracts@4.7.3/token/ERC20/ERC20.sol\":7593:7661  require(from != address(0), \"ERC20: transfer from the zero address\") */\n      tag_205\n      jumpi\n      mload(0x40)\n      0x08c379a000000000000000000000000000000000000000000000000000000000\n      dup2\n      mstore\n      0x04\n      add\n      tag_206\n      swap1\n      tag_207\n      jump\t// in\n    tag_206:\n      mload(0x40)\n      dup1\n      swap2\n      sub\n      swap1\n      revert\n    tag_205:\n        /* \"@openzeppelin/contracts@4.7.3/token/ERC20/ERC20.sol\":7693:7694  0 */\n      0x00\n        /* \"@openzeppelin/contracts@4.7.3/token/ERC20/ERC20.sol\":7679:7695  to != address(0) */\n      0xffffffffffffffffffffffffffffffffffffffff\n      and\n        /* \"@openzeppelin/contracts@4.7.3/token/ERC20/ERC20.sol\":7679:7681  to */\n      dup3\n        /* \"@openzeppelin/contracts@4.7.3/token/ERC20/ERC20.sol\":7679:7695  to != address(0) */\n      0xffffffffffffffffffffffffffffffffffffffff\n      and\n      eq\n      iszero\n        /* \"@openzeppelin/contracts@4.7.3/token/ERC20/ERC20.sol\":7671:7735  require(to != address(0), \"ERC20: transfer to the zero address\") */\n      tag_208\n      jumpi\n      mload(0x40)\n      0x08c379a000000000000000000000000000000000000000000000000000000000\n      dup2\n      mstore\n      0x04\n      add\n      tag_209\n      swap1\n      tag_210\n      jump\t// in\n    tag_209:\n      mload(0x40)\n      dup1\n      swap2\n      sub\n      swap1\n      revert\n    tag_208:\n        /* \"@openzeppelin/contracts@4.7.3/token/ERC20/ERC20.sol\":7746:7784  _beforeTokenTransfer(from, to, amount) */\n      tag_211\n        /* \"@openzeppelin/contracts@4.7.3/token/ERC20/ERC20.sol\":7767:7771  from */\n      dup4\n        /* \"@openzeppelin/contracts@4.7.3/token/ERC20/ERC20.sol\":7773:7775  to */\n      dup4\n        /* \"@openzeppelin/contracts@4.7.3/token/ERC20/ERC20.sol\":7777:7783  amount */\n      dup4\n        /* \"@openzeppelin/contracts@4.7.3/token/ERC20/ERC20.sol\":7746:7766  _beforeTokenTransfer */\n      tag_212\n        /* \"@openzeppelin/contracts@4.7.3/token/ERC20/ERC20.sol\":7746:7784  _beforeTokenTransfer(from, to, amount) */\n      jump\t// in\n    tag_211:\n        /* \"@openzeppelin/contracts@4.7.3/token/ERC20/ERC20.sol\":7795:7814  uint256 fromBalance */\n      0x00\n        /* \"@openzeppelin/contracts@4.7.3/token/ERC20/ERC20.sol\":7817:7826  _balances */\n      dup1\n        /* \"@openzeppelin/contracts@4.7.3/token/ERC20/ERC20.sol\":7817:7832  _balances[from] */\n      0x00\n        /* \"@openzeppelin/contracts@4.7.3/token/ERC20/ERC20.sol\":7827:7831  from */\n      dup6\n        /* \"@openzeppelin/contracts@4.7.3/token/ERC20/ERC20.sol\":7817:7832  _balances[from] */\n      0xffffffffffffffffffffffffffffffffffffffff\n      and\n      0xffffffffffffffffffffffffffffffffffffffff\n      and\n      dup2\n      mstore\n      0x20\n      add\n      swap1\n      dup2\n      mstore\n      0x20\n      add\n      0x00\n      keccak256\n      sload\n        /* \"@openzeppelin/contracts@4.7.3/token/ERC20/ERC20.sol\":7795:7832  uint256 fromBalance = _balances[from] */\n      swap1\n      pop\n        /* \"@openzeppelin/contracts@4.7.3/token/ERC20/ERC20.sol\":7865:7871  amount */\n      dup2\n        /* \"@openzeppelin/contracts@4.7.3/token/ERC20/ERC20.sol\":7850:7861  fromBalance */\n      dup2\n        /* \"@openzeppelin/contracts@4.7.3/token/ERC20/ERC20.sol\":7850:7871  fromBalance >= amount */\n      lt\n      iszero\n        /* \"@openzeppelin/contracts@4.7.3/token/ERC20/ERC20.sol\":7842:7914  require(fromBalance >= amount, \"ERC20: transfer amount exceeds balance\") */\n      tag_213\n      jumpi\n      mload(0x40)\n      0x08c379a000000000000000000000000000000000000000000000000000000000\n      dup2\n      mstore\n      0x04\n      add\n      tag_214\n      swap1\n      tag_215\n      jump\t// in\n    tag_214:\n      mload(0x40)\n      dup1\n      swap2\n      sub\n      swap1\n      revert\n    tag_213:\n        /* \"@openzeppelin/contracts@4.7.3/token/ERC20/ERC20.sol\":7980:7986  amount */\n      dup2\n        /* \"@openzeppelin/contracts@4.7.3/token/ERC20/ERC20.sol\":7966:7977  fromBalance */\n      dup2\n        /* \"@openzeppelin/contracts@4.7.3/token/ERC20/ERC20.sol\":7966:7986  fromBalance - amount */\n      sub\n        /* \"@openzeppelin/contracts@4.7.3/token/ERC20/ERC20.sol\":7948:7957  _balances */\n      0x00\n        /* \"@openzeppelin/contracts@4.7.3/token/ERC20/ERC20.sol\":7948:7963  _balances[from] */\n      dup1\n        /* \"@openzeppelin/contracts@4.7.3/token/ERC20/ERC20.sol\":7958:7962  from */\n      dup7\n        /* \"@openzeppelin/contracts@4.7.3/token/ERC20/ERC20.sol\":7948:7963  _balances[from] */\n      0xffffffffffffffffffffffffffffffffffffffff\n      and\n      0xffffffffffffffffffffffffffffffffffffffff\n      and\n      dup2\n      mstore\n      0x20\n      add\n      swap1\n      dup2\n      mstore\n      0x20\n      add\n      0x00\n      keccak256\n        /* \"@openzeppelin/contracts@4.7.3/token/ERC20/ERC20.sol\":7948:7986  _balances[from] = fromBalance - amount */\n      dup2\n      swap1\n      sstore\n      pop\n        /* \"@openzeppelin/contracts@4.7.3/token/ERC20/ERC20.sol\":8023:8029  amount */\n      dup2\n        /* \"@openzeppelin/contracts@4.7.3/token/ERC20/ERC20.sol\":8006:8015  _balances */\n      0x00\n        /* \"@openzeppelin/contracts@4.7.3/token/ERC20/ERC20.sol\":8006:8019  _balances[to] */\n      dup1\n        /* \"@openzeppelin/contracts@4.7.3/token/ERC20/ERC20.sol\":8016:8018  to */\n      dup6\n        /* \"@openzeppelin/contracts@4.7.3/token/ERC20/ERC20.sol\":8006:8019  _balances[to] */\n      0xffffffffffffffffffffffffffffffffffffffff\n      and\n      0xffffffffffffffffffffffffffffffffffffffff\n      and\n      dup2\n      mstore\n      0x20\n      add\n      swap1\n      dup2\n      mstore\n      0x20\n      add\n      0x00\n      keccak256\n      0x00\n        /* \"@openzeppelin/contracts@4.7.3/token/ERC20/ERC20.sol\":8006:8029  _balances[to] += amount */\n      dup3\n      dup3\n      sload\n      tag_216\n      swap2\n      swap1\n      tag_130\n      jump\t// in\n    tag_216:\n      swap3\n      pop\n      pop\n      dup2\n      swap1\n      sstore\n      pop\n        /* \"@openzeppelin/contracts@4.7.3/token/ERC20/ERC20.sol\":8060:8062  to */\n      dup3\n        /* \"@openzeppelin/contracts@4.7.3/token/ERC20/ERC20.sol\":8045:8071  Transfer(from, to, amount) */\n      0xffffffffffffffffffffffffffffffffffffffff\n      and\n        /* \"@openzeppelin/contracts@4.7.3/token/ERC20/ERC20.sol\":8054:8058  from */\n      dup5\n        /* \"@openzeppelin/contracts@4.7.3/token/ERC20/ERC20.sol\":8045:8071  Transfer(from, to, amount) */\n      0xffffffffffffffffffffffffffffffffffffffff\n      and\n      0xddf252ad1be2c89b69c2b068fc378daa952ba7f163c4a11628f55a4df523b3ef\n        /* \"@openzeppelin/contracts@4.7.3/token/ERC20/ERC20.sol\":8064:8070  amount */\n      dup5\n        /* \"@openzeppelin/contracts@4.7.3/token/ERC20/ERC20.sol\":8045:8071  Transfer(from, to, amount) */\n      mload(0x40)\n      tag_217\n      swap2\n      swap1\n      tag_40\n      jump\t// in\n    tag_217:\n      mload(0x40)\n      dup1\n      swap2\n      sub\n      swap1\n      log3\n        /* \"@openzeppelin/contracts@4.7.3/token/ERC20/ERC20.sol\":8082:8119  _afterTokenTransfer(from, to, amount) */\n      tag_218\n        /* \"@openzeppelin/contracts@4.7.3/token/ERC20/ERC20.sol\":8102:8106  from */\n      dup5\n        /* \"@openzeppelin/contracts@4.7.3/token/ERC20/ERC20.sol\":8108:8110  to */\n      dup5\n        /* \"@openzeppelin/contracts@4.7.3/token/ERC20/ERC20.sol\":8112:8118  amount */\n      dup5\n        /* \"@openzeppelin/contracts@4.7.3/token/ERC20/ERC20.sol\":8082:8101  _afterTokenTransfer */\n      tag_219\n        /* \"@openzeppelin/contracts@4.7.3/token/ERC20/ERC20.sol\":8082:8119  _afterTokenTransfer(from, to, amount) */\n      jump\t// in\n    tag_218:\n        /* \"@openzeppelin/contracts@4.7.3/token/ERC20/ERC20.sol\":7583:8126  {... */\n      pop\n        /* \"@openzeppelin/contracts@4.7.3/token/ERC20/ERC20.sol\":7475:8126  function _transfer(... */\n      pop\n      pop\n      pop\n      jump\t// out\n        /* \"@openzeppelin/contracts@4.7.3/access/Ownable.sol\":1359:1489  function _checkOwner() internal view virtual {... */\n    tag_134:\n        /* \"@openzeppelin/contracts@4.7.3/access/Ownable.sol\":1433:1445  _msgSender() */\n      tag_221\n        /* \"@openzeppelin/contracts@4.7.3/access/Ownable.sol\":1433:1443  _msgSender */\n      tag_114\n        /* \"@openzeppelin/contracts@4.7.3/access/Ownable.sol\":1433:1445  _msgSender() */\n      jump\t// in\n    tag_221:\n        /* \"@openzeppelin/contracts@4.7.3/access/Ownable.sol\":1422:1445  owner() == _msgSender() */\n      0xffffffffffffffffffffffffffffffffffffffff\n      and\n        /* \"@openzeppelin/contracts@4.7.3/access/Ownable.sol\":1422:1429  owner() */\n      tag_222\n        /* \"@openzeppelin/contracts@4.7.3/access/Ownable.sol\":1422:1427  owner */\n      tag_83\n        /* \"@openzeppelin/contracts@4.7.3/access/Ownable.sol\":1422:1429  owner() */\n      jump\t// in\n    tag_222:\n        /* \"@openzeppelin/contracts@4.7.3/access/Ownable.sol\":1422:1445  owner() == _msgSender() */\n      0xffffffffffffffffffffffffffffffffffffffff\n      and\n      eq\n        /* \"@openzeppelin/contracts@4.7.3/access/Ownable.sol\":1414:1482  require(owner() == _msgSender(), \"Ownable: caller is not the owner\") */\n      tag_223\n      jumpi\n      mload(0x40)\n      0x08c379a000000000000000000000000000000000000000000000000000000000\n      dup2\n      mstore\n      0x04\n      add\n      tag_224\n      swap1\n      tag_225\n      jump\t// in\n    tag_224:\n      mload(0x40)\n      dup1\n      swap2\n      sub\n      swap1\n      revert\n    tag_223:\n        /* \"@openzeppelin/contracts@4.7.3/access/Ownable.sol\":1359:1489  function _checkOwner() internal view virtual {... */\n      jump\t// out\n        /* \"@openzeppelin/contracts@4.7.3/security/Pausable.sol\":2433:2550  function _unpause() internal virtual whenPaused {... */\n    tag_137:\n        /* \"@openzeppelin/contracts@4.7.3/security/Pausable.sol\":1486:1502  _requirePaused() */\n      tag_227\n        /* \"@openzeppelin/contracts@4.7.3/security/Pausable.sol\":1486:1500  _requirePaused */\n      tag_228\n        /* \"@openzeppelin/contracts@4.7.3/security/Pausable.sol\":1486:1502  _requirePaused() */\n      jump\t// in\n    tag_227:\n        /* \"@openzeppelin/contracts@4.7.3/security/Pausable.sol\":2501:2506  false */\n      0x00\n        /* \"@openzeppelin/contracts@4.7.3/security/Pausable.sol\":2491:2498  _paused */\n      0x05\n      0x00\n        /* \"@openzeppelin/contracts@4.7.3/security/Pausable.sol\":2491:2506  _paused = false */\n      0x0100\n      exp\n      dup2\n      sload\n      dup2\n      0xff\n      mul\n      not\n      and\n      swap1\n      dup4\n      iszero\n      iszero\n      mul\n      or\n      swap1\n      sstore\n      pop\n        /* \"@openzeppelin/contracts@4.7.3/security/Pausable.sol\":2521:2543  Unpaused(_msgSender()) */\n      0x5db9ee0a495bf2e6ff9c91a7834c1ba4fdd244a5e8aa4e537bd38aeae4b073aa\n        /* \"@openzeppelin/contracts@4.7.3/security/Pausable.sol\":2530:2542  _msgSender() */\n      tag_230\n        /* \"@openzeppelin/contracts@4.7.3/security/Pausable.sol\":2530:2540  _msgSender */\n      tag_114\n        /* \"@openzeppelin/contracts@4.7.3/security/Pausable.sol\":2530:2542  _msgSender() */\n      jump\t// in\n    tag_230:\n        /* \"@openzeppelin/contracts@4.7.3/security/Pausable.sol\":2521:2543  Unpaused(_msgSender()) */\n      mload(0x40)\n      tag_231\n      swap2\n      swap1\n      tag_85\n      jump\t// in\n    tag_231:\n      mload(0x40)\n      dup1\n      swap2\n      sub\n      swap1\n      log1\n        /* \"@openzeppelin/contracts@4.7.3/security/Pausable.sol\":2433:2550  function _unpause() internal virtual whenPaused {... */\n      jump\t// out\n        /* \"@openzeppelin/contracts@4.7.3/token/ERC20/ERC20.sol\":8402:8791  function _mint(address account, uint256 amount) internal virtual {... */\n    tag_142:\n        /* \"@openzeppelin/contracts@4.7.3/token/ERC20/ERC20.sol\":8504:8505  0 */\n      0x00\n        /* \"@openzeppelin/contracts@4.7.3/token/ERC20/ERC20.sol\":8485:8506  account != address(0) */\n      0xffffffffffffffffffffffffffffffffffffffff\n      and\n        /* \"@openzeppelin/contracts@4.7.3/token/ERC20/ERC20.sol\":8485:8492  account */\n      dup3\n        /* \"@openzeppelin/contracts@4.7.3/token/ERC20/ERC20.sol\":8485:8506  account != address(0) */\n      0xffffffffffffffffffffffffffffffffffffffff\n      and\n      eq\n      iszero\n        /* \"@openzeppelin/contracts@4.7.3/token/ERC20/ERC20.sol\":8477:8542  require(account != address(0), \"ERC20: mint to the zero address\") */\n      tag_233\n      jumpi\n      mload(0x40)\n      0x08c379a000000000000000000000000000000000000000000000000000000000\n      dup2\n      mstore\n      0x04\n      add\n      tag_234\n      swap1\n      tag_235\n      jump\t// in\n    tag_234:\n      mload(0x40)\n      dup1\n      swap2\n      sub\n      swap1\n      revert\n    tag_233:\n        /* \"@openzeppelin/contracts@4.7.3/token/ERC20/ERC20.sol\":8553:8602  _beforeTokenTransfer(address(0), account, amount) */\n      tag_236\n        /* \"@openzeppelin/contracts@4.7.3/token/ERC20/ERC20.sol\":8582:8583  0 */\n      0x00\n        /* \"@openzeppelin/contracts@4.7.3/token/ERC20/ERC20.sol\":8586:8593  account */\n      dup4\n        /* \"@openzeppelin/contracts@4.7.3/token/ERC20/ERC20.sol\":8595:8601  amount */\n      dup4\n        /* \"@openzeppelin/contracts@4.7.3/token/ERC20/ERC20.sol\":8553:8573  _beforeTokenTransfer */\n      tag_212\n        /* \"@openzeppelin/contracts@4.7.3/token/ERC20/ERC20.sol\":8553:8602  _beforeTokenTransfer(address(0), account, amount) */\n      jump\t// in\n    tag_236:\n        /* \"@openzeppelin/contracts@4.7.3/token/ERC20/ERC20.sol\":8629:8635  amount */\n      dup1\n        /* \"@openzeppelin/contracts@4.7.3/token/ERC20/ERC20.sol\":8613:8625  _totalSupply */\n      0x02\n      0x00\n        /* \"@openzeppelin/contracts@4.7.3/token/ERC20/ERC20.sol\":8613:8635  _totalSupply += amount */\n      dup3\n      dup3\n      sload\n      tag_237\n      swap2\n      swap1\n      tag_130\n      jump\t// in\n    tag_237:\n      swap3\n      pop\n      pop\n      dup2\n      swap1\n      sstore\n      pop\n        /* \"@openzeppelin/contracts@4.7.3/token/ERC20/ERC20.sol\":8667:8673  amount */\n      dup1\n        /* \"@openzeppelin/contracts@4.7.3/token/ERC20/ERC20.sol\":8645:8654  _balances */\n      0x00\n        /* \"@openzeppelin/contracts@4.7.3/token/ERC20/ERC20.sol\":8645:8663  _balances[account] */\n      dup1\n        /* \"@openzeppelin/contracts@4.7.3/token/ERC20/ERC20.sol\":8655:8662  account */\n      dup5\n        /* \"@openzeppelin/contracts@4.7.3/token/ERC20/ERC20.sol\":8645:8663  _balances[account] */\n      0xffffffffffffffffffffffffffffffffffffffff\n      and\n      0xffffffffffffffffffffffffffffffffffffffff\n      and\n      dup2\n      mstore\n      0x20\n      add\n      swap1\n      dup2\n      mstore\n      0x20\n      add\n      0x00\n      keccak256\n      0x00\n        /* \"@openzeppelin/contracts@4.7.3/token/ERC20/ERC20.sol\":8645:8673  _balances[account] += amount */\n      dup3\n      dup3\n      sload\n      tag_238\n      swap2\n      swap1\n      tag_130\n      jump\t// in\n    tag_238:\n      swap3\n      pop\n      pop\n      dup2\n      swap1\n      sstore\n      pop\n        /* \"@openzeppelin/contracts@4.7.3/token/ERC20/ERC20.sol\":8709:8716  account */\n      dup2\n        /* \"@openzeppelin/contracts@4.7.3/token/ERC20/ERC20.sol\":8688:8725  Transfer(address(0), account, amount) */\n      0xffffffffffffffffffffffffffffffffffffffff\n      and\n        /* \"@openzeppelin/contracts@4.7.3/token/ERC20/ERC20.sol\":8705:8706  0 */\n      0x00\n        /* \"@openzeppelin/contracts@4.7.3/token/ERC20/ERC20.sol\":8688:8725  Transfer(address(0), account, amount) */\n      0xffffffffffffffffffffffffffffffffffffffff\n      and\n      0xddf252ad1be2c89b69c2b068fc378daa952ba7f163c4a11628f55a4df523b3ef\n        /* \"@openzeppelin/contracts@4.7.3/token/ERC20/ERC20.sol\":8718:8724  amount */\n      dup4\n        /* \"@openzeppelin/contracts@4.7.3/token/ERC20/ERC20.sol\":8688:8725  Transfer(address(0), account, amount) */\n      mload(0x40)\n      tag_239\n      swap2\n      swap1\n      tag_40\n      jump\t// in\n    tag_239:\n      mload(0x40)\n      dup1\n      swap2\n      sub\n      swap1\n      log3\n        /* \"@openzeppelin/contracts@4.7.3/token/ERC20/ERC20.sol\":8736:8784  _afterTokenTransfer(address(0), account, amount) */\n      tag_240\n        /* \"@openzeppelin/contracts@4.7.3/token/ERC20/ERC20.sol\":8764:8765  0 */\n      0x00\n        /* \"@openzeppelin/contracts@4.7.3/token/ERC20/ERC20.sol\":8768:8775  account */\n      dup4\n        /* \"@openzeppelin/contracts@4.7.3/token/ERC20/ERC20.sol\":8777:8783  amount */\n      dup4\n        /* \"@openzeppelin/contracts@4.7.3/token/ERC20/ERC20.sol\":8736:8755  _afterTokenTransfer */\n      tag_219\n        /* \"@openzeppelin/contracts@4.7.3/token/ERC20/ERC20.sol\":8736:8784  _afterTokenTransfer(address(0), account, amount) */\n      jump\t// in\n    tag_240:\n        /* \"@openzeppelin/contracts@4.7.3/token/ERC20/ERC20.sol\":8402:8791  function _mint(address account, uint256 amount) internal virtual {... */\n      pop\n      pop\n      jump\t// out\n        /* \"@openzeppelin/contracts@4.7.3/token/ERC20/ERC20.sol\":9111:9687  function _burn(address account, uint256 amount) internal virtual {... */\n    tag_146:\n        /* \"@openzeppelin/contracts@4.7.3/token/ERC20/ERC20.sol\":9213:9214  0 */\n      0x00\n        /* \"@openzeppelin/contracts@4.7.3/token/ERC20/ERC20.sol\":9194:9215  account != address(0) */\n      0xffffffffffffffffffffffffffffffffffffffff\n      and\n        /* \"@openzeppelin/contracts@4.7.3/token/ERC20/ERC20.sol\":9194:9201  account */\n      dup3\n        /* \"@openzeppelin/contracts@4.7.3/token/ERC20/ERC20.sol\":9194:9215  account != address(0) */\n      0xffffffffffffffffffffffffffffffffffffffff\n      and\n      eq\n      iszero\n        /* \"@openzeppelin/contracts@4.7.3/token/ERC20/ERC20.sol\":9186:9253  require(account != address(0), \"ERC20: burn from the zero address\") */\n      tag_242\n      jumpi\n      mload(0x40)\n      0x08c379a000000000000000000000000000000000000000000000000000000000\n      dup2\n      mstore\n      0x04\n      add\n      tag_243\n      swap1\n      tag_244\n      jump\t// in\n    tag_243:\n      mload(0x40)\n      dup1\n      swap2\n      sub\n      swap1\n      revert\n    tag_242:\n        /* \"@openzeppelin/contracts@4.7.3/token/ERC20/ERC20.sol\":9264:9313  _beforeTokenTransfer(account, address(0), amount) */\n      tag_245\n        /* \"@openzeppelin/contracts@4.7.3/token/ERC20/ERC20.sol\":9285:9292  account */\n      dup3\n        /* \"@openzeppelin/contracts@4.7.3/token/ERC20/ERC20.sol\":9302:9303  0 */\n      0x00\n        /* \"@openzeppelin/contracts@4.7.3/token/ERC20/ERC20.sol\":9306:9312  amount */\n      dup4\n        /* \"@openzeppelin/contracts@4.7.3/token/ERC20/ERC20.sol\":9264:9284  _beforeTokenTransfer */\n      tag_212\n        /* \"@openzeppelin/contracts@4.7.3/token/ERC20/ERC20.sol\":9264:9313  _beforeTokenTransfer(account, address(0), amount) */\n      jump\t// in\n    tag_245:\n        /* \"@openzeppelin/contracts@4.7.3/token/ERC20/ERC20.sol\":9324:9346  uint256 accountBalance */\n      0x00\n        /* \"@openzeppelin/contracts@4.7.3/token/ERC20/ERC20.sol\":9349:9358  _balances */\n      dup1\n        /* \"@openzeppelin/contracts@4.7.3/token/ERC20/ERC20.sol\":9349:9367  _balances[account] */\n      0x00\n        /* \"@openzeppelin/contracts@4.7.3/token/ERC20/ERC20.sol\":9359:9366  account */\n      dup5\n        /* \"@openzeppelin/contracts@4.7.3/token/ERC20/ERC20.sol\":9349:9367  _balances[account] */\n      0xffffffffffffffffffffffffffffffffffffffff\n      and\n      0xffffffffffffffffffffffffffffffffffffffff\n      and\n      dup2\n      mstore\n      0x20\n      add\n      swap1\n      dup2\n      mstore\n      0x20\n      add\n      0x00\n      keccak256\n      sload\n        /* \"@openzeppelin/contracts@4.7.3/token/ERC20/ERC20.sol\":9324:9367  uint256 accountBalance = _balances[account] */\n      swap1\n      pop\n        /* \"@openzeppelin/contracts@4.7.3/token/ERC20/ERC20.sol\":9403:9409  amount */\n      dup2\n        /* \"@openzeppelin/contracts@4.7.3/token/ERC20/ERC20.sol\":9385:9399  accountBalance */\n      dup2\n        /* \"@openzeppelin/contracts@4.7.3/token/ERC20/ERC20.sol\":9385:9409  accountBalance >= amount */\n      lt\n      iszero\n        /* \"@openzeppelin/contracts@4.7.3/token/ERC20/ERC20.sol\":9377:9448  require(accountBalance >= amount, \"ERC20: burn amount exceeds balance\") */\n      tag_246\n      jumpi\n      mload(0x40)\n      0x08c379a000000000000000000000000000000000000000000000000000000000\n      dup2\n      mstore\n      0x04\n      add\n      tag_247\n      swap1\n      tag_248\n      jump\t// in\n    tag_247:\n      mload(0x40)\n      dup1\n      swap2\n      sub\n      swap1\n      revert\n    tag_246:\n        /* \"@openzeppelin/contracts@4.7.3/token/ERC20/ERC20.sol\":9520:9526  amount */\n      dup2\n        /* \"@openzeppelin/contracts@4.7.3/token/ERC20/ERC20.sol\":9503:9517  accountBalance */\n      dup2\n        /* \"@openzeppelin/contracts@4.7.3/token/ERC20/ERC20.sol\":9503:9526  accountBalance - amount */\n      sub\n        /* \"@openzeppelin/contracts@4.7.3/token/ERC20/ERC20.sol\":9482:9491  _balances */\n      0x00\n        /* \"@openzeppelin/contracts@4.7.3/token/ERC20/ERC20.sol\":9482:9500  _balances[account] */\n      dup1\n        /* \"@openzeppelin/contracts@4.7.3/token/ERC20/ERC20.sol\":9492:9499  account */\n      dup6\n        /* \"@openzeppelin/contracts@4.7.3/token/ERC20/ERC20.sol\":9482:9500  _balances[account] */\n      0xffffffffffffffffffffffffffffffffffffffff\n      and\n      0xffffffffffffffffffffffffffffffffffffffff\n      and\n      dup2\n      mstore\n      0x20\n      add\n      swap1\n      dup2\n      mstore\n      0x20\n      add\n      0x00\n      keccak256\n        /* \"@openzeppelin/contracts@4.7.3/token/ERC20/ERC20.sol\":9482:9526  _balances[account] = accountBalance - amount */\n      dup2\n      swap1\n      sstore\n      pop\n        /* \"@openzeppelin/contracts@4.7.3/token/ERC20/ERC20.sol\":9562:9568  amount */\n      dup2\n        /* \"@openzeppelin/contracts@4.7.3/token/ERC20/ERC20.sol\":9546:9558  _totalSupply */\n      0x02\n      0x00\n        /* \"@openzeppelin/contracts@4.7.3/token/ERC20/ERC20.sol\":9546:9568  _totalSupply -= amount */\n      dup3\n      dup3\n      sload\n      tag_249\n      swap2\n      swap1\n      tag_250\n      jump\t// in\n    tag_249:\n      swap3\n      pop\n      pop\n      dup2\n      swap1\n      sstore\n      pop\n        /* \"@openzeppelin/contracts@4.7.3/token/ERC20/ERC20.sol\":9610:9611  0 */\n      0x00\n        /* \"@openzeppelin/contracts@4.7.3/token/ERC20/ERC20.sol\":9584:9621  Transfer(account, address(0), amount) */\n      0xffffffffffffffffffffffffffffffffffffffff\n      and\n        /* \"@openzeppelin/contracts@4.7.3/token/ERC20/ERC20.sol\":9593:9600  account */\n      dup4\n        /* \"@openzeppelin/contracts@4.7.3/token/ERC20/ERC20.sol\":9584:9621  Transfer(account, address(0), amount) */\n      0xffffffffffffffffffffffffffffffffffffffff\n      and\n      0xddf252ad1be2c89b69c2b068fc378daa952ba7f163c4a11628f55a4df523b3ef\n        /* \"@openzeppelin/contracts@4.7.3/token/ERC20/ERC20.sol\":9614:9620  amount */\n      dup5\n        /* \"@openzeppelin/contracts@4.7.3/token/ERC20/ERC20.sol\":9584:9621  Transfer(account, address(0), amount) */\n      mload(0x40)\n      tag_251\n      swap2\n      swap1\n      tag_40\n      jump\t// in\n    tag_251:\n      mload(0x40)\n      dup1\n      swap2\n      sub\n      swap1\n      log3\n        /* \"@openzeppelin/contracts@4.7.3/token/ERC20/ERC20.sol\":9632:9680  _afterTokenTransfer(account, address(0), amount) */\n      tag_252\n        /* \"@openzeppelin/contracts@4.7.3/token/ERC20/ERC20.sol\":9652:9659  account */\n      dup4\n        /* \"@openzeppelin/contracts@4.7.3/token/ERC20/ERC20.sol\":9669:9670  0 */\n      0x00\n        /* \"@openzeppelin/contracts@4.7.3/token/ERC20/ERC20.sol\":9673:9679  amount */\n      dup5\n        /* \"@openzeppelin/contracts@4.7.3/token/ERC20/ERC20.sol\":9632:9651  _afterTokenTransfer */\n      tag_219\n        /* \"@openzeppelin/contracts@4.7.3/token/ERC20/ERC20.sol\":9632:9680  _afterTokenTransfer(account, address(0), amount) */\n      jump\t// in\n    tag_252:\n        /* \"@openzeppelin/contracts@4.7.3/token/ERC20/ERC20.sol\":9176:9687  {... */\n      pop\n        /* \"@openzeppelin/contracts@4.7.3/token/ERC20/ERC20.sol\":9111:9687  function _burn(address account, uint256 amount) internal virtual {... */\n      pop\n      pop\n      jump\t// out\n        /* \"@openzeppelin/contracts@4.7.3/access/Ownable.sol\":2433:2620  function _transferOwnership(address newOwner) internal virtual {... */\n    tag_153:\n        /* \"@openzeppelin/contracts@4.7.3/access/Ownable.sol\":2506:2522  address oldOwner */\n      0x00\n        /* \"@openzeppelin/contracts@4.7.3/access/Ownable.sol\":2525:2531  _owner */\n      0x05\n      0x01\n      swap1\n      sload\n      swap1\n      0x0100\n      exp\n      swap1\n      div\n      0xffffffffffffffffffffffffffffffffffffffff\n      and\n        /* \"@openzeppelin/contracts@4.7.3/access/Ownable.sol\":2506:2531  address oldOwner = _owner */\n      swap1\n      pop\n        /* \"@openzeppelin/contracts@4.7.3/access/Ownable.sol\":2550:2558  newOwner */\n      dup2\n        /* \"@openzeppelin/contracts@4.7.3/access/Ownable.sol\":2541:2547  _owner */\n      0x05\n      0x01\n        /* \"@openzeppelin/contracts@4.7.3/access/Ownable.sol\":2541:2558  _owner = newOwner */\n      0x0100\n      exp\n      dup2\n      sload\n      dup2\n      0xffffffffffffffffffffffffffffffffffffffff\n      mul\n      not\n      and\n      swap1\n      dup4\n      0xffffffffffffffffffffffffffffffffffffffff\n      and\n      mul\n      or\n      swap1\n      sstore\n      pop\n        /* \"@openzeppelin/contracts@4.7.3/access/Ownable.sol\":2604:2612  newOwner */\n      dup2\n        /* \"@openzeppelin/contracts@4.7.3/access/Ownable.sol\":2573:2613  OwnershipTransferred(oldOwner, newOwner) */\n      0xffffffffffffffffffffffffffffffffffffffff\n      and\n        /* \"@openzeppelin/contracts@4.7.3/access/Ownable.sol\":2594:2602  oldOwner */\n      dup2\n        /* \"@openzeppelin/contracts@4.7.3/access/Ownable.sol\":2573:2613  OwnershipTransferred(oldOwner, newOwner) */\n      0xffffffffffffffffffffffffffffffffffffffff\n      and\n      0x8be0079c531659141344cd1fd0a4f28419497f9722a3daafe3b4186f6b6457e0\n      mload(0x40)\n      mload(0x40)\n      dup1\n      swap2\n      sub\n      swap1\n      log3\n        /* \"@openzeppelin/contracts@4.7.3/access/Ownable.sol\":2496:2620  {... */\n      pop\n        /* \"@openzeppelin/contracts@4.7.3/access/Ownable.sol\":2433:2620  function _transferOwnership(address newOwner) internal virtual {... */\n      pop\n      jump\t// out\n        /* \"@openzeppelin/contracts@4.7.3/security/Pausable.sol\":2186:2301  function _pause() internal virtual whenNotPaused {... */\n    tag_162:\n        /* \"@openzeppelin/contracts@4.7.3/security/Pausable.sol\":1239:1258  _requireNotPaused() */\n      tag_255\n        /* \"@openzeppelin/contracts@4.7.3/security/Pausable.sol\":1239:1256  _requireNotPaused */\n      tag_256\n        /* \"@openzeppelin/contracts@4.7.3/security/Pausable.sol\":1239:1258  _requireNotPaused() */\n      jump\t// in\n    tag_255:\n        /* \"@openzeppelin/contracts@4.7.3/security/Pausable.sol\":2255:2259  true */\n      0x01\n        /* \"@openzeppelin/contracts@4.7.3/security/Pausable.sol\":2245:2252  _paused */\n      0x05\n      0x00\n        /* \"@openzeppelin/contracts@4.7.3/security/Pausable.sol\":2245:2259  _paused = true */\n      0x0100\n      exp\n      dup2\n      sload\n      dup2\n      0xff\n      mul\n      not\n      and\n      swap1\n      dup4\n      iszero\n      iszero\n      mul\n      or\n      swap1\n      sstore\n      pop\n        /* \"@openzeppelin/contracts@4.7.3/security/Pausable.sol\":2274:2294  Paused(_msgSender()) */\n      0x62e78cea01bee320cd4e420270b5ea74000d11b0c9f74754ebdbfc544b05a258\n        /* \"@openzeppelin/contracts@4.7.3/security/Pausable.sol\":2281:2293  _msgSender() */\n      tag_258\n        /* \"@openzeppelin/contracts@4.7.3/security/Pausable.sol\":2281:2291  _msgSender */\n      tag_114\n        /* \"@openzeppelin/contracts@4.7.3/security/Pausable.sol\":2281:2293  _msgSender() */\n      jump\t// in\n    tag_258:\n        /* \"@openzeppelin/contracts@4.7.3/security/Pausable.sol\":2274:2294  Paused(_msgSender()) */\n      mload(0x40)\n      tag_259\n      swap2\n      swap1\n      tag_85\n      jump\t// in\n    tag_259:\n      mload(0x40)\n      dup1\n      swap2\n      sub\n      swap1\n      log1\n        /* \"@openzeppelin/contracts@4.7.3/security/Pausable.sol\":2186:2301  function _pause() internal virtual whenNotPaused {... */\n      jump\t// out\n        /* \"InVisiDots.sol\":673:866  function _beforeTokenTransfer(address from, address to, uint256 amount)... */\n    tag_212:\n        /* \"@openzeppelin/contracts@4.7.3/security/Pausable.sol\":1239:1258  _requireNotPaused() */\n      tag_261\n        /* \"@openzeppelin/contracts@4.7.3/security/Pausable.sol\":1239:1256  _requireNotPaused */\n      tag_256\n        /* \"@openzeppelin/contracts@4.7.3/security/Pausable.sol\":1239:1258  _requireNotPaused() */\n      jump\t// in\n    tag_261:\n        /* \"InVisiDots.sol\":815:859  super._beforeTokenTransfer(from, to, amount) */\n      tag_263\n        /* \"InVisiDots.sol\":842:846  from */\n      dup4\n        /* \"InVisiDots.sol\":848:850  to */\n      dup4\n        /* \"InVisiDots.sol\":852:858  amount */\n      dup4\n        /* \"InVisiDots.sol\":815:841  super._beforeTokenTransfer */\n      tag_264\n        /* \"InVisiDots.sol\":815:859  super._beforeTokenTransfer(from, to, amount) */\n      jump\t// in\n    tag_263:\n        /* \"InVisiDots.sol\":673:866  function _beforeTokenTransfer(address from, address to, uint256 amount)... */\n      pop\n      pop\n      pop\n      jump\t// out\n        /* \"@openzeppelin/contracts@4.7.3/token/ERC20/ERC20.sol\":12495:12615  function _afterTokenTransfer(... */\n    tag_219:\n      pop\n      pop\n      pop\n      jump\t// out\n        /* \"@openzeppelin/contracts@4.7.3/security/Pausable.sol\":1945:2051  function _requirePaused() internal view virtual {... */\n    tag_228:\n        /* \"@openzeppelin/contracts@4.7.3/security/Pausable.sol\":2011:2019  paused() */\n      tag_267\n        /* \"@openzeppelin/contracts@4.7.3/security/Pausable.sol\":2011:2017  paused */\n      tag_68\n        /* \"@openzeppelin/contracts@4.7.3/security/Pausable.sol\":2011:2019  paused() */\n      jump\t// in\n    tag_267:\n        /* \"@openzeppelin/contracts@4.7.3/security/Pausable.sol\":2003:2044  require(paused(), \"Pausable: not paused\") */\n      tag_268\n      jumpi\n      mload(0x40)\n      0x08c379a000000000000000000000000000000000000000000000000000000000\n      dup2\n      mstore\n      0x04\n      add\n      tag_269\n      swap1\n      tag_270\n      jump\t// in\n    tag_269:\n      mload(0x40)\n      dup1\n      swap2\n      sub\n      swap1\n      revert\n    tag_268:\n        /* \"@openzeppelin/contracts@4.7.3/security/Pausable.sol\":1945:2051  function _requirePaused() internal view virtual {... */\n      jump\t// out\n        /* \"@openzeppelin/contracts@4.7.3/security/Pausable.sol\":1767:1873  function _requireNotPaused() internal view virtual {... */\n    tag_256:\n        /* \"@openzeppelin/contracts@4.7.3/security/Pausable.sol\":1837:1845  paused() */\n      tag_272\n        /* \"@openzeppelin/contracts@4.7.3/security/Pausable.sol\":1837:1843  paused */\n      tag_68\n        /* \"@openzeppelin/contracts@4.7.3/security/Pausable.sol\":1837:1845  paused() */\n      jump\t// in\n    tag_272:\n        /* \"@openzeppelin/contracts@4.7.3/security/Pausable.sol\":1836:1845  !paused() */\n      iszero\n        /* \"@openzeppelin/contracts@4.7.3/security/Pausable.sol\":1828:1866  require(!paused(), \"Pausable: paused\") */\n      tag_273\n      jumpi\n      mload(0x40)\n      0x08c379a000000000000000000000000000000000000000000000000000000000\n      dup2\n      mstore\n      0x04\n      add\n      tag_274\n      swap1\n      tag_275\n      jump\t// in\n    tag_274:\n      mload(0x40)\n      dup1\n      swap2\n      sub\n      swap1\n      revert\n    tag_273:\n        /* \"@openzeppelin/contracts@4.7.3/security/Pausable.sol\":1767:1873  function _requireNotPaused() internal view virtual {... */\n      jump\t// out\n        /* \"@openzeppelin/contracts@4.7.3/token/ERC20/ERC20.sol\":11786:11907  function _beforeTokenTransfer(... */\n    tag_264:\n      pop\n      pop\n      pop\n      jump\t// out\n        /* \"#utility.yul\":7:146   */\n    tag_278:\n        /* \"#utility.yul\":53:58   */\n      0x00\n        /* \"#utility.yul\":91:97   */\n      dup2\n        /* \"#utility.yul\":78:98   */\n      calldataload\n        /* \"#utility.yul\":69:98   */\n      swap1\n      pop\n        /* \"#utility.yul\":107:140   */\n      tag_280\n        /* \"#utility.yul\":134:139   */\n      dup2\n        /* \"#utility.yul\":107:140   */\n      tag_281\n      jump\t// in\n    tag_280:\n        /* \"#utility.yul\":7:146   */\n      swap3\n      swap2\n      pop\n      pop\n      jump\t// out\n        /* \"#utility.yul\":152:289   */\n    tag_282:\n        /* \"#utility.yul\":197:202   */\n      0x00\n        /* \"#utility.yul\":235:241   */\n      dup2\n        /* \"#utility.yul\":222:242   */\n      calldataload\n        /* \"#utility.yul\":213:242   */\n      swap1\n      pop\n        /* \"#utility.yul\":251:283   */\n      tag_284\n        /* \"#utility.yul\":277:282   */\n      dup2\n        /* \"#utility.yul\":251:283   */\n      tag_285\n      jump\t// in\n    tag_284:\n        /* \"#utility.yul\":152:289   */\n      swap3\n      swap2\n      pop\n      pop\n      jump\t// out\n        /* \"#utility.yul\":295:434   */\n    tag_286:\n        /* \"#utility.yul\":341:346   */\n      0x00\n        /* \"#utility.yul\":379:385   */\n      dup2\n        /* \"#utility.yul\":366:386   */\n      calldataload\n        /* \"#utility.yul\":357:386   */\n      swap1\n      pop\n        /* \"#utility.yul\":395:428   */\n      tag_288\n        /* \"#utility.yul\":422:427   */\n      dup2\n        /* \"#utility.yul\":395:428   */\n      tag_289\n      jump\t// in\n    tag_288:\n        /* \"#utility.yul\":295:434   */\n      swap3\n      swap2\n      pop\n      pop\n      jump\t// out\n        /* \"#utility.yul\":440:769   */\n    tag_72:\n        /* \"#utility.yul\":499:505   */\n      0x00\n        /* \"#utility.yul\":548:550   */\n      0x20\n        /* \"#utility.yul\":536:545   */\n      dup3\n        /* \"#utility.yul\":527:534   */\n      dup5\n        /* \"#utility.yul\":523:546   */\n      sub\n        /* \"#utility.yul\":519:551   */\n      slt\n        /* \"#utility.yul\":516:635   */\n      iszero\n      tag_291\n      jumpi\n        /* \"#utility.yul\":554:633   */\n      tag_292\n      tag_293\n      jump\t// in\n    tag_292:\n        /* \"#utility.yul\":516:635   */\n    tag_291:\n        /* \"#utility.yul\":674:675   */\n      0x00\n        /* \"#utility.yul\":699:752   */\n      tag_294\n        /* \"#utility.yul\":744:751   */\n      dup5\n        /* \"#utility.yul\":735:741   */\n      dup3\n        /* \"#utility.yul\":724:733   */\n      dup6\n        /* \"#utility.yul\":720:742   */\n      add\n        /* \"#utility.yul\":699:752   */\n      tag_278\n      jump\t// in\n    tag_294:\n        /* \"#utility.yul\":689:752   */\n      swap2\n      pop\n        /* \"#utility.yul\":645:762   */\n      pop\n        /* \"#utility.yul\":440:769   */\n      swap3\n      swap2\n      pop\n      pop\n      jump\t// out\n        /* \"#utility.yul\":775:1249   */\n    tag_99:\n        /* \"#utility.yul\":843:849   */\n      0x00\n        /* \"#utility.yul\":851:857   */\n      dup1\n        /* \"#utility.yul\":900:902   */\n      0x40\n        /* \"#utility.yul\":888:897   */\n      dup4\n        /* \"#utility.yul\":879:886   */\n      dup6\n        /* \"#utility.yul\":875:898   */\n      sub\n        /* \"#utility.yul\":871:903   */\n      slt\n        /* \"#utility.yul\":868:987   */\n      iszero\n      tag_296\n      jumpi\n        /* \"#utility.yul\":906:985   */\n      tag_297\n      tag_293\n      jump\t// in\n    tag_297:\n        /* \"#utility.yul\":868:987   */\n    tag_296:\n        /* \"#utility.yul\":1026:1027   */\n      0x00\n        /* \"#utility.yul\":1051:1104   */\n      tag_298\n        /* \"#utility.yul\":1096:1103   */\n      dup6\n        /* \"#utility.yul\":1087:1093   */\n      dup3\n        /* \"#utility.yul\":1076:1085   */\n      dup7\n        /* \"#utility.yul\":1072:1094   */\n      add\n        /* \"#utility.yul\":1051:1104   */\n      tag_278\n      jump\t// in\n    tag_298:\n        /* \"#utility.yul\":1041:1104   */\n      swap3\n      pop\n        /* \"#utility.yul\":997:1114   */\n      pop\n        /* \"#utility.yul\":1153:1155   */\n      0x20\n        /* \"#utility.yul\":1179:1232   */\n      tag_299\n        /* \"#utility.yul\":1224:1231   */\n      dup6\n        /* \"#utility.yul\":1215:1221   */\n      dup3\n        /* \"#utility.yul\":1204:1213   */\n      dup7\n        /* \"#utility.yul\":1200:1222   */\n      add\n        /* \"#utility.yul\":1179:1232   */\n      tag_278\n      jump\t// in\n    tag_299:\n        /* \"#utility.yul\":1169:1232   */\n      swap2\n      pop\n        /* \"#utility.yul\":1124:1242   */\n      pop\n        /* \"#utility.yul\":775:1249   */\n      swap3\n      pop\n      swap3\n      swap1\n      pop\n      jump\t// out\n        /* \"#utility.yul\":1255:1874   */\n    tag_43:\n        /* \"#utility.yul\":1332:1338   */\n      0x00\n        /* \"#utility.yul\":1340:1346   */\n      dup1\n        /* \"#utility.yul\":1348:1354   */\n      0x00\n        /* \"#utility.yul\":1397:1399   */\n      0x60\n        /* \"#utility.yul\":1385:1394   */\n      dup5\n        /* \"#utility.yul\":1376:1383   */\n      dup7\n        /* \"#utility.yul\":1372:1395   */\n      sub\n        /* \"#utility.yul\":1368:1400   */\n      slt\n        /* \"#utility.yul\":1365:1484   */\n      iszero\n      tag_301\n      jumpi\n        /* \"#utility.yul\":1403:1482   */\n      tag_302\n      tag_293\n      jump\t// in\n    tag_302:\n        /* \"#utility.yul\":1365:1484   */\n    tag_301:\n        /* \"#utility.yul\":1523:1524   */\n      0x00\n        /* \"#utility.yul\":1548:1601   */\n      tag_303\n        /* \"#utility.yul\":1593:1600   */\n      dup7\n        /* \"#utility.yul\":1584:1590   */\n      dup3\n        /* \"#utility.yul\":1573:1582   */\n      dup8\n        /* \"#utility.yul\":1569:1591   */\n      add\n        /* \"#utility.yul\":1548:1601   */\n      tag_278\n      jump\t// in\n    tag_303:\n        /* \"#utility.yul\":1538:1601   */\n      swap4\n      pop\n        /* \"#utility.yul\":1494:1611   */\n      pop\n        /* \"#utility.yul\":1650:1652   */\n      0x20\n        /* \"#utility.yul\":1676:1729   */\n      tag_304\n        /* \"#utility.yul\":1721:1728   */\n      dup7\n        /* \"#utility.yul\":1712:1718   */\n      dup3\n        /* \"#utility.yul\":1701:1710   */\n      dup8\n        /* \"#utility.yul\":1697:1719   */\n      add\n        /* \"#utility.yul\":1676:1729   */\n      tag_278\n      jump\t// in\n    tag_304:\n        /* \"#utility.yul\":1666:1729   */\n      swap3\n      pop\n        /* \"#utility.yul\":1621:1739   */\n      pop\n        /* \"#utility.yul\":1778:1780   */\n      0x40\n        /* \"#utility.yul\":1804:1857   */\n      tag_305\n        /* \"#utility.yul\":1849:1856   */\n      dup7\n        /* \"#utility.yul\":1840:1846   */\n      dup3\n        /* \"#utility.yul\":1829:1838   */\n      dup8\n        /* \"#utility.yul\":1825:1847   */\n      add\n        /* \"#utility.yul\":1804:1857   */\n      tag_286\n      jump\t// in\n    tag_305:\n        /* \"#utility.yul\":1794:1857   */\n      swap2\n      pop\n        /* \"#utility.yul\":1749:1867   */\n      pop\n        /* \"#utility.yul\":1255:1874   */\n      swap3\n      pop\n      swap3\n      pop\n      swap3\n      jump\t// out\n        /* \"#utility.yul\":1880:2354   */\n    tag_33:\n        /* \"#utility.yul\":1948:1954   */\n      0x00\n        /* \"#utility.yul\":1956:1962   */\n      dup1\n        /* \"#utility.yul\":2005:2007   */\n      0x40\n        /* \"#utility.yul\":1993:2002   */\n      dup4\n        /* \"#utility.yul\":1984:1991   */\n      dup6\n        /* \"#utility.yul\":1980:2003   */\n      sub\n        /* \"#utility.yul\":1976:2008   */\n      slt\n        /* \"#utility.yul\":1973:2092   */\n      iszero\n      tag_307\n      jumpi\n        /* \"#utility.yul\":2011:2090   */\n      tag_308\n      tag_293\n      jump\t// in\n    tag_308:\n        /* \"#utility.yul\":1973:2092   */\n    tag_307:\n        /* \"#utility.yul\":2131:2132   */\n      0x00\n        /* \"#utility.yul\":2156:2209   */\n      tag_309\n        /* \"#utility.yul\":2201:2208   */\n      dup6\n        /* \"#utility.yul\":2192:2198   */\n      dup3\n        /* \"#utility.yul\":2181:2190   */\n      dup7\n        /* \"#utility.yul\":2177:2199   */\n      add\n        /* \"#utility.yul\":2156:2209   */\n      tag_278\n      jump\t// in\n    tag_309:\n        /* \"#utility.yul\":2146:2209   */\n      swap3\n      pop\n        /* \"#utility.yul\":2102:2219   */\n      pop\n        /* \"#utility.yul\":2258:2260   */\n      0x20\n        /* \"#utility.yul\":2284:2337   */\n      tag_310\n        /* \"#utility.yul\":2329:2336   */\n      dup6\n        /* \"#utility.yul\":2320:2326   */\n      dup3\n        /* \"#utility.yul\":2309:2318   */\n      dup7\n        /* \"#utility.yul\":2305:2327   */\n      add\n        /* \"#utility.yul\":2284:2337   */\n      tag_286\n      jump\t// in\n    tag_310:\n        /* \"#utility.yul\":2274:2337   */\n      swap2\n      pop\n        /* \"#utility.yul\":2229:2347   */\n      pop\n        /* \"#utility.yul\":1880:2354   */\n      swap3\n      pop\n      swap3\n      swap1\n      pop\n      jump\t// out\n        /* \"#utility.yul\":2360:2687   */\n    tag_56:\n        /* \"#utility.yul\":2418:2424   */\n      0x00\n        /* \"#utility.yul\":2467:2469   */\n      0x20\n        /* \"#utility.yul\":2455:2464   */\n      dup3\n        /* \"#utility.yul\":2446:2453   */\n      dup5\n        /* \"#utility.yul\":2442:2465   */\n      sub\n        /* \"#utility.yul\":2438:2470   */\n      slt\n        /* \"#utility.yul\":2435:2554   */\n      iszero\n      tag_312\n      jumpi\n        /* \"#utility.yul\":2473:2552   */\n      tag_313\n      tag_293\n      jump\t// in\n    tag_313:\n        /* \"#utility.yul\":2435:2554   */\n    tag_312:\n        /* \"#utility.yul\":2593:2594   */\n      0x00\n        /* \"#utility.yul\":2618:2670   */\n      tag_314\n        /* \"#utility.yul\":2662:2669   */\n      dup5\n        /* \"#utility.yul\":2653:2659   */\n      dup3\n        /* \"#utility.yul\":2642:2651   */\n      dup6\n        /* \"#utility.yul\":2638:2660   */\n      add\n        /* \"#utility.yul\":2618:2670   */\n      tag_282\n      jump\t// in\n    tag_314:\n        /* \"#utility.yul\":2608:2670   */\n      swap2\n      pop\n        /* \"#utility.yul\":2564:2680   */\n      pop\n        /* \"#utility.yul\":2360:2687   */\n      swap3\n      swap2\n      pop\n      pop\n      jump\t// out\n        /* \"#utility.yul\":2693:3022   */\n    tag_65:\n        /* \"#utility.yul\":2752:2758   */\n      0x00\n        /* \"#utility.yul\":2801:2803   */\n      0x20\n        /* \"#utility.yul\":2789:2798   */\n      dup3\n        /* \"#utility.yul\":2780:2787   */\n      dup5\n        /* \"#utility.yul\":2776:2799   */\n      sub\n        /* \"#utility.yul\":2772:2804   */\n      slt\n        /* \"#utility.yul\":2769:2888   */\n      iszero\n      tag_316\n      jumpi\n        /* \"#utility.yul\":2807:2886   */\n      tag_317\n      tag_293\n      jump\t// in\n    tag_317:\n        /* \"#utility.yul\":2769:2888   */\n    tag_316:\n        /* \"#utility.yul\":2927:2928   */\n      0x00\n        /* \"#utility.yul\":2952:3005   */\n      tag_318\n        /* \"#utility.yul\":2997:3004   */\n      dup5\n        /* \"#utility.yul\":2988:2994   */\n      dup3\n        /* \"#utility.yul\":2977:2986   */\n      dup6\n        /* \"#utility.yul\":2973:2995   */\n      add\n        /* \"#utility.yul\":2952:3005   */\n      tag_286\n      jump\t// in\n    tag_318:\n        /* \"#utility.yul\":2942:3005   */\n      swap2\n      pop\n        /* \"#utility.yul\":2898:3015   */\n      pop\n        /* \"#utility.yul\":2693:3022   */\n      swap3\n      swap2\n      pop\n      pop\n      jump\t// out\n        /* \"#utility.yul\":3028:3146   */\n    tag_319:\n        /* \"#utility.yul\":3115:3139   */\n      tag_321\n        /* \"#utility.yul\":3133:3138   */\n      dup2\n        /* \"#utility.yul\":3115:3139   */\n      tag_322\n      jump\t// in\n    tag_321:\n        /* \"#utility.yul\":3110:3113   */\n      dup3\n        /* \"#utility.yul\":3103:3140   */\n      mstore\n        /* \"#utility.yul\":3028:3146   */\n      pop\n      pop\n      jump\t// out\n        /* \"#utility.yul\":3152:3261   */\n    tag_323:\n        /* \"#utility.yul\":3233:3254   */\n      tag_325\n        /* \"#utility.yul\":3248:3253   */\n      dup2\n        /* \"#utility.yul\":3233:3254   */\n      tag_326\n      jump\t// in\n    tag_325:\n        /* \"#utility.yul\":3228:3231   */\n      dup3\n        /* \"#utility.yul\":3221:3255   */\n      mstore\n        /* \"#utility.yul\":3152:3261   */\n      pop\n      pop\n      jump\t// out\n        /* \"#utility.yul\":3267:3631   */\n    tag_327:\n        /* \"#utility.yul\":3355:3358   */\n      0x00\n        /* \"#utility.yul\":3383:3422   */\n      tag_329\n        /* \"#utility.yul\":3416:3421   */\n      dup3\n        /* \"#utility.yul\":3383:3422   */\n      tag_330\n      jump\t// in\n    tag_329:\n        /* \"#utility.yul\":3438:3509   */\n      tag_331\n        /* \"#utility.yul\":3502:3508   */\n      dup2\n        /* \"#utility.yul\":3497:3500   */\n      dup6\n        /* \"#utility.yul\":3438:3509   */\n      tag_332\n      jump\t// in\n    tag_331:\n        /* \"#utility.yul\":3431:3509   */\n      swap4\n      pop\n        /* \"#utility.yul\":3518:3570   */\n      tag_333\n        /* \"#utility.yul\":3563:3569   */\n      dup2\n        /* \"#utility.yul\":3558:3561   */\n      dup6\n        /* \"#utility.yul\":3551:3555   */\n      0x20\n        /* \"#utility.yul\":3544:3549   */\n      dup7\n        /* \"#utility.yul\":3540:3556   */\n      add\n        /* \"#utility.yul\":3518:3570   */\n      tag_334\n      jump\t// in\n    tag_333:\n        /* \"#utility.yul\":3595:3624   */\n      tag_335\n        /* \"#utility.yul\":3617:3623   */\n      dup2\n        /* \"#utility.yul\":3595:3624   */\n      tag_336\n      jump\t// in\n    tag_335:\n        /* \"#utility.yul\":3590:3593   */\n      dup5\n        /* \"#utility.yul\":3586:3625   */\n      add\n        /* \"#utility.yul\":3579:3625   */\n      swap2\n      pop\n        /* \"#utility.yul\":3359:3631   */\n      pop\n        /* \"#utility.yul\":3267:3631   */\n      swap3\n      swap2\n      pop\n      pop\n      jump\t// out\n        /* \"#utility.yul\":3637:4003   */\n    tag_337:\n        /* \"#utility.yul\":3779:3782   */\n      0x00\n        /* \"#utility.yul\":3800:3867   */\n      tag_339\n        /* \"#utility.yul\":3864:3866   */\n      0x23\n        /* \"#utility.yul\":3859:3862   */\n      dup4\n        /* \"#utility.yul\":3800:3867   */\n      tag_332\n      jump\t// in\n    tag_339:\n        /* \"#utility.yul\":3793:3867   */\n      swap2\n      pop\n        /* \"#utility.yul\":3876:3969   */\n      tag_340\n        /* \"#utility.yul\":3965:3968   */\n      dup3\n        /* \"#utility.yul\":3876:3969   */\n      tag_341\n      jump\t// in\n    tag_340:\n        /* \"#utility.yul\":3994:3996   */\n      0x40\n        /* \"#utility.yul\":3989:3992   */\n      dup3\n        /* \"#utility.yul\":3985:3997   */\n      add\n        /* \"#utility.yul\":3978:3997   */\n      swap1\n      pop\n        /* \"#utility.yul\":3637:4003   */\n      swap2\n      swap1\n      pop\n      jump\t// out\n        /* \"#utility.yul\":4009:4375   */\n    tag_342:\n        /* \"#utility.yul\":4151:4154   */\n      0x00\n        /* \"#utility.yul\":4172:4239   */\n      tag_344\n        /* \"#utility.yul\":4236:4238   */\n      0x14\n        /* \"#utility.yul\":4231:4234   */\n      dup4\n        /* \"#utility.yul\":4172:4239   */\n      tag_332\n      jump\t// in\n    tag_344:\n        /* \"#utility.yul\":4165:4239   */\n      swap2\n      pop\n        /* \"#utility.yul\":4248:4341   */\n      tag_345\n        /* \"#utility.yul\":4337:4340   */\n      dup3\n        /* \"#utility.yul\":4248:4341   */\n      tag_346\n      jump\t// in\n    tag_345:\n        /* \"#utility.yul\":4366:4368   */\n      0x20\n        /* \"#utility.yul\":4361:4364   */\n      dup3\n        /* \"#utility.yul\":4357:4369   */\n      add\n        /* \"#utility.yul\":4350:4369   */\n      swap1\n      pop\n        /* \"#utility.yul\":4009:4375   */\n      swap2\n      swap1\n      pop\n      jump\t// out\n        /* \"#utility.yul\":4381:4747   */\n    tag_347:\n        /* \"#utility.yul\":4523:4526   */\n      0x00\n        /* \"#utility.yul\":4544:4611   */\n      tag_349\n        /* \"#utility.yul\":4608:4610   */\n      0x22\n        /* \"#utility.yul\":4603:4606   */\n      dup4\n        /* \"#utility.yul\":4544:4611   */\n      tag_332\n      jump\t// in\n    tag_349:\n        /* \"#utility.yul\":4537:4611   */\n      swap2\n      pop\n        /* \"#utility.yul\":4620:4713   */\n      tag_350\n        /* \"#utility.yul\":4709:4712   */\n      dup3\n        /* \"#utility.yul\":4620:4713   */\n      tag_351\n      jump\t// in\n    tag_350:\n        /* \"#utility.yul\":4738:4740   */\n      0x40\n        /* \"#utility.yul\":4733:4736   */\n      dup3\n        /* \"#utility.yul\":4729:4741   */\n      add\n        /* \"#utility.yul\":4722:4741   */\n      swap1\n      pop\n        /* \"#utility.yul\":4381:4747   */\n      swap2\n      swap1\n      pop\n      jump\t// out\n        /* \"#utility.yul\":4753:5119   */\n    tag_352:\n        /* \"#utility.yul\":4895:4898   */\n      0x00\n        /* \"#utility.yul\":4916:4983   */\n      tag_354\n        /* \"#utility.yul\":4980:4982   */\n      0x26\n        /* \"#utility.yul\":4975:4978   */\n      dup4\n        /* \"#utility.yul\":4916:4983   */\n      tag_332\n      jump\t// in\n    tag_354:\n        /* \"#utility.yul\":4909:4983   */\n      swap2\n      pop\n        /* \"#utility.yul\":4992:5085   */\n      tag_355\n        /* \"#utility.yul\":5081:5084   */\n      dup3\n        /* \"#utility.yul\":4992:5085   */\n      tag_356\n      jump\t// in\n    tag_355:\n        /* \"#utility.yul\":5110:5112   */\n      0x40\n        /* \"#utility.yul\":5105:5108   */\n      dup3\n        /* \"#utility.yul\":5101:5113   */\n      add\n        /* \"#utility.yul\":5094:5113   */\n      swap1\n      pop\n        /* \"#utility.yul\":4753:5119   */\n      swap2\n      swap1\n      pop\n      jump\t// out\n        /* \"#utility.yul\":5125:5491   */\n    tag_357:\n        /* \"#utility.yul\":5267:5270   */\n      0x00\n        /* \"#utility.yul\":5288:5355   */\n      tag_359\n        /* \"#utility.yul\":5352:5354   */\n      0x22\n        /* \"#utility.yul\":5347:5350   */\n      dup4\n        /* \"#utility.yul\":5288:5355   */\n      tag_332\n      jump\t// in\n    tag_359:\n        /* \"#utility.yul\":5281:5355   */\n      swap2\n      pop\n        /* \"#utility.yul\":5364:5457   */\n      tag_360\n        /* \"#utility.yul\":5453:5456   */\n      dup3\n        /* \"#utility.yul\":5364:5457   */\n      tag_361\n      jump\t// in\n    tag_360:\n        /* \"#utility.yul\":5482:5484   */\n      0x40\n        /* \"#utility.yul\":5477:5480   */\n      dup3\n        /* \"#utility.yul\":5473:5485   */\n      add\n        /* \"#utility.yul\":5466:5485   */\n      swap1\n      pop\n        /* \"#utility.yul\":5125:5491   */\n      swap2\n      swap1\n      pop\n      jump\t// out\n        /* \"#utility.yul\":5497:5863   */\n    tag_362:\n        /* \"#utility.yul\":5639:5642   */\n      0x00\n        /* \"#utility.yul\":5660:5727   */\n      tag_364\n        /* \"#utility.yul\":5724:5726   */\n      0x1d\n        /* \"#utility.yul\":5719:5722   */\n      dup4\n        /* \"#utility.yul\":5660:5727   */\n      tag_332\n      jump\t// in\n    tag_364:\n        /* \"#utility.yul\":5653:5727   */\n      swap2\n      pop\n        /* \"#utility.yul\":5736:5829   */\n      tag_365\n        /* \"#utility.yul\":5825:5828   */\n      dup3\n        /* \"#utility.yul\":5736:5829   */\n      tag_366\n      jump\t// in\n    tag_365:\n        /* \"#utility.yul\":5854:5856   */\n      0x20\n        /* \"#utility.yul\":5849:5852   */\n      dup3\n        /* \"#utility.yul\":5845:5857   */\n      add\n        /* \"#utility.yul\":5838:5857   */\n      swap1\n      pop\n        /* \"#utility.yul\":5497:5863   */\n      swap2\n      swap1\n      pop\n      jump\t// out\n        /* \"#utility.yul\":5869:6235   */\n    tag_367:\n        /* \"#utility.yul\":6011:6014   */\n      0x00\n        /* \"#utility.yul\":6032:6099   */\n      tag_369\n        /* \"#utility.yul\":6096:6098   */\n      0x26\n        /* \"#utility.yul\":6091:6094   */\n      dup4\n        /* \"#utility.yul\":6032:6099   */\n      tag_332\n      jump\t// in\n    tag_369:\n        /* \"#utility.yul\":6025:6099   */\n      swap2\n      pop\n        /* \"#utility.yul\":6108:6201   */\n      tag_370\n        /* \"#utility.yul\":6197:6200   */\n      dup3\n        /* \"#utility.yul\":6108:6201   */\n      tag_371\n      jump\t// in\n    tag_370:\n        /* \"#utility.yul\":6226:6228   */\n      0x40\n        /* \"#utility.yul\":6221:6224   */\n      dup3\n        /* \"#utility.yul\":6217:6229   */\n      add\n        /* \"#utility.yul\":6210:6229   */\n      swap1\n      pop\n        /* \"#utility.yul\":5869:6235   */\n      swap2\n      swap1\n      pop\n      jump\t// out\n        /* \"#utility.yul\":6241:6607   */\n    tag_372:\n        /* \"#utility.yul\":6383:6386   */\n      0x00\n        /* \"#utility.yul\":6404:6471   */\n      tag_374\n        /* \"#utility.yul\":6468:6470   */\n      0x10\n        /* \"#utility.yul\":6463:6466   */\n      dup4\n        /* \"#utility.yul\":6404:6471   */\n      tag_332\n      jump\t// in\n    tag_374:\n        /* \"#utility.yul\":6397:6471   */\n      swap2\n      pop\n        /* \"#utility.yul\":6480:6573   */\n      tag_375\n        /* \"#utility.yul\":6569:6572   */\n      dup3\n        /* \"#utility.yul\":6480:6573   */\n      tag_376\n      jump\t// in\n    tag_375:\n        /* \"#utility.yul\":6598:6600   */\n      0x20\n        /* \"#utility.yul\":6593:6596   */\n      dup3\n        /* \"#utility.yul\":6589:6601   */\n      add\n        /* \"#utility.yul\":6582:6601   */\n      swap1\n      pop\n        /* \"#utility.yul\":6241:6607   */\n      swap2\n      swap1\n      pop\n      jump\t// out\n        /* \"#utility.yul\":6613:6979   */\n    tag_377:\n        /* \"#utility.yul\":6755:6758   */\n      0x00\n        /* \"#utility.yul\":6776:6843   */\n      tag_379\n        /* \"#utility.yul\":6840:6842   */\n      0x20\n        /* \"#utility.yul\":6835:6838   */\n      dup4\n        /* \"#utility.yul\":6776:6843   */\n      tag_332\n      jump\t// in\n    tag_379:\n        /* \"#utility.yul\":6769:6843   */\n      swap2\n      pop\n        /* \"#utility.yul\":6852:6945   */\n      tag_380\n        /* \"#utility.yul\":6941:6944   */\n      dup3\n        /* \"#utility.yul\":6852:6945   */\n      tag_381\n      jump\t// in\n    tag_380:\n        /* \"#utility.yul\":6970:6972   */\n      0x20\n        /* \"#utility.yul\":6965:6968   */\n      dup3\n        /* \"#utility.yul\":6961:6973   */\n      add\n        /* \"#utility.yul\":6954:6973   */\n      swap1\n      pop\n        /* \"#utility.yul\":6613:6979   */\n      swap2\n      swap1\n      pop\n      jump\t// out\n        /* \"#utility.yul\":6985:7351   */\n    tag_382:\n        /* \"#utility.yul\":7127:7130   */\n      0x00\n        /* \"#utility.yul\":7148:7215   */\n      tag_384\n        /* \"#utility.yul\":7212:7214   */\n      0x21\n        /* \"#utility.yul\":7207:7210   */\n      dup4\n        /* \"#utility.yul\":7148:7215   */\n      tag_332\n      jump\t// in\n    tag_384:\n        /* \"#utility.yul\":7141:7215   */\n      swap2\n      pop\n        /* \"#utility.yul\":7224:7317   */\n      tag_385\n        /* \"#utility.yul\":7313:7316   */\n      dup3\n        /* \"#utility.yul\":7224:7317   */\n      tag_386\n      jump\t// in\n    tag_385:\n        /* \"#utility.yul\":7342:7344   */\n      0x40\n        /* \"#utility.yul\":7337:7340   */\n      dup3\n        /* \"#utility.yul\":7333:7345   */\n      add\n        /* \"#utility.yul\":7326:7345   */\n      swap1\n      pop\n        /* \"#utility.yul\":6985:7351   */\n      swap2\n      swap1\n      pop\n      jump\t// out\n        /* \"#utility.yul\":7357:7723   */\n    tag_387:\n        /* \"#utility.yul\":7499:7502   */\n      0x00\n        /* \"#utility.yul\":7520:7587   */\n      tag_389\n        /* \"#utility.yul\":7584:7586   */\n      0x25\n        /* \"#utility.yul\":7579:7582   */\n      dup4\n        /* \"#utility.yul\":7520:7587   */\n      tag_332\n      jump\t// in\n    tag_389:\n        /* \"#utility.yul\":7513:7587   */\n      swap2\n      pop\n        /* \"#utility.yul\":7596:7689   */\n      tag_390\n        /* \"#utility.yul\":7685:7688   */\n      dup3\n        /* \"#utility.yul\":7596:7689   */\n      tag_391\n      jump\t// in\n    tag_390:\n        /* \"#utility.yul\":7714:7716   */\n      0x40\n        /* \"#utility.yul\":7709:7712   */\n      dup3\n        /* \"#utility.yul\":7705:7717   */\n      add\n        /* \"#utility.yul\":7698:7717   */\n      swap1\n      pop\n        /* \"#utility.yul\":7357:7723   */\n      swap2\n      swap1\n      pop\n      jump\t// out\n        /* \"#utility.yul\":7729:8095   */\n    tag_392:\n        /* \"#utility.yul\":7871:7874   */\n      0x00\n        /* \"#utility.yul\":7892:7959   */\n      tag_394\n        /* \"#utility.yul\":7956:7958   */\n      0x24\n        /* \"#utility.yul\":7951:7954   */\n      dup4\n        /* \"#utility.yul\":7892:7959   */\n      tag_332\n      jump\t// in\n    tag_394:\n        /* \"#utility.yul\":7885:7959   */\n      swap2\n      pop\n        /* \"#utility.yul\":7968:8061   */\n      tag_395\n        /* \"#utility.yul\":8057:8060   */\n      dup3\n        /* \"#utility.yul\":7968:8061   */\n      tag_396\n      jump\t// in\n    tag_395:\n        /* \"#utility.yul\":8086:8088   */\n      0x40\n        /* \"#utility.yul\":8081:8084   */\n      dup3\n        /* \"#utility.yul\":8077:8089   */\n      add\n        /* \"#utility.yul\":8070:8089   */\n      swap1\n      pop\n        /* \"#utility.yul\":7729:8095   */\n      swap2\n      swap1\n      pop\n      jump\t// out\n        /* \"#utility.yul\":8101:8467   */\n    tag_397:\n        /* \"#utility.yul\":8243:8246   */\n      0x00\n        /* \"#utility.yul\":8264:8331   */\n      tag_399\n        /* \"#utility.yul\":8328:8330   */\n      0x25\n        /* \"#utility.yul\":8323:8326   */\n      dup4\n        /* \"#utility.yul\":8264:8331   */\n      tag_332\n      jump\t// in\n    tag_399:\n        /* \"#utility.yul\":8257:8331   */\n      swap2\n      pop\n        /* \"#utility.yul\":8340:8433   */\n      tag_400\n        /* \"#utility.yul\":8429:8432   */\n      dup3\n        /* \"#utility.yul\":8340:8433   */\n      tag_401\n      jump\t// in\n    tag_400:\n        /* \"#utility.yul\":8458:8460   */\n      0x40\n        /* \"#utility.yul\":8453:8456   */\n      dup3\n        /* \"#utility.yul\":8449:8461   */\n      add\n        /* \"#utility.yul\":8442:8461   */\n      swap1\n      pop\n        /* \"#utility.yul\":8101:8467   */\n      swap2\n      swap1\n      pop\n      jump\t// out\n        /* \"#utility.yul\":8473:8839   */\n    tag_402:\n        /* \"#utility.yul\":8615:8618   */\n      0x00\n        /* \"#utility.yul\":8636:8703   */\n      tag_404\n        /* \"#utility.yul\":8700:8702   */\n      0x1f\n        /* \"#utility.yul\":8695:8698   */\n      dup4\n        /* \"#utility.yul\":8636:8703   */\n      tag_332\n      jump\t// in\n    tag_404:\n        /* \"#utility.yul\":8629:8703   */\n      swap2\n      pop\n        /* \"#utility.yul\":8712:8805   */\n      tag_405\n        /* \"#utility.yul\":8801:8804   */\n      dup3\n        /* \"#utility.yul\":8712:8805   */\n      tag_406\n      jump\t// in\n    tag_405:\n        /* \"#utility.yul\":8830:8832   */\n      0x20\n        /* \"#utility.yul\":8825:8828   */\n      dup3\n        /* \"#utility.yul\":8821:8833   */\n      add\n        /* \"#utility.yul\":8814:8833   */\n      swap1\n      pop\n        /* \"#utility.yul\":8473:8839   */\n      swap2\n      swap1\n      pop\n      jump\t// out\n        /* \"#utility.yul\":8845:8963   */\n    tag_407:\n        /* \"#utility.yul\":8932:8956   */\n      tag_409\n        /* \"#utility.yul\":8950:8955   */\n      dup2\n        /* \"#utility.yul\":8932:8956   */\n      tag_410\n      jump\t// in\n    tag_409:\n        /* \"#utility.yul\":8927:8930   */\n      dup3\n        /* \"#utility.yul\":8920:8957   */\n      mstore\n        /* \"#utility.yul\":8845:8963   */\n      pop\n      pop\n      jump\t// out\n        /* \"#utility.yul\":8969:9081   */\n    tag_411:\n        /* \"#utility.yul\":9052:9074   */\n      tag_413\n        /* \"#utility.yul\":9068:9073   */\n      dup2\n        /* \"#utility.yul\":9052:9074   */\n      tag_414\n      jump\t// in\n    tag_413:\n        /* \"#utility.yul\":9047:9050   */\n      dup3\n        /* \"#utility.yul\":9040:9075   */\n      mstore\n        /* \"#utility.yul\":8969:9081   */\n      pop\n      pop\n      jump\t// out\n        /* \"#utility.yul\":9087:9309   */\n    tag_85:\n        /* \"#utility.yul\":9180:9184   */\n      0x00\n        /* \"#utility.yul\":9218:9220   */\n      0x20\n        /* \"#utility.yul\":9207:9216   */\n      dup3\n        /* \"#utility.yul\":9203:9221   */\n      add\n        /* \"#utility.yul\":9195:9221   */\n      swap1\n      pop\n        /* \"#utility.yul\":9231:9302   */\n      tag_416\n        /* \"#utility.yul\":9299:9300   */\n      0x00\n        /* \"#utility.yul\":9288:9297   */\n      dup4\n        /* \"#utility.yul\":9284:9301   */\n      add\n        /* \"#utility.yul\":9275:9281   */\n      dup5\n        /* \"#utility.yul\":9231:9302   */\n      tag_319\n      jump\t// in\n    tag_416:\n        /* \"#utility.yul\":9087:9309   */\n      swap3\n      swap2\n      pop\n      pop\n      jump\t// out\n        /* \"#utility.yul\":9315:9525   */\n    tag_36:\n        /* \"#utility.yul\":9402:9406   */\n      0x00\n        /* \"#utility.yul\":9440:9442   */\n      0x20\n        /* \"#utility.yul\":9429:9438   */\n      dup3\n        /* \"#utility.yul\":9425:9443   */\n      add\n        /* \"#utility.yul\":9417:9443   */\n      swap1\n      pop\n        /* \"#utility.yul\":9453:9518   */\n      tag_418\n        /* \"#utility.yul\":9515:9516   */\n      0x00\n        /* \"#utility.yul\":9504:9513   */\n      dup4\n        /* \"#utility.yul\":9500:9517   */\n      add\n        /* \"#utility.yul\":9491:9497   */\n      dup5\n        /* \"#utility.yul\":9453:9518   */\n      tag_323\n      jump\t// in\n    tag_418:\n        /* \"#utility.yul\":9315:9525   */\n      swap3\n      swap2\n      pop\n      pop\n      jump\t// out\n        /* \"#utility.yul\":9531:9844   */\n    tag_30:\n        /* \"#utility.yul\":9644:9648   */\n      0x00\n        /* \"#utility.yul\":9682:9684   */\n      0x20\n        /* \"#utility.yul\":9671:9680   */\n      dup3\n        /* \"#utility.yul\":9667:9685   */\n      add\n        /* \"#utility.yul\":9659:9685   */\n      swap1\n      pop\n        /* \"#utility.yul\":9731:9740   */\n      dup2\n        /* \"#utility.yul\":9725:9729   */\n      dup2\n        /* \"#utility.yul\":9721:9741   */\n      sub\n        /* \"#utility.yul\":9717:9718   */\n      0x00\n        /* \"#utility.yul\":9706:9715   */\n      dup4\n        /* \"#utility.yul\":9702:9719   */\n      add\n        /* \"#utility.yul\":9695:9742   */\n      mstore\n        /* \"#utility.yul\":9759:9837   */\n      tag_420\n        /* \"#utility.yul\":9832:9836   */\n      dup2\n        /* \"#utility.yul\":9823:9829   */\n      dup5\n        /* \"#utility.yul\":9759:9837   */\n      tag_327\n      jump\t// in\n    tag_420:\n        /* \"#utility.yul\":9751:9837   */\n      swap1\n      pop\n        /* \"#utility.yul\":9531:9844   */\n      swap3\n      swap2\n      pop\n      pop\n      jump\t// out\n        /* \"#utility.yul\":9850:10269   */\n    tag_210:\n        /* \"#utility.yul\":10016:10020   */\n      0x00\n        /* \"#utility.yul\":10054:10056   */\n      0x20\n        /* \"#utility.yul\":10043:10052   */\n      dup3\n        /* \"#utility.yul\":10039:10057   */\n      add\n        /* \"#utility.yul\":10031:10057   */\n      swap1\n      pop\n        /* \"#utility.yul\":10103:10112   */\n      dup2\n        /* \"#utility.yul\":10097:10101   */\n      dup2\n        /* \"#utility.yul\":10093:10113   */\n      sub\n        /* \"#utility.yul\":10089:10090   */\n      0x00\n        /* \"#utility.yul\":10078:10087   */\n      dup4\n        /* \"#utility.yul\":10074:10091   */\n      add\n        /* \"#utility.yul\":10067:10114   */\n      mstore\n        /* \"#utility.yul\":10131:10262   */\n      tag_422\n        /* \"#utility.yul\":10257:10261   */\n      dup2\n        /* \"#utility.yul\":10131:10262   */\n      tag_337\n      jump\t// in\n    tag_422:\n        /* \"#utility.yul\":10123:10262   */\n      swap1\n      pop\n        /* \"#utility.yul\":9850:10269   */\n      swap2\n      swap1\n      pop\n      jump\t// out\n        /* \"#utility.yul\":10275:10694   */\n    tag_270:\n        /* \"#utility.yul\":10441:10445   */\n      0x00\n        /* \"#utility.yul\":10479:10481   */\n      0x20\n        /* \"#utility.yul\":10468:10477   */\n      dup3\n        /* \"#utility.yul\":10464:10482   */\n      add\n        /* \"#utility.yul\":10456:10482   */\n      swap1\n      pop\n        /* \"#utility.yul\":10528:10537   */\n      dup2\n        /* \"#utility.yul\":10522:10526   */\n      dup2\n        /* \"#utility.yul\":10518:10538   */\n      sub\n        /* \"#utility.yul\":10514:10515   */\n      0x00\n        /* \"#utility.yul\":10503:10512   */\n      dup4\n        /* \"#utility.yul\":10499:10516   */\n      add\n        /* \"#utility.yul\":10492:10539   */\n      mstore\n        /* \"#utility.yul\":10556:10687   */\n      tag_424\n        /* \"#utility.yul\":10682:10686   */\n      dup2\n        /* \"#utility.yul\":10556:10687   */\n      tag_342\n      jump\t// in\n    tag_424:\n        /* \"#utility.yul\":10548:10687   */\n      swap1\n      pop\n        /* \"#utility.yul\":10275:10694   */\n      swap2\n      swap1\n      pop\n      jump\t// out\n        /* \"#utility.yul\":10700:11119   */\n    tag_248:\n        /* \"#utility.yul\":10866:10870   */\n      0x00\n        /* \"#utility.yul\":10904:10906   */\n      0x20\n        /* \"#utility.yul\":10893:10902   */\n      dup3\n        /* \"#utility.yul\":10889:10907   */\n      add\n        /* \"#utility.yul\":10881:10907   */\n      swap1\n      pop\n        /* \"#utility.yul\":10953:10962   */\n      dup2\n        /* \"#utility.yul\":10947:10951   */\n      dup2\n        /* \"#utility.yul\":10943:10963   */\n      sub\n        /* \"#utility.yul\":10939:10940   */\n      0x00\n        /* \"#utility.yul\":10928:10937   */\n      dup4\n        /* \"#utility.yul\":10924:10941   */\n      add\n        /* \"#utility.yul\":10917:10964   */\n      mstore\n        /* \"#utility.yul\":10981:11112   */\n      tag_426\n        /* \"#utility.yul\":11107:11111   */\n      dup2\n        /* \"#utility.yul\":10981:11112   */\n      tag_347\n      jump\t// in\n    tag_426:\n        /* \"#utility.yul\":10973:11112   */\n      swap1\n      pop\n        /* \"#utility.yul\":10700:11119   */\n      swap2\n      swap1\n      pop\n      jump\t// out\n        /* \"#utility.yul\":11125:11544   */\n    tag_186:\n        /* \"#utility.yul\":11291:11295   */\n      0x00\n        /* \"#utility.yul\":11329:11331   */\n      0x20\n        /* \"#utility.yul\":11318:11327   */\n      dup3\n        /* \"#utility.yul\":11314:11332   */\n      add\n        /* \"#utility.yul\":11306:11332   */\n      swap1\n      pop\n        /* \"#utility.yul\":11378:11387   */\n      dup2\n        /* \"#utility.yul\":11372:11376   */\n      dup2\n        /* \"#utility.yul\":11368:11388   */\n      sub\n        /* \"#utility.yul\":11364:11365   */\n      0x00\n        /* \"#utility.yul\":11353:11362   */\n      dup4\n        /* \"#utility.yul\":11349:11366   */\n      add\n        /* \"#utility.yul\":11342:11389   */\n      mstore\n        /* \"#utility.yul\":11406:11537   */\n      tag_428\n        /* \"#utility.yul\":11532:11536   */\n      dup2\n        /* \"#utility.yul\":11406:11537   */\n      tag_352\n      jump\t// in\n    tag_428:\n        /* \"#utility.yul\":11398:11537   */\n      swap1\n      pop\n        /* \"#utility.yul\":11125:11544   */\n      swap2\n      swap1\n      pop\n      jump\t// out\n        /* \"#utility.yul\":11550:11969   */\n    tag_195:\n        /* \"#utility.yul\":11716:11720   */\n      0x00\n        /* \"#utility.yul\":11754:11756   */\n      0x20\n        /* \"#utility.yul\":11743:11752   */\n      dup3\n        /* \"#utility.yul\":11739:11757   */\n      add\n        /* \"#utility.yul\":11731:11757   */\n      swap1\n      pop\n        /* \"#utility.yul\":11803:11812   */\n      dup2\n        /* \"#utility.yul\":11797:11801   */\n      dup2\n        /* \"#utility.yul\":11793:11813   */\n      sub\n        /* \"#utility.yul\":11789:11790   */\n      0x00\n        /* \"#utility.yul\":11778:11787   */\n      dup4\n        /* \"#utility.yul\":11774:11791   */\n      add\n        /* \"#utility.yul\":11767:11814   */\n      mstore\n        /* \"#utility.yul\":11831:11962   */\n      tag_430\n        /* \"#utility.yul\":11957:11961   */\n      dup2\n        /* \"#utility.yul\":11831:11962   */\n      tag_357\n      jump\t// in\n    tag_430:\n        /* \"#utility.yul\":11823:11962   */\n      swap1\n      pop\n        /* \"#utility.yul\":11550:11969   */\n      swap2\n      swap1\n      pop\n      jump\t// out\n        /* \"#utility.yul\":11975:12394   */\n    tag_202:\n        /* \"#utility.yul\":12141:12145   */\n      0x00\n        /* \"#utility.yul\":12179:12181   */\n      0x20\n        /* \"#utility.yul\":12168:12177   */\n      dup3\n        /* \"#utility.yul\":12164:12182   */\n      add\n        /* \"#utility.yul\":12156:12182   */\n      swap1\n      pop\n        /* \"#utility.yul\":12228:12237   */\n      dup2\n        /* \"#utility.yul\":12222:12226   */\n      dup2\n        /* \"#utility.yul\":12218:12238   */\n      sub\n        /* \"#utility.yul\":12214:12215   */\n      0x00\n        /* \"#utility.yul\":12203:12212   */\n      dup4\n        /* \"#utility.yul\":12199:12216   */\n      add\n        /* \"#utility.yul\":12192:12239   */\n      mstore\n        /* \"#utility.yul\":12256:12387   */\n      tag_432\n        /* \"#utility.yul\":12382:12386   */\n      dup2\n        /* \"#utility.yul\":12256:12387   */\n      tag_362\n      jump\t// in\n    tag_432:\n        /* \"#utility.yul\":12248:12387   */\n      swap1\n      pop\n        /* \"#utility.yul\":11975:12394   */\n      swap2\n      swap1\n      pop\n      jump\t// out\n        /* \"#utility.yul\":12400:12819   */\n    tag_215:\n        /* \"#utility.yul\":12566:12570   */\n      0x00\n        /* \"#utility.yul\":12604:12606   */\n      0x20\n        /* \"#utility.yul\":12593:12602   */\n      dup3\n        /* \"#utility.yul\":12589:12607   */\n      add\n        /* \"#utility.yul\":12581:12607   */\n      swap1\n      pop\n        /* \"#utility.yul\":12653:12662   */\n      dup2\n        /* \"#utility.yul\":12647:12651   */\n      dup2\n        /* \"#utility.yul\":12643:12663   */\n      sub\n        /* \"#utility.yul\":12639:12640   */\n      0x00\n        /* \"#utility.yul\":12628:12637   */\n      dup4\n        /* \"#utility.yul\":12624:12641   */\n      add\n        /* \"#utility.yul\":12617:12664   */\n      mstore\n        /* \"#utility.yul\":12681:12812   */\n      tag_434\n        /* \"#utility.yul\":12807:12811   */\n      dup2\n        /* \"#utility.yul\":12681:12812   */\n      tag_367\n      jump\t// in\n    tag_434:\n        /* \"#utility.yul\":12673:12812   */\n      swap1\n      pop\n        /* \"#utility.yul\":12400:12819   */\n      swap2\n      swap1\n      pop\n      jump\t// out\n        /* \"#utility.yul\":12825:13244   */\n    tag_275:\n        /* \"#utility.yul\":12991:12995   */\n      0x00\n        /* \"#utility.yul\":13029:13031   */\n      0x20\n        /* \"#utility.yul\":13018:13027   */\n      dup3\n        /* \"#utility.yul\":13014:13032   */\n      add\n        /* \"#utility.yul\":13006:13032   */\n      swap1\n      pop\n        /* \"#utility.yul\":13078:13087   */\n      dup2\n        /* \"#utility.yul\":13072:13076   */\n      dup2\n        /* \"#utility.yul\":13068:13088   */\n      sub\n        /* \"#utility.yul\":13064:13065   */\n      0x00\n        /* \"#utility.yul\":13053:13062   */\n      dup4\n        /* \"#utility.yul\":13049:13066   */\n      add\n        /* \"#utility.yul\":13042:13089   */\n      mstore\n        /* \"#utility.yul\":13106:13237   */\n      tag_436\n        /* \"#utility.yul\":13232:13236   */\n      dup2\n        /* \"#utility.yul\":13106:13237   */\n      tag_372\n      jump\t// in\n    tag_436:\n        /* \"#utility.yul\":13098:13237   */\n      swap1\n      pop\n        /* \"#utility.yul\":12825:13244   */\n      swap2\n      swap1\n      pop\n      jump\t// out\n        /* \"#utility.yul\":13250:13669   */\n    tag_225:\n        /* \"#utility.yul\":13416:13420   */\n      0x00\n        /* \"#utility.yul\":13454:13456   */\n      0x20\n        /* \"#utility.yul\":13443:13452   */\n      dup3\n        /* \"#utility.yul\":13439:13457   */\n      add\n        /* \"#utility.yul\":13431:13457   */\n      swap1\n      pop\n        /* \"#utility.yul\":13503:13512   */\n      dup2\n        /* \"#utility.yul\":13497:13501   */\n      dup2\n        /* \"#utility.yul\":13493:13513   */\n      sub\n        /* \"#utility.yul\":13489:13490   */\n      0x00\n        /* \"#utility.yul\":13478:13487   */\n      dup4\n        /* \"#utility.yul\":13474:13491   */\n      add\n        /* \"#utility.yul\":13467:13514   */\n      mstore\n        /* \"#utility.yul\":13531:13662   */\n      tag_438\n        /* \"#utility.yul\":13657:13661   */\n      dup2\n        /* \"#utility.yul\":13531:13662   */\n      tag_377\n      jump\t// in\n    tag_438:\n        /* \"#utility.yul\":13523:13662   */\n      swap1\n      pop\n        /* \"#utility.yul\":13250:13669   */\n      swap2\n      swap1\n      pop\n      jump\t// out\n        /* \"#utility.yul\":13675:14094   */\n    tag_244:\n        /* \"#utility.yul\":13841:13845   */\n      0x00\n        /* \"#utility.yul\":13879:13881   */\n      0x20\n        /* \"#utility.yul\":13868:13877   */\n      dup3\n        /* \"#utility.yul\":13864:13882   */\n      add\n        /* \"#utility.yul\":13856:13882   */\n      swap1\n      pop\n        /* \"#utility.yul\":13928:13937   */\n      dup2\n        /* \"#utility.yul\":13922:13926   */\n      dup2\n        /* \"#utility.yul\":13918:13938   */\n      sub\n        /* \"#utility.yul\":13914:13915   */\n      0x00\n        /* \"#utility.yul\":13903:13912   */\n      dup4\n        /* \"#utility.yul\":13899:13916   */\n      add\n        /* \"#utility.yul\":13892:13939   */\n      mstore\n        /* \"#utility.yul\":13956:14087   */\n      tag_440\n        /* \"#utility.yul\":14082:14086   */\n      dup2\n        /* \"#utility.yul\":13956:14087   */\n      tag_382\n      jump\t// in\n    tag_440:\n        /* \"#utility.yul\":13948:14087   */\n      swap1\n      pop\n        /* \"#utility.yul\":13675:14094   */\n      swap2\n      swap1\n      pop\n      jump\t// out\n        /* \"#utility.yul\":14100:14519   */\n    tag_207:\n        /* \"#utility.yul\":14266:14270   */\n      0x00\n        /* \"#utility.yul\":14304:14306   */\n      0x20\n        /* \"#utility.yul\":14293:14302   */\n      dup3\n        /* \"#utility.yul\":14289:14307   */\n      add\n        /* \"#utility.yul\":14281:14307   */\n      swap1\n      pop\n        /* \"#utility.yul\":14353:14362   */\n      dup2\n        /* \"#utility.yul\":14347:14351   */\n      dup2\n        /* \"#utility.yul\":14343:14363   */\n      sub\n        /* \"#utility.yul\":14339:14340   */\n      0x00\n        /* \"#utility.yul\":14328:14337   */\n      dup4\n        /* \"#utility.yul\":14324:14341   */\n      add\n        /* \"#utility.yul\":14317:14364   */\n      mstore\n        /* \"#utility.yul\":14381:14512   */\n      tag_442\n        /* \"#utility.yul\":14507:14511   */\n      dup2\n        /* \"#utility.yul\":14381:14512   */\n      tag_387\n      jump\t// in\n    tag_442:\n        /* \"#utility.yul\":14373:14512   */\n      swap1\n      pop\n        /* \"#utility.yul\":14100:14519   */\n      swap2\n      swap1\n      pop\n      jump\t// out\n        /* \"#utility.yul\":14525:14944   */\n    tag_192:\n        /* \"#utility.yul\":14691:14695   */\n      0x00\n        /* \"#utility.yul\":14729:14731   */\n      0x20\n        /* \"#utility.yul\":14718:14727   */\n      dup3\n        /* \"#utility.yul\":14714:14732   */\n      add\n        /* \"#utility.yul\":14706:14732   */\n      swap1\n      pop\n        /* \"#utility.yul\":14778:14787   */\n      dup2\n        /* \"#utility.yul\":14772:14776   */\n      dup2\n        /* \"#utility.yul\":14768:14788   */\n      sub\n        /* \"#utility.yul\":14764:14765   */\n      0x00\n        /* \"#utility.yul\":14753:14762   */\n      dup4\n        /* \"#utility.yul\":14749:14766   */\n      add\n        /* \"#utility.yul\":14742:14789   */\n      mstore\n        /* \"#utility.yul\":14806:14937   */\n      tag_444\n        /* \"#utility.yul\":14932:14936   */\n      dup2\n        /* \"#utility.yul\":14806:14937   */\n      tag_392\n      jump\t// in\n    tag_444:\n        /* \"#utility.yul\":14798:14937   */\n      swap1\n      pop\n        /* \"#utility.yul\":14525:14944   */\n      swap2\n      swap1\n      pop\n      jump\t// out\n        /* \"#utility.yul\":14950:15369   */\n    tag_175:\n        /* \"#utility.yul\":15116:15120   */\n      0x00\n        /* \"#utility.yul\":15154:15156   */\n      0x20\n        /* \"#utility.yul\":15143:15152   */\n      dup3\n        /* \"#utility.yul\":15139:15157   */\n      add\n        /* \"#utility.yul\":15131:15157   */\n      swap1\n      pop\n        /* \"#utility.yul\":15203:15212   */\n      dup2\n        /* \"#utility.yul\":15197:15201   */\n      dup2\n        /* \"#utility.yul\":15193:15213   */\n      sub\n        /* \"#utility.yul\":15189:15190   */\n      0x00\n        /* \"#utility.yul\":15178:15187   */\n      dup4\n        /* \"#utility.yul\":15174:15191   */\n      add\n        /* \"#utility.yul\":15167:15214   */\n      mstore\n        /* \"#utility.yul\":15231:15362   */\n      tag_446\n        /* \"#utility.yul\":15357:15361   */\n      dup2\n        /* \"#utility.yul\":15231:15362   */\n      tag_397\n      jump\t// in\n    tag_446:\n        /* \"#utility.yul\":15223:15362   */\n      swap1\n      pop\n        /* \"#utility.yul\":14950:15369   */\n      swap2\n      swap1\n      pop\n      jump\t// out\n        /* \"#utility.yul\":15375:15794   */\n    tag_235:\n        /* \"#utility.yul\":15541:15545   */\n      0x00\n        /* \"#utility.yul\":15579:15581   */\n      0x20\n        /* \"#utility.yul\":15568:15577   */\n      dup3\n        /* \"#utility.yul\":15564:15582   */\n      add\n        /* \"#utility.yul\":15556:15582   */\n      swap1\n      pop\n        /* \"#utility.yul\":15628:15637   */\n      dup2\n        /* \"#utility.yul\":15622:15626   */\n      dup2\n        /* \"#utility.yul\":15618:15638   */\n      sub\n        /* \"#utility.yul\":15614:15615   */\n      0x00\n        /* \"#utility.yul\":15603:15612   */\n      dup4\n        /* \"#utility.yul\":15599:15616   */\n      add\n        /* \"#utility.yul\":15592:15639   */\n      mstore\n        /* \"#utility.yul\":15656:15787   */\n      tag_448\n        /* \"#utility.yul\":15782:15786   */\n      dup2\n        /* \"#utility.yul\":15656:15787   */\n      tag_402\n      jump\t// in\n    tag_448:\n        /* \"#utility.yul\":15648:15787   */\n      swap1\n      pop\n        /* \"#utility.yul\":15375:15794   */\n      swap2\n      swap1\n      pop\n      jump\t// out\n        /* \"#utility.yul\":15800:16022   */\n    tag_40:\n        /* \"#utility.yul\":15893:15897   */\n      0x00\n        /* \"#utility.yul\":15931:15933   */\n      0x20\n        /* \"#utility.yul\":15920:15929   */\n      dup3\n        /* \"#utility.yul\":15916:15934   */\n      add\n        /* \"#utility.yul\":15908:15934   */\n      swap1\n      pop\n        /* \"#utility.yul\":15944:16015   */\n      tag_450\n        /* \"#utility.yul\":16012:16013   */\n      0x00\n        /* \"#utility.yul\":16001:16010   */\n      dup4\n        /* \"#utility.yul\":15997:16014   */\n      add\n        /* \"#utility.yul\":15988:15994   */\n      dup5\n        /* \"#utility.yul\":15944:16015   */\n      tag_407\n      jump\t// in\n    tag_450:\n        /* \"#utility.yul\":15800:16022   */\n      swap3\n      swap2\n      pop\n      pop\n      jump\t// out\n        /* \"#utility.yul\":16028:16242   */\n    tag_49:\n        /* \"#utility.yul\":16117:16121   */\n      0x00\n        /* \"#utility.yul\":16155:16157   */\n      0x20\n        /* \"#utility.yul\":16144:16153   */\n      dup3\n        /* \"#utility.yul\":16140:16158   */\n      add\n        /* \"#utility.yul\":16132:16158   */\n      swap1\n      pop\n        /* \"#utility.yul\":16168:16235   */\n      tag_452\n        /* \"#utility.yul\":16232:16233   */\n      0x00\n        /* \"#utility.yul\":16221:16230   */\n      dup4\n        /* \"#utility.yul\":16217:16234   */\n      add\n        /* \"#utility.yul\":16208:16214   */\n      dup5\n        /* \"#utility.yul\":16168:16235   */\n      tag_411\n      jump\t// in\n    tag_452:\n        /* \"#utility.yul\":16028:16242   */\n      swap3\n      swap2\n      pop\n      pop\n      jump\t// out\n        /* \"#utility.yul\":16329:16428   */\n    tag_330:\n        /* \"#utility.yul\":16381:16387   */\n      0x00\n        /* \"#utility.yul\":16415:16420   */\n      dup2\n        /* \"#utility.yul\":16409:16421   */\n      mload\n        /* \"#utility.yul\":16399:16421   */\n      swap1\n      pop\n        /* \"#utility.yul\":16329:16428   */\n      swap2\n      swap1\n      pop\n      jump\t// out\n        /* \"#utility.yul\":16434:16603   */\n    tag_332:\n        /* \"#utility.yul\":16518:16529   */\n      0x00\n        /* \"#utility.yul\":16552:16558   */\n      dup3\n        /* \"#utility.yul\":16547:16550   */\n      dup3\n        /* \"#utility.yul\":16540:16559   */\n      mstore\n        /* \"#utility.yul\":16592:16596   */\n      0x20\n        /* \"#utility.yul\":16587:16590   */\n      dup3\n        /* \"#utility.yul\":16583:16597   */\n      add\n        /* \"#utility.yul\":16568:16597   */\n      swap1\n      pop\n        /* \"#utility.yul\":16434:16603   */\n      swap3\n      swap2\n      pop\n      pop\n      jump\t// out\n        /* \"#utility.yul\":16609:16914   */\n    tag_130:\n        /* \"#utility.yul\":16649:16652   */\n      0x00\n        /* \"#utility.yul\":16668:16688   */\n      tag_458\n        /* \"#utility.yul\":16686:16687   */\n      dup3\n        /* \"#utility.yul\":16668:16688   */\n      tag_410\n      jump\t// in\n    tag_458:\n        /* \"#utility.yul\":16663:16688   */\n      swap2\n      pop\n        /* \"#utility.yul\":16702:16722   */\n      tag_459\n        /* \"#utility.yul\":16720:16721   */\n      dup4\n        /* \"#utility.yul\":16702:16722   */\n      tag_410\n      jump\t// in\n    tag_459:\n        /* \"#utility.yul\":16697:16722   */\n      swap3\n      pop\n        /* \"#utility.yul\":16856:16857   */\n      dup3\n        /* \"#utility.yul\":16788:16854   */\n      0xffffffffffffffffffffffffffffffffffffffffffffffffffffffffffffffff\n        /* \"#utility.yul\":16784:16858   */\n      sub\n        /* \"#utility.yul\":16781:16782   */\n      dup3\n        /* \"#utility.yul\":16778:16859   */\n      gt\n        /* \"#utility.yul\":16775:16882   */\n      iszero\n      tag_460\n      jumpi\n        /* \"#utility.yul\":16862:16880   */\n      tag_461\n      tag_462\n      jump\t// in\n    tag_461:\n        /* \"#utility.yul\":16775:16882   */\n    tag_460:\n        /* \"#utility.yul\":16906:16907   */\n      dup3\n        /* \"#utility.yul\":16903:16904   */\n      dup3\n        /* \"#utility.yul\":16899:16908   */\n      add\n        /* \"#utility.yul\":16892:16908   */\n      swap1\n      pop\n        /* \"#utility.yul\":16609:16914   */\n      swap3\n      swap2\n      pop\n      pop\n      jump\t// out\n        /* \"#utility.yul\":16920:17111   */\n    tag_250:\n        /* \"#utility.yul\":16960:16964   */\n      0x00\n        /* \"#utility.yul\":16980:17000   */\n      tag_464\n        /* \"#utility.yul\":16998:16999   */\n      dup3\n        /* \"#utility.yul\":16980:17000   */\n      tag_410\n      jump\t// in\n    tag_464:\n        /* \"#utility.yul\":16975:17000   */\n      swap2\n      pop\n        /* \"#utility.yul\":17014:17034   */\n      tag_465\n        /* \"#utility.yul\":17032:17033   */\n      dup4\n        /* \"#utility.yul\":17014:17034   */\n      tag_410\n      jump\t// in\n    tag_465:\n        /* \"#utility.yul\":17009:17034   */\n      swap3\n      pop\n        /* \"#utility.yul\":17053:17054   */\n      dup3\n        /* \"#utility.yul\":17050:17051   */\n      dup3\n        /* \"#utility.yul\":17047:17055   */\n      lt\n        /* \"#utility.yul\":17044:17078   */\n      iszero\n      tag_466\n      jumpi\n        /* \"#utility.yul\":17058:17076   */\n      tag_467\n      tag_462\n      jump\t// in\n    tag_467:\n        /* \"#utility.yul\":17044:17078   */\n    tag_466:\n        /* \"#utility.yul\":17103:17104   */\n      dup3\n        /* \"#utility.yul\":17100:17101   */\n      dup3\n        /* \"#utility.yul\":17096:17105   */\n      sub\n        /* \"#utility.yul\":17088:17105   */\n      swap1\n      pop\n        /* \"#utility.yul\":16920:17111   */\n      swap3\n      swap2\n      pop\n      pop\n      jump\t// out\n        /* \"#utility.yul\":17117:17213   */\n    tag_322:\n        /* \"#utility.yul\":17154:17161   */\n      0x00\n        /* \"#utility.yul\":17183:17207   */\n      tag_469\n        /* \"#utility.yul\":17201:17206   */\n      dup3\n        /* \"#utility.yul\":17183:17207   */\n      tag_470\n      jump\t// in\n    tag_469:\n        /* \"#utility.yul\":17172:17207   */\n      swap1\n      pop\n        /* \"#utility.yul\":17117:17213   */\n      swap2\n      swap1\n      pop\n      jump\t// out\n        /* \"#utility.yul\":17219:17309   */\n    tag_326:\n        /* \"#utility.yul\":17253:17260   */\n      0x00\n        /* \"#utility.yul\":17296:17301   */\n      dup2\n        /* \"#utility.yul\":17289:17302   */\n      iszero\n        /* \"#utility.yul\":17282:17303   */\n      iszero\n        /* \"#utility.yul\":17271:17303   */\n      swap1\n      pop\n        /* \"#utility.yul\":17219:17309   */\n      swap2\n      swap1\n      pop\n      jump\t// out\n        /* \"#utility.yul\":17315:17391   */\n    tag_472:\n        /* \"#utility.yul\":17351:17358   */\n      0x00\n        /* \"#utility.yul\":17380:17385   */\n      dup2\n        /* \"#utility.yul\":17369:17385   */\n      swap1\n      pop\n        /* \"#utility.yul\":17315:17391   */\n      swap2\n      swap1\n      pop\n      jump\t// out\n        /* \"#utility.yul\":17397:17523   */\n    tag_470:\n        /* \"#utility.yul\":17434:17441   */\n      0x00\n        /* \"#utility.yul\":17474:17516   */\n      0xffffffffffffffffffffffffffffffffffffffff\n        /* \"#utility.yul\":17467:17472   */\n      dup3\n        /* \"#utility.yul\":17463:17517   */\n      and\n        /* \"#utility.yul\":17452:17517   */\n      swap1\n      pop\n        /* \"#utility.yul\":17397:17523   */\n      swap2\n      swap1\n      pop\n      jump\t// out\n        /* \"#utility.yul\":17529:17606   */\n    tag_410:\n        /* \"#utility.yul\":17566:17573   */\n      0x00\n        /* \"#utility.yul\":17595:17600   */\n      dup2\n        /* \"#utility.yul\":17584:17600   */\n      swap1\n      pop\n        /* \"#utility.yul\":17529:17606   */\n      swap2\n      swap1\n      pop\n      jump\t// out\n        /* \"#utility.yul\":17612:17698   */\n    tag_414:\n        /* \"#utility.yul\":17647:17654   */\n      0x00\n        /* \"#utility.yul\":17687:17691   */\n      0xff\n        /* \"#utility.yul\":17680:17685   */\n      dup3\n        /* \"#utility.yul\":17676:17692   */\n      and\n        /* \"#utility.yul\":17665:17692   */\n      swap1\n      pop\n        /* \"#utility.yul\":17612:17698   */\n      swap2\n      swap1\n      pop\n      jump\t// out\n        /* \"#utility.yul\":17704:18011   */\n    tag_334:\n        /* \"#utility.yul\":17772:17773   */\n      0x00\n        /* \"#utility.yul\":17782:17895   */\n    tag_478:\n        /* \"#utility.yul\":17796:17802   */\n      dup4\n        /* \"#utility.yul\":17793:17794   */\n      dup2\n        /* \"#utility.yul\":17790:17803   */\n      lt\n        /* \"#utility.yul\":17782:17895   */\n      iszero\n      tag_480\n      jumpi\n        /* \"#utility.yul\":17881:17882   */\n      dup1\n        /* \"#utility.yul\":17876:17879   */\n      dup3\n        /* \"#utility.yul\":17872:17883   */\n      add\n        /* \"#utility.yul\":17866:17884   */\n      mload\n        /* \"#utility.yul\":17862:17863   */\n      dup2\n        /* \"#utility.yul\":17857:17860   */\n      dup5\n        /* \"#utility.yul\":17853:17864   */\n      add\n        /* \"#utility.yul\":17846:17885   */\n      mstore\n        /* \"#utility.yul\":17818:17820   */\n      0x20\n        /* \"#utility.yul\":17815:17816   */\n      dup2\n        /* \"#utility.yul\":17811:17821   */\n      add\n        /* \"#utility.yul\":17806:17821   */\n      swap1\n      pop\n        /* \"#utility.yul\":17782:17895   */\n      jump(tag_478)\n    tag_480:\n        /* \"#utility.yul\":17913:17919   */\n      dup4\n        /* \"#utility.yul\":17910:17911   */\n      dup2\n        /* \"#utility.yul\":17907:17920   */\n      gt\n        /* \"#utility.yul\":17904:18005   */\n      iszero\n      tag_481\n      jumpi\n        /* \"#utility.yul\":17993:17994   */\n      0x00\n        /* \"#utility.yul\":17984:17990   */\n      dup5\n        /* \"#utility.yul\":17979:17982   */\n      dup5\n        /* \"#utility.yul\":17975:17991   */\n      add\n        /* \"#utility.yul\":17968:17995   */\n      mstore\n        /* \"#utility.yul\":17904:18005   */\n    tag_481:\n        /* \"#utility.yul\":17753:18011   */\n      pop\n        /* \"#utility.yul\":17704:18011   */\n      pop\n      pop\n      pop\n      jump\t// out\n        /* \"#utility.yul\":18017:18337   */\n    tag_107:\n        /* \"#utility.yul\":18061:18067   */\n      0x00\n        /* \"#utility.yul\":18098:18099   */\n      0x02\n        /* \"#utility.yul\":18092:18096   */\n      dup3\n        /* \"#utility.yul\":18088:18100   */\n      div\n        /* \"#utility.yul\":18078:18100   */\n      swap1\n      pop\n        /* \"#utility.yul\":18145:18146   */\n      0x01\n        /* \"#utility.yul\":18139:18143   */\n      dup3\n        /* \"#utility.yul\":18135:18147   */\n      and\n        /* \"#utility.yul\":18166:18184   */\n      dup1\n        /* \"#utility.yul\":18156:18237   */\n      tag_483\n      jumpi\n        /* \"#utility.yul\":18222:18226   */\n      0x7f\n        /* \"#utility.yul\":18214:18220   */\n      dup3\n        /* \"#utility.yul\":18210:18227   */\n      and\n        /* \"#utility.yul\":18200:18227   */\n      swap2\n      pop\n        /* \"#utility.yul\":18156:18237   */\n    tag_483:\n        /* \"#utility.yul\":18284:18286   */\n      0x20\n        /* \"#utility.yul\":18276:18282   */\n      dup3\n        /* \"#utility.yul\":18273:18287   */\n      lt\n        /* \"#utility.yul\":18253:18271   */\n      dup2\n        /* \"#utility.yul\":18250:18288   */\n      eq\n        /* \"#utility.yul\":18247:18331   */\n      iszero\n      tag_484\n      jumpi\n        /* \"#utility.yul\":18303:18321   */\n      tag_485\n      tag_486\n      jump\t// in\n    tag_485:\n        /* \"#utility.yul\":18247:18331   */\n    tag_484:\n        /* \"#utility.yul\":18068:18337   */\n      pop\n        /* \"#utility.yul\":18017:18337   */\n      swap2\n      swap1\n      pop\n      jump\t// out\n        /* \"#utility.yul\":18343:18523   */\n    tag_462:\n        /* \"#utility.yul\":18391:18468   */\n      0x4e487b7100000000000000000000000000000000000000000000000000000000\n        /* \"#utility.yul\":18388:18389   */\n      0x00\n        /* \"#utility.yul\":18381:18469   */\n      mstore\n        /* \"#utility.yul\":18488:18492   */\n      0x11\n        /* \"#utility.yul\":18485:18486   */\n      0x04\n        /* \"#utility.yul\":18478:18493   */\n      mstore\n        /* \"#utility.yul\":18512:18516   */\n      0x24\n        /* \"#utility.yul\":18509:18510   */\n      0x00\n        /* \"#utility.yul\":18502:18517   */\n      revert\n        /* \"#utility.yul\":18529:18709   */\n    tag_486:\n        /* \"#utility.yul\":18577:18654   */\n      0x4e487b7100000000000000000000000000000000000000000000000000000000\n        /* \"#utility.yul\":18574:18575   */\n      0x00\n        /* \"#utility.yul\":18567:18655   */\n      mstore\n        /* \"#utility.yul\":18674:18678   */\n      0x22\n        /* \"#utility.yul\":18671:18672   */\n      0x04\n        /* \"#utility.yul\":18664:18679   */\n      mstore\n        /* \"#utility.yul\":18698:18702   */\n      0x24\n        /* \"#utility.yul\":18695:18696   */\n      0x00\n        /* \"#utility.yul\":18688:18703   */\n      revert\n        /* \"#utility.yul\":18838:18955   */\n    tag_293:\n        /* \"#utility.yul\":18947:18948   */\n      0x00\n        /* \"#utility.yul\":18944:18945   */\n      dup1\n        /* \"#utility.yul\":18937:18949   */\n      revert\n        /* \"#utility.yul\":18961:19063   */\n    tag_336:\n        /* \"#utility.yul\":19002:19008   */\n      0x00\n        /* \"#utility.yul\":19053:19055   */\n      0x1f\n        /* \"#utility.yul\":19049:19056   */\n      not\n        /* \"#utility.yul\":19044:19046   */\n      0x1f\n        /* \"#utility.yul\":19037:19042   */\n      dup4\n        /* \"#utility.yul\":19033:19047   */\n      add\n        /* \"#utility.yul\":19029:19057   */\n      and\n        /* \"#utility.yul\":19019:19057   */\n      swap1\n      pop\n        /* \"#utility.yul\":18961:19063   */\n      swap2\n      swap1\n      pop\n      jump\t// out\n        /* \"#utility.yul\":19069:19291   */\n    tag_341:\n        /* \"#utility.yul\":19209:19243   */\n      0x45524332303a207472616e7366657220746f20746865207a65726f2061646472\n        /* \"#utility.yul\":19205:19206   */\n      0x00\n        /* \"#utility.yul\":19197:19203   */\n      dup3\n        /* \"#utility.yul\":19193:19207   */\n      add\n        /* \"#utility.yul\":19186:19244   */\n      mstore\n        /* \"#utility.yul\":19278:19283   */\n      0x6573730000000000000000000000000000000000000000000000000000000000\n        /* \"#utility.yul\":19273:19275   */\n      0x20\n        /* \"#utility.yul\":19265:19271   */\n      dup3\n        /* \"#utility.yul\":19261:19276   */\n      add\n        /* \"#utility.yul\":19254:19284   */\n      mstore\n        /* \"#utility.yul\":19069:19291   */\n      pop\n      jump\t// out\n        /* \"#utility.yul\":19297:19467   */\n    tag_346:\n        /* \"#utility.yul\":19437:19459   */\n      0x5061757361626c653a206e6f7420706175736564000000000000000000000000\n        /* \"#utility.yul\":19433:19434   */\n      0x00\n        /* \"#utility.yul\":19425:19431   */\n      dup3\n        /* \"#utility.yul\":19421:19435   */\n      add\n        /* \"#utility.yul\":19414:19460   */\n      mstore\n        /* \"#utility.yul\":19297:19467   */\n      pop\n      jump\t// out\n        /* \"#utility.yul\":19473:19694   */\n    tag_351:\n        /* \"#utility.yul\":19613:19647   */\n      0x45524332303a206275726e20616d6f756e7420657863656564732062616c616e\n        /* \"#utility.yul\":19609:19610   */\n      0x00\n        /* \"#utility.yul\":19601:19607   */\n      dup3\n        /* \"#utility.yul\":19597:19611   */\n      add\n        /* \"#utility.yul\":19590:19648   */\n      mstore\n        /* \"#utility.yul\":19682:19686   */\n      0x6365000000000000000000000000000000000000000000000000000000000000\n        /* \"#utility.yul\":19677:19679   */\n      0x20\n        /* \"#utility.yul\":19669:19675   */\n      dup3\n        /* \"#utility.yul\":19665:19680   */\n      add\n        /* \"#utility.yul\":19658:19687   */\n      mstore\n        /* \"#utility.yul\":19473:19694   */\n      pop\n      jump\t// out\n        /* \"#utility.yul\":19700:19925   */\n    tag_356:\n        /* \"#utility.yul\":19840:19874   */\n      0x4f776e61626c653a206e6577206f776e657220697320746865207a65726f2061\n        /* \"#utility.yul\":19836:19837   */\n      0x00\n        /* \"#utility.yul\":19828:19834   */\n      dup3\n        /* \"#utility.yul\":19824:19838   */\n      add\n        /* \"#utility.yul\":19817:19875   */\n      mstore\n        /* \"#utility.yul\":19909:19917   */\n      0x6464726573730000000000000000000000000000000000000000000000000000\n        /* \"#utility.yul\":19904:19906   */\n      0x20\n        /* \"#utility.yul\":19896:19902   */\n      dup3\n        /* \"#utility.yul\":19892:19907   */\n      add\n        /* \"#utility.yul\":19885:19918   */\n      mstore\n        /* \"#utility.yul\":19700:19925   */\n      pop\n      jump\t// out\n        /* \"#utility.yul\":19931:20152   */\n    tag_361:\n        /* \"#utility.yul\":20071:20105   */\n      0x45524332303a20617070726f766520746f20746865207a65726f206164647265\n        /* \"#utility.yul\":20067:20068   */\n      0x00\n        /* \"#utility.yul\":20059:20065   */\n      dup3\n        /* \"#utility.yul\":20055:20069   */\n      add\n        /* \"#utility.yul\":20048:20106   */\n      mstore\n        /* \"#utility.yul\":20140:20144   */\n      0x7373000000000000000000000000000000000000000000000000000000000000\n        /* \"#utility.yul\":20135:20137   */\n      0x20\n        /* \"#utility.yul\":20127:20133   */\n      dup3\n        /* \"#utility.yul\":20123:20138   */\n      add\n        /* \"#utility.yul\":20116:20145   */\n      mstore\n        /* \"#utility.yul\":19931:20152   */\n      pop\n      jump\t// out\n        /* \"#utility.yul\":20158:20337   */\n    tag_366:\n        /* \"#utility.yul\":20298:20329   */\n      0x45524332303a20696e73756666696369656e7420616c6c6f77616e6365000000\n        /* \"#utility.yul\":20294:20295   */\n      0x00\n        /* \"#utility.yul\":20286:20292   */\n      dup3\n        /* \"#utility.yul\":20282:20296   */\n      add\n        /* \"#utility.yul\":20275:20330   */\n      mstore\n        /* \"#utility.yul\":20158:20337   */\n      pop\n      jump\t// out\n        /* \"#utility.yul\":20343:20568   */\n    tag_371:\n        /* \"#utility.yul\":20483:20517   */\n      0x45524332303a207472616e7366657220616d6f756e7420657863656564732062\n        /* \"#utility.yul\":20479:20480   */\n      0x00\n        /* \"#utility.yul\":20471:20477   */\n      dup3\n        /* \"#utility.yul\":20467:20481   */\n      add\n        /* \"#utility.yul\":20460:20518   */\n      mstore\n        /* \"#utility.yul\":20552:20560   */\n      0x616c616e63650000000000000000000000000000000000000000000000000000\n        /* \"#utility.yul\":20547:20549   */\n      0x20\n        /* \"#utility.yul\":20539:20545   */\n      dup3\n        /* \"#utility.yul\":20535:20550   */\n      add\n        /* \"#utility.yul\":20528:20561   */\n      mstore\n        /* \"#utility.yul\":20343:20568   */\n      pop\n      jump\t// out\n        /* \"#utility.yul\":20574:20740   */\n    tag_376:\n        /* \"#utility.yul\":20714:20732   */\n      0x5061757361626c653a2070617573656400000000000000000000000000000000\n        /* \"#utility.yul\":20710:20711   */\n      0x00\n        /* \"#utility.yul\":20702:20708   */\n      dup3\n        /* \"#utility.yul\":20698:20712   */\n      add\n        /* \"#utility.yul\":20691:20733   */\n      mstore\n        /* \"#utility.yul\":20574:20740   */\n      pop\n      jump\t// out\n        /* \"#utility.yul\":20746:20928   */\n    tag_381:\n        /* \"#utility.yul\":20886:20920   */\n      0x4f776e61626c653a2063616c6c6572206973206e6f7420746865206f776e6572\n        /* \"#utility.yul\":20882:20883   */\n      0x00\n        /* \"#utility.yul\":20874:20880   */\n      dup3\n        /* \"#utility.yul\":20870:20884   */\n      add\n        /* \"#utility.yul\":20863:20921   */\n      mstore\n        /* \"#utility.yul\":20746:20928   */\n      pop\n      jump\t// out\n        /* \"#utility.yul\":20934:21154   */\n    tag_386:\n        /* \"#utility.yul\":21074:21108   */\n      0x45524332303a206275726e2066726f6d20746865207a65726f20616464726573\n        /* \"#utility.yul\":21070:21071   */\n      0x00\n        /* \"#utility.yul\":21062:21068   */\n      dup3\n        /* \"#utility.yul\":21058:21072   */\n      add\n        /* \"#utility.yul\":21051:21109   */\n      mstore\n        /* \"#utility.yul\":21143:21146   */\n      0x7300000000000000000000000000000000000000000000000000000000000000\n        /* \"#utility.yul\":21138:21140   */\n      0x20\n        /* \"#utility.yul\":21130:21136   */\n      dup3\n        /* \"#utility.yul\":21126:21141   */\n      add\n        /* \"#utility.yul\":21119:21147   */\n      mstore\n        /* \"#utility.yul\":20934:21154   */\n      pop\n      jump\t// out\n        /* \"#utility.yul\":21160:21384   */\n    tag_391:\n        /* \"#utility.yul\":21300:21334   */\n      0x45524332303a207472616e736665722066726f6d20746865207a65726f206164\n        /* \"#utility.yul\":21296:21297   */\n      0x00\n        /* \"#utility.yul\":21288:21294   */\n      dup3\n        /* \"#utility.yul\":21284:21298   */\n      add\n        /* \"#utility.yul\":21277:21335   */\n      mstore\n        /* \"#utility.yul\":21369:21376   */\n      0x6472657373000000000000000000000000000000000000000000000000000000\n        /* \"#utility.yul\":21364:21366   */\n      0x20\n        /* \"#utility.yul\":21356:21362   */\n      dup3\n        /* \"#utility.yul\":21352:21367   */\n      add\n        /* \"#utility.yul\":21345:21377   */\n      mstore\n        /* \"#utility.yul\":21160:21384   */\n      pop\n      jump\t// out\n        /* \"#utility.yul\":21390:21613   */\n    tag_396:\n        /* \"#utility.yul\":21530:21564   */\n      0x45524332303a20617070726f76652066726f6d20746865207a65726f20616464\n        /* \"#utility.yul\":21526:21527   */\n      0x00\n        /* \"#utility.yul\":21518:21524   */\n      dup3\n        /* \"#utility.yul\":21514:21528   */\n      add\n        /* \"#utility.yul\":21507:21565   */\n      mstore\n        /* \"#utility.yul\":21599:21605   */\n      0x7265737300000000000000000000000000000000000000000000000000000000\n        /* \"#utility.yul\":21594:21596   */\n      0x20\n        /* \"#utility.yul\":21586:21592   */\n      dup3\n        /* \"#utility.yul\":21582:21597   */\n      add\n        /* \"#utility.yul\":21575:21606   */\n      mstore\n        /* \"#utility.yul\":21390:21613   */\n      pop\n      jump\t// out\n        /* \"#utility.yul\":21619:21843   */\n    tag_401:\n        /* \"#utility.yul\":21759:21793   */\n      0x45524332303a2064656372656173656420616c6c6f77616e63652062656c6f77\n        /* \"#utility.yul\":21755:21756   */\n      0x00\n        /* \"#utility.yul\":21747:21753   */\n      dup3\n        /* \"#utility.yul\":21743:21757   */\n      add\n        /* \"#utility.yul\":21736:21794   */\n      mstore\n        /* \"#utility.yul\":21828:21835   */\n      0x207a65726f000000000000000000000000000000000000000000000000000000\n        /* \"#utility.yul\":21823:21825   */\n      0x20\n        /* \"#utility.yul\":21815:21821   */\n      dup3\n        /* \"#utility.yul\":21811:21826   */\n      add\n        /* \"#utility.yul\":21804:21836   */\n      mstore\n        /* \"#utility.yul\":21619:21843   */\n      pop\n      jump\t// out\n        /* \"#utility.yul\":21849:22030   */\n    tag_406:\n        /* \"#utility.yul\":21989:22022   */\n      0x45524332303a206d696e7420746f20746865207a65726f206164647265737300\n        /* \"#utility.yul\":21985:21986   */\n      0x00\n        /* \"#utility.yul\":21977:21983   */\n      dup3\n        /* \"#utility.yul\":21973:21987   */\n      add\n        /* \"#utility.yul\":21966:22023   */\n      mstore\n        /* \"#utility.yul\":21849:22030   */\n      pop\n      jump\t// out\n        /* \"#utility.yul\":22036:22158   */\n    tag_281:\n        /* \"#utility.yul\":22109:22133   */\n      tag_508\n        /* \"#utility.yul\":22127:22132   */\n      dup2\n        /* \"#utility.yul\":22109:22133   */\n      tag_322\n      jump\t// in\n    tag_508:\n        /* \"#utility.yul\":22102:22107   */\n      dup2\n        /* \"#utility.yul\":22099:22134   */\n      eq\n        /* \"#utility.yul\":22089:22152   */\n      tag_509\n      jumpi\n        /* \"#utility.yul\":22148:22149   */\n      0x00\n        /* \"#utility.yul\":22145:22146   */\n      dup1\n        /* \"#utility.yul\":22138:22150   */\n      revert\n        /* \"#utility.yul\":22089:22152   */\n    tag_509:\n        /* \"#utility.yul\":22036:22158   */\n      pop\n      jump\t// out\n        /* \"#utility.yul\":22164:22284   */\n    tag_285:\n        /* \"#utility.yul\":22236:22259   */\n      tag_511\n        /* \"#utility.yul\":22253:22258   */\n      dup2\n        /* \"#utility.yul\":22236:22259   */\n      tag_472\n      jump\t// in\n    tag_511:\n        /* \"#utility.yul\":22229:22234   */\n      dup2\n        /* \"#utility.yul\":22226:22260   */\n      eq\n        /* \"#utility.yul\":22216:22278   */\n      tag_512\n      jumpi\n        /* \"#utility.yul\":22274:22275   */\n      0x00\n        /* \"#utility.yul\":22271:22272   */\n      dup1\n        /* \"#utility.yul\":22264:22276   */\n      revert\n        /* \"#utility.yul\":22216:22278   */\n    tag_512:\n        /* \"#utility.yul\":22164:22284   */\n      pop\n      jump\t// out\n        /* \"#utility.yul\":22290:22412   */\n    tag_289:\n        /* \"#utility.yul\":22363:22387   */\n      tag_514\n        /* \"#utility.yul\":22381:22386   */\n      dup2\n        /* \"#utility.yul\":22363:22387   */\n      tag_410\n      jump\t// in\n    tag_514:\n        /* \"#utility.yul\":22356:22361   */\n      dup2\n        /* \"#utility.yul\":22353:22388   */\n      eq\n        /* \"#utility.yul\":22343:22406   */\n      tag_515\n      jumpi\n        /* \"#utility.yul\":22402:22403   */\n      0x00\n        /* \"#utility.yul\":22399:22400   */\n      dup1\n        /* \"#utility.yul\":22392:22404   */\n      revert\n        /* \"#utility.yul\":22343:22406   */\n    tag_515:\n        /* \"#utility.yul\":22290:22412   */\n      pop\n      jump\t// out\n\n    auxdata: 0xa26469706673582212205ccaf401b10b3f74a6c8abd212e731f0876134ae3e534d061d6184fa4b9b65e964736f6c63430008070033\n}\n",
				"bytecode": {
					"linkReferences": {},
					"object": "60806040523480156200001157600080fd5b506040518060400160405280600a81526020017f496e56697369446f7473000000000000000000000000000000000000000000008152506040518060400160405280600381526020017f4956440000000000000000000000000000000000000000000000000000000000815250816003908051906020019062000096929190620001c1565b508060049080519060200190620000af929190620001c1565b5050506000600560006101000a81548160ff021916908315150217905550620000ed620000e1620000f360201b60201c565b620000fb60201b60201c565b620002d6565b600033905090565b6000600560019054906101000a900473ffffffffffffffffffffffffffffffffffffffff16905081600560016101000a81548173ffffffffffffffffffffffffffffffffffffffff021916908373ffffffffffffffffffffffffffffffffffffffff1602179055508173ffffffffffffffffffffffffffffffffffffffff168173ffffffffffffffffffffffffffffffffffffffff167f8be0079c531659141344cd1fd0a4f28419497f9722a3daafe3b4186f6b6457e060405160405180910390a35050565b828054620001cf9062000271565b90600052602060002090601f016020900481019282620001f357600085556200023f565b82601f106200020e57805160ff19168380011785556200023f565b828001600101855582156200023f579182015b828111156200023e57825182559160200191906001019062000221565b5b5090506200024e919062000252565b5090565b5b808211156200026d57600081600090555060010162000253565b5090565b600060028204905060018216806200028a57607f821691505b60208210811415620002a157620002a0620002a7565b5b50919050565b7f4e487b7100000000000000000000000000000000000000000000000000000000600052602260045260246000fd5b611f6680620002e66000396000f3fe608060405234801561001057600080fd5b50600436106101375760003560e01c80635c975abb116100b85780638da5cb5b1161007c5780638da5cb5b1461030257806395d89b4114610320578063a457c2d71461033e578063a9059cbb1461036e578063dd62ed3e1461039e578063f2fde38b146103ce57610137565b80635c975abb1461028457806370a08231146102a2578063715018a6146102d257806379cc6790146102dc5780638456cb59146102f857610137565b806339509351116100ff57806339509351146101f65780633badee64146102265780633f4ba83a1461024257806340c10f191461024c57806342966c681461026857610137565b806306fdde031461013c578063095ea7b31461015a57806318160ddd1461018a57806323b872dd146101a8578063313ce567146101d8575b600080fd5b6101446103ea565b6040516101519190611761565b60405180910390f35b610174600480360381019061016f9190611432565b61047c565b6040516101819190611746565b60405180910390f35b61019261049f565b60405161019f9190611943565b60405180910390f35b6101c260048036038101906101bd91906113df565b6104a9565b6040516101cf9190611746565b60405180910390f35b6101e06104d8565b6040516101ed919061195e565b60405180910390f35b610210600480360381019061020b9190611432565b6104e1565b60405161021d9190611746565b60405180910390f35b610240600480360381019061023b9190611472565b610518565b005b61024a61051b565b005b61026660048036038101906102619190611432565b61052d565b005b610282600480360381019061027d919061149f565b610543565b005b61028c610557565b6040516102999190611746565b60405180910390f35b6102bc60048036038101906102b79190611372565b61056e565b6040516102c99190611943565b60405180910390f35b6102da6105b6565b005b6102f660048036038101906102f19190611432565b6105ca565b005b6103006105ea565b005b61030a6105fc565b604051610317919061172b565b60405180910390f35b610328610626565b6040516103359190611761565b60405180910390f35b61035860048036038101906103539190611432565b6106b8565b6040516103659190611746565b60405180910390f35b61038860048036038101906103839190611432565b61072f565b6040516103959190611746565b60405180910390f35b6103b860048036038101906103b3919061139f565b610752565b6040516103c59190611943565b60405180910390f35b6103e860048036038101906103e39190611372565b6107d9565b005b6060600380546103f990611ab1565b80601f016020809104026020016040519081016040528092919081815260200182805461042590611ab1565b80156104725780601f1061044757610100808354040283529160200191610472565b820191906000526020600020905b81548152906001019060200180831161045557829003601f168201915b5050505050905090565b60008061048761085d565b9050610494818585610865565b600191505092915050565b6000600254905090565b6000806104b461085d565b90506104c1858285610a30565b6104cc858585610abc565b60019150509392505050565b60006012905090565b6000806104ec61085d565b905061050d8185856104fe8589610752565b6105089190611995565b610865565b600191505092915050565b50565b610523610d3d565b61052b610dbb565b565b610535610d3d565b61053f8282610e1e565b5050565b61055461054e61085d565b82610f7e565b50565b6000600560009054906101000a900460ff16905090565b60008060008373ffffffffffffffffffffffffffffffffffffffff1673ffffffffffffffffffffffffffffffffffffffff168152602001908152602001600020549050919050565b6105be610d3d565b6105c86000611155565b565b6105dc826105d661085d565b83610a30565b6105e68282610f7e565b5050565b6105f2610d3d565b6105fa61121b565b565b6000600560019054906101000a900473ffffffffffffffffffffffffffffffffffffffff16905090565b60606004805461063590611ab1565b80601f016020809104026020016040519081016040528092919081815260200182805461066190611ab1565b80156106ae5780601f10610683576101008083540402835291602001916106ae565b820191906000526020600020905b81548152906001019060200180831161069157829003601f168201915b5050505050905090565b6000806106c361085d565b905060006106d18286610752565b905083811015610716576040517f08c379a000000000000000000000000000000000000000000000000000000000815260040161070d90611903565b60405180910390fd5b6107238286868403610865565b60019250505092915050565b60008061073a61085d565b9050610747818585610abc565b600191505092915050565b6000600160008473ffffffffffffffffffffffffffffffffffffffff1673ffffffffffffffffffffffffffffffffffffffff16815260200190815260200160002060008373ffffffffffffffffffffffffffffffffffffffff1673ffffffffffffffffffffffffffffffffffffffff16815260200190815260200160002054905092915050565b6107e1610d3d565b600073ffffffffffffffffffffffffffffffffffffffff168173ffffffffffffffffffffffffffffffffffffffff161415610851576040517f08c379a0000000000000000000000000000000000000000000000000000000008152600401610848906117e3565b60405180910390fd5b61085a81611155565b50565b600033905090565b600073ffffffffffffffffffffffffffffffffffffffff168373ffffffffffffffffffffffffffffffffffffffff1614156108d5576040517f08c379a00000000000000000000000000000000000000000000000000000000081526004016108cc906118e3565b60405180910390fd5b600073ffffffffffffffffffffffffffffffffffffffff168273ffffffffffffffffffffffffffffffffffffffff161415610945576040517f08c379a000000000000000000000000000000000000000000000000000000000815260040161093c90611803565b60405180910390fd5b80600160008573ffffffffffffffffffffffffffffffffffffffff1673ffffffffffffffffffffffffffffffffffffffff16815260200190815260200160002060008473ffffffffffffffffffffffffffffffffffffffff1673ffffffffffffffffffffffffffffffffffffffff168152602001908152602001600020819055508173ffffffffffffffffffffffffffffffffffffffff168373ffffffffffffffffffffffffffffffffffffffff167f8c5be1e5ebec7d5bd14f71427d1e84f3dd0314c0f7b2291e5b200ac8c7c3b92583604051610a239190611943565b60405180910390a3505050565b6000610a3c8484610752565b90507fffffffffffffffffffffffffffffffffffffffffffffffffffffffffffffffff8114610ab65781811015610aa8576040517f08c379a0000000000000000000000000000000000000000000000000000000008152600401610a9f90611823565b60405180910390fd5b610ab58484848403610865565b5b50505050565b600073ffffffffffffffffffffffffffffffffffffffff168373ffffffffffffffffffffffffffffffffffffffff161415610b2c576040517f08c379a0000000000000000000000000000000000000000000000000000000008152600401610b23906118c3565b60405180910390fd5b600073ffffffffffffffffffffffffffffffffffffffff168273ffffffffffffffffffffffffffffffffffffffff161415610b9c576040517f08c379a0000000000000000000000000000000000000000000000000000000008152600401610b9390611783565b60405180910390fd5b610ba783838361127e565b60008060008573ffffffffffffffffffffffffffffffffffffffff1673ffffffffffffffffffffffffffffffffffffffff16815260200190815260200160002054905081811015610c2d576040517f08c379a0000000000000000000000000000000000000000000000000000000008152600401610c2490611843565b60405180910390fd5b8181036000808673ffffffffffffffffffffffffffffffffffffffff1673ffffffffffffffffffffffffffffffffffffffff16815260200190815260200160002081905550816000808573ffffffffffffffffffffffffffffffffffffffff1673ffffffffffffffffffffffffffffffffffffffff1681526020019081526020016000206000828254610cc09190611995565b925050819055508273ffffffffffffffffffffffffffffffffffffffff168473ffffffffffffffffffffffffffffffffffffffff167fddf252ad1be2c89b69c2b068fc378daa952ba7f163c4a11628f55a4df523b3ef84604051610d249190611943565b60405180910390a3610d37848484611296565b50505050565b610d4561085d565b73ffffffffffffffffffffffffffffffffffffffff16610d636105fc565b73ffffffffffffffffffffffffffffffffffffffff1614610db9576040517f08c379a0000000000000000000000000000000000000000000000000000000008152600401610db090611883565b60405180910390fd5b565b610dc361129b565b6000600560006101000a81548160ff0219169083151502179055507f5db9ee0a495bf2e6ff9c91a7834c1ba4fdd244a5e8aa4e537bd38aeae4b073aa610e0761085d565b604051610e14919061172b565b60405180910390a1565b600073ffffffffffffffffffffffffffffffffffffffff168273ffffffffffffffffffffffffffffffffffffffff161415610e8e576040517f08c379a0000000000000000000000000000000000000000000000000000000008152600401610e8590611923565b60405180910390fd5b610e9a6000838361127e565b8060026000828254610eac9190611995565b92505081905550806000808473ffffffffffffffffffffffffffffffffffffffff1673ffffffffffffffffffffffffffffffffffffffff1681526020019081526020016000206000828254610f019190611995565b925050819055508173ffffffffffffffffffffffffffffffffffffffff16600073ffffffffffffffffffffffffffffffffffffffff167fddf252ad1be2c89b69c2b068fc378daa952ba7f163c4a11628f55a4df523b3ef83604051610f669190611943565b60405180910390a3610f7a60008383611296565b5050565b600073ffffffffffffffffffffffffffffffffffffffff168273ffffffffffffffffffffffffffffffffffffffff161415610fee576040517f08c379a0000000000000000000000000000000000000000000000000000000008152600401610fe5906118a3565b60405180910390fd5b610ffa8260008361127e565b60008060008473ffffffffffffffffffffffffffffffffffffffff1673ffffffffffffffffffffffffffffffffffffffff16815260200190815260200160002054905081811015611080576040517f08c379a0000000000000000000000000000000000000000000000000000000008152600401611077906117c3565b60405180910390fd5b8181036000808573ffffffffffffffffffffffffffffffffffffffff1673ffffffffffffffffffffffffffffffffffffffff1681526020019081526020016000208190555081600260008282546110d791906119eb565b92505081905550600073ffffffffffffffffffffffffffffffffffffffff168373ffffffffffffffffffffffffffffffffffffffff167fddf252ad1be2c89b69c2b068fc378daa952ba7f163c4a11628f55a4df523b3ef8460405161113c9190611943565b60405180910390a361115083600084611296565b505050565b6000600560019054906101000a900473ffffffffffffffffffffffffffffffffffffffff16905081600560016101000a81548173ffffffffffffffffffffffffffffffffffffffff021916908373ffffffffffffffffffffffffffffffffffffffff1602179055508173ffffffffffffffffffffffffffffffffffffffff168173ffffffffffffffffffffffffffffffffffffffff167f8be0079c531659141344cd1fd0a4f28419497f9722a3daafe3b4186f6b6457e060405160405180910390a35050565b6112236112e4565b6001600560006101000a81548160ff0219169083151502179055507f62e78cea01bee320cd4e420270b5ea74000d11b0c9f74754ebdbfc544b05a25861126761085d565b604051611274919061172b565b60405180910390a1565b6112866112e4565b61129183838361132e565b505050565b505050565b6112a3610557565b6112e2576040517f08c379a00000000000000000000000000000000000000000000000000000000081526004016112d9906117a3565b60405180910390fd5b565b6112ec610557565b1561132c576040517f08c379a000000000000000000000000000000000000000000000000000000000815260040161132390611863565b60405180910390fd5b565b505050565b60008135905061134281611eeb565b92915050565b60008135905061135781611f02565b92915050565b60008135905061136c81611f19565b92915050565b60006020828403121561138857611387611b41565b5b600061139684828501611333565b91505092915050565b600080604083850312156113b6576113b5611b41565b5b60006113c485828601611333565b92505060206113d585828601611333565b9150509250929050565b6000806000606084860312156113f8576113f7611b41565b5b600061140686828701611333565b935050602061141786828701611333565b92505060406114288682870161135d565b9150509250925092565b6000806040838503121561144957611448611b41565b5b600061145785828601611333565b92505060206114688582860161135d565b9150509250929050565b60006020828403121561148857611487611b41565b5b600061149684828501611348565b91505092915050565b6000602082840312156114b5576114b4611b41565b5b60006114c38482850161135d565b91505092915050565b6114d581611a1f565b82525050565b6114e481611a31565b82525050565b60006114f582611979565b6114ff8185611984565b935061150f818560208601611a7e565b61151881611b46565b840191505092915050565b6000611530602383611984565b915061153b82611b57565b604082019050919050565b6000611553601483611984565b915061155e82611ba6565b602082019050919050565b6000611576602283611984565b915061158182611bcf565b604082019050919050565b6000611599602683611984565b91506115a482611c1e565b604082019050919050565b60006115bc602283611984565b91506115c782611c6d565b604082019050919050565b60006115df601d83611984565b91506115ea82611cbc565b602082019050919050565b6000611602602683611984565b915061160d82611ce5565b604082019050919050565b6000611625601083611984565b915061163082611d34565b602082019050919050565b6000611648602083611984565b915061165382611d5d565b602082019050919050565b600061166b602183611984565b915061167682611d86565b604082019050919050565b600061168e602583611984565b915061169982611dd5565b604082019050919050565b60006116b1602483611984565b91506116bc82611e24565b604082019050919050565b60006116d4602583611984565b91506116df82611e73565b604082019050919050565b60006116f7601f83611984565b915061170282611ec2565b602082019050919050565b61171681611a67565b82525050565b61172581611a71565b82525050565b600060208201905061174060008301846114cc565b92915050565b600060208201905061175b60008301846114db565b92915050565b6000602082019050818103600083015261177b81846114ea565b905092915050565b6000602082019050818103600083015261179c81611523565b9050919050565b600060208201905081810360008301526117bc81611546565b9050919050565b600060208201905081810360008301526117dc81611569565b9050919050565b600060208201905081810360008301526117fc8161158c565b9050919050565b6000602082019050818103600083015261181c816115af565b9050919050565b6000602082019050818103600083015261183c816115d2565b9050919050565b6000602082019050818103600083015261185c816115f5565b9050919050565b6000602082019050818103600083015261187c81611618565b9050919050565b6000602082019050818103600083015261189c8161163b565b9050919050565b600060208201905081810360008301526118bc8161165e565b9050919050565b600060208201905081810360008301526118dc81611681565b9050919050565b600060208201905081810360008301526118fc816116a4565b9050919050565b6000602082019050818103600083015261191c816116c7565b9050919050565b6000602082019050818103600083015261193c816116ea565b9050919050565b6000602082019050611958600083018461170d565b92915050565b6000602082019050611973600083018461171c565b92915050565b600081519050919050565b600082825260208201905092915050565b60006119a082611a67565b91506119ab83611a67565b9250827fffffffffffffffffffffffffffffffffffffffffffffffffffffffffffffffff038211156119e0576119df611ae3565b5b828201905092915050565b60006119f682611a67565b9150611a0183611a67565b925082821015611a1457611a13611ae3565b5b828203905092915050565b6000611a2a82611a47565b9050919050565b60008115159050919050565b6000819050919050565b600073ffffffffffffffffffffffffffffffffffffffff82169050919050565b6000819050919050565b600060ff82169050919050565b60005b83811015611a9c578082015181840152602081019050611a81565b83811115611aab576000848401525b50505050565b60006002820490506001821680611ac957607f821691505b60208210811415611add57611adc611b12565b5b50919050565b7f4e487b7100000000000000000000000000000000000000000000000000000000600052601160045260246000fd5b7f4e487b7100000000000000000000000000000000000000000000000000000000600052602260045260246000fd5b600080fd5b6000601f19601f8301169050919050565b7f45524332303a207472616e7366657220746f20746865207a65726f206164647260008201527f6573730000000000000000000000000000000000000000000000000000000000602082015250565b7f5061757361626c653a206e6f7420706175736564000000000000000000000000600082015250565b7f45524332303a206275726e20616d6f756e7420657863656564732062616c616e60008201527f6365000000000000000000000000000000000000000000000000000000000000602082015250565b7f4f776e61626c653a206e6577206f776e657220697320746865207a65726f206160008201527f6464726573730000000000000000000000000000000000000000000000000000602082015250565b7f45524332303a20617070726f766520746f20746865207a65726f20616464726560008201527f7373000000000000000000000000000000000000000000000000000000000000602082015250565b7f45524332303a20696e73756666696369656e7420616c6c6f77616e6365000000600082015250565b7f45524332303a207472616e7366657220616d6f756e742065786365656473206260008201527f616c616e63650000000000000000000000000000000000000000000000000000602082015250565b7f5061757361626c653a2070617573656400000000000000000000000000000000600082015250565b7f4f776e61626c653a2063616c6c6572206973206e6f7420746865206f776e6572600082015250565b7f45524332303a206275726e2066726f6d20746865207a65726f2061646472657360008201527f7300000000000000000000000000000000000000000000000000000000000000602082015250565b7f45524332303a207472616e736665722066726f6d20746865207a65726f20616460008201527f6472657373000000000000000000000000000000000000000000000000000000602082015250565b7f45524332303a20617070726f76652066726f6d20746865207a65726f2061646460008201527f7265737300000000000000000000000000000000000000000000000000000000602082015250565b7f45524332303a2064656372656173656420616c6c6f77616e63652062656c6f7760008201527f207a65726f000000000000000000000000000000000000000000000000000000602082015250565b7f45524332303a206d696e7420746f20746865207a65726f206164647265737300600082015250565b611ef481611a1f565b8114611eff57600080fd5b50565b611f0b81611a3d565b8114611f1657600080fd5b50565b611f2281611a67565b8114611f2d57600080fd5b5056fea26469706673582212205ccaf401b10b3f74a6c8abd212e731f0876134ae3e534d061d6184fa4b9b65e964736f6c63430008070033",
					"opcodes": "PUSH1 0x80 PUSH1 0x40 MSTORE CALLVALUE DUP1 ISZERO PUSH3 0x11 JUMPI PUSH1 0x0 DUP1 REVERT JUMPDEST POP PUSH1 0x40 MLOAD DUP1 PUSH1 0x40 ADD PUSH1 0x40 MSTORE DUP1 PUSH1 0xA DUP2 MSTORE PUSH1 0x20 ADD PUSH32 0x496E56697369446F747300000000000000000000000000000000000000000000 DUP2 MSTORE POP PUSH1 0x40 MLOAD DUP1 PUSH1 0x40 ADD PUSH1 0x40 MSTORE DUP1 PUSH1 0x3 DUP2 MSTORE PUSH1 0x20 ADD PUSH32 0x4956440000000000000000000000000000000000000000000000000000000000 DUP2 MSTORE POP DUP2 PUSH1 0x3 SWAP1 DUP1 MLOAD SWAP1 PUSH1 0x20 ADD SWAP1 PUSH3 0x96 SWAP3 SWAP2 SWAP1 PUSH3 0x1C1 JUMP JUMPDEST POP DUP1 PUSH1 0x4 SWAP1 DUP1 MLOAD SWAP1 PUSH1 0x20 ADD SWAP1 PUSH3 0xAF SWAP3 SWAP2 SWAP1 PUSH3 0x1C1 JUMP JUMPDEST POP POP POP PUSH1 0x0 PUSH1 0x5 PUSH1 0x0 PUSH2 0x100 EXP DUP2 SLOAD DUP2 PUSH1 0xFF MUL NOT AND SWAP1 DUP4 ISZERO ISZERO MUL OR SWAP1 SSTORE POP PUSH3 0xED PUSH3 0xE1 PUSH3 0xF3 PUSH1 0x20 SHL PUSH1 0x20 SHR JUMP JUMPDEST PUSH3 0xFB PUSH1 0x20 SHL PUSH1 0x20 SHR JUMP JUMPDEST PUSH3 0x2D6 JUMP JUMPDEST PUSH1 0x0 CALLER SWAP1 POP SWAP1 JUMP JUMPDEST PUSH1 0x0 PUSH1 0x5 PUSH1 0x1 SWAP1 SLOAD SWAP1 PUSH2 0x100 EXP SWAP1 DIV PUSH20 0xFFFFFFFFFFFFFFFFFFFFFFFFFFFFFFFFFFFFFFFF AND SWAP1 POP DUP2 PUSH1 0x5 PUSH1 0x1 PUSH2 0x100 EXP DUP2 SLOAD DUP2 PUSH20 0xFFFFFFFFFFFFFFFFFFFFFFFFFFFFFFFFFFFFFFFF MUL NOT AND SWAP1 DUP4 PUSH20 0xFFFFFFFFFFFFFFFFFFFFFFFFFFFFFFFFFFFFFFFF AND MUL OR SWAP1 SSTORE POP DUP2 PUSH20 0xFFFFFFFFFFFFFFFFFFFFFFFFFFFFFFFFFFFFFFFF AND DUP2 PUSH20 0xFFFFFFFFFFFFFFFFFFFFFFFFFFFFFFFFFFFFFFFF AND PUSH32 0x8BE0079C531659141344CD1FD0A4F28419497F9722A3DAAFE3B4186F6B6457E0 PUSH1 0x40 MLOAD PUSH1 0x40 MLOAD DUP1 SWAP2 SUB SWAP1 LOG3 POP POP JUMP JUMPDEST DUP3 DUP1 SLOAD PUSH3 0x1CF SWAP1 PUSH3 0x271 JUMP JUMPDEST SWAP1 PUSH1 0x0 MSTORE PUSH1 0x20 PUSH1 0x0 KECCAK256 SWAP1 PUSH1 0x1F ADD PUSH1 0x20 SWAP1 DIV DUP2 ADD SWAP3 DUP3 PUSH3 0x1F3 JUMPI PUSH1 0x0 DUP6 SSTORE PUSH3 0x23F JUMP JUMPDEST DUP3 PUSH1 0x1F LT PUSH3 0x20E JUMPI DUP1 MLOAD PUSH1 0xFF NOT AND DUP4 DUP1 ADD OR DUP6 SSTORE PUSH3 0x23F JUMP JUMPDEST DUP3 DUP1 ADD PUSH1 0x1 ADD DUP6 SSTORE DUP3 ISZERO PUSH3 0x23F JUMPI SWAP2 DUP3 ADD JUMPDEST DUP3 DUP2 GT ISZERO PUSH3 0x23E JUMPI DUP3 MLOAD DUP3 SSTORE SWAP2 PUSH1 0x20 ADD SWAP2 SWAP1 PUSH1 0x1 ADD SWAP1 PUSH3 0x221 JUMP JUMPDEST JUMPDEST POP SWAP1 POP PUSH3 0x24E SWAP2 SWAP1 PUSH3 0x252 JUMP JUMPDEST POP SWAP1 JUMP JUMPDEST JUMPDEST DUP1 DUP3 GT ISZERO PUSH3 0x26D JUMPI PUSH1 0x0 DUP2 PUSH1 0x0 SWAP1 SSTORE POP PUSH1 0x1 ADD PUSH3 0x253 JUMP JUMPDEST POP SWAP1 JUMP JUMPDEST PUSH1 0x0 PUSH1 0x2 DUP3 DIV SWAP1 POP PUSH1 0x1 DUP3 AND DUP1 PUSH3 0x28A JUMPI PUSH1 0x7F DUP3 AND SWAP2 POP JUMPDEST PUSH1 0x20 DUP3 LT DUP2 EQ ISZERO PUSH3 0x2A1 JUMPI PUSH3 0x2A0 PUSH3 0x2A7 JUMP JUMPDEST JUMPDEST POP SWAP2 SWAP1 POP JUMP JUMPDEST PUSH32 0x4E487B7100000000000000000000000000000000000000000000000000000000 PUSH1 0x0 MSTORE PUSH1 0x22 PUSH1 0x4 MSTORE PUSH1 0x24 PUSH1 0x0 REVERT JUMPDEST PUSH2 0x1F66 DUP1 PUSH3 0x2E6 PUSH1 0x0 CODECOPY PUSH1 0x0 RETURN INVALID PUSH1 0x80 PUSH1 0x40 MSTORE CALLVALUE DUP1 ISZERO PUSH2 0x10 JUMPI PUSH1 0x0 DUP1 REVERT JUMPDEST POP PUSH1 0x4 CALLDATASIZE LT PUSH2 0x137 JUMPI PUSH1 0x0 CALLDATALOAD PUSH1 0xE0 SHR DUP1 PUSH4 0x5C975ABB GT PUSH2 0xB8 JUMPI DUP1 PUSH4 0x8DA5CB5B GT PUSH2 0x7C JUMPI DUP1 PUSH4 0x8DA5CB5B EQ PUSH2 0x302 JUMPI DUP1 PUSH4 0x95D89B41 EQ PUSH2 0x320 JUMPI DUP1 PUSH4 0xA457C2D7 EQ PUSH2 0x33E JUMPI DUP1 PUSH4 0xA9059CBB EQ PUSH2 0x36E JUMPI DUP1 PUSH4 0xDD62ED3E EQ PUSH2 0x39E JUMPI DUP1 PUSH4 0xF2FDE38B EQ PUSH2 0x3CE JUMPI PUSH2 0x137 JUMP JUMPDEST DUP1 PUSH4 0x5C975ABB EQ PUSH2 0x284 JUMPI DUP1 PUSH4 0x70A08231 EQ PUSH2 0x2A2 JUMPI DUP1 PUSH4 0x715018A6 EQ PUSH2 0x2D2 JUMPI DUP1 PUSH4 0x79CC6790 EQ PUSH2 0x2DC JUMPI DUP1 PUSH4 0x8456CB59 EQ PUSH2 0x2F8 JUMPI PUSH2 0x137 JUMP JUMPDEST DUP1 PUSH4 0x39509351 GT PUSH2 0xFF JUMPI DUP1 PUSH4 0x39509351 EQ PUSH2 0x1F6 JUMPI DUP1 PUSH4 0x3BADEE64 EQ PUSH2 0x226 JUMPI DUP1 PUSH4 0x3F4BA83A EQ PUSH2 0x242 JUMPI DUP1 PUSH4 0x40C10F19 EQ PUSH2 0x24C JUMPI DUP1 PUSH4 0x42966C68 EQ PUSH2 0x268 JUMPI PUSH2 0x137 JUMP JUMPDEST DUP1 PUSH4 0x6FDDE03 EQ PUSH2 0x13C JUMPI DUP1 PUSH4 0x95EA7B3 EQ PUSH2 0x15A JUMPI DUP1 PUSH4 0x18160DDD EQ PUSH2 0x18A JUMPI DUP1 PUSH4 0x23B872DD EQ PUSH2 0x1A8 JUMPI DUP1 PUSH4 0x313CE567 EQ PUSH2 0x1D8 JUMPI JUMPDEST PUSH1 0x0 DUP1 REVERT JUMPDEST PUSH2 0x144 PUSH2 0x3EA JUMP JUMPDEST PUSH1 0x40 MLOAD PUSH2 0x151 SWAP2 SWAP1 PUSH2 0x1761 JUMP JUMPDEST PUSH1 0x40 MLOAD DUP1 SWAP2 SUB SWAP1 RETURN JUMPDEST PUSH2 0x174 PUSH1 0x4 DUP1 CALLDATASIZE SUB DUP2 ADD SWAP1 PUSH2 0x16F SWAP2 SWAP1 PUSH2 0x1432 JUMP JUMPDEST PUSH2 0x47C JUMP JUMPDEST PUSH1 0x40 MLOAD PUSH2 0x181 SWAP2 SWAP1 PUSH2 0x1746 JUMP JUMPDEST PUSH1 0x40 MLOAD DUP1 SWAP2 SUB SWAP1 RETURN JUMPDEST PUSH2 0x192 PUSH2 0x49F JUMP JUMPDEST PUSH1 0x40 MLOAD PUSH2 0x19F SWAP2 SWAP1 PUSH2 0x1943 JUMP JUMPDEST PUSH1 0x40 MLOAD DUP1 SWAP2 SUB SWAP1 RETURN JUMPDEST PUSH2 0x1C2 PUSH1 0x4 DUP1 CALLDATASIZE SUB DUP2 ADD SWAP1 PUSH2 0x1BD SWAP2 SWAP1 PUSH2 0x13DF JUMP JUMPDEST PUSH2 0x4A9 JUMP JUMPDEST PUSH1 0x40 MLOAD PUSH2 0x1CF SWAP2 SWAP1 PUSH2 0x1746 JUMP JUMPDEST PUSH1 0x40 MLOAD DUP1 SWAP2 SUB SWAP1 RETURN JUMPDEST PUSH2 0x1E0 PUSH2 0x4D8 JUMP JUMPDEST PUSH1 0x40 MLOAD PUSH2 0x1ED SWAP2 SWAP1 PUSH2 0x195E JUMP JUMPDEST PUSH1 0x40 MLOAD DUP1 SWAP2 SUB SWAP1 RETURN JUMPDEST PUSH2 0x210 PUSH1 0x4 DUP1 CALLDATASIZE SUB DUP2 ADD SWAP1 PUSH2 0x20B SWAP2 SWAP1 PUSH2 0x1432 JUMP JUMPDEST PUSH2 0x4E1 JUMP JUMPDEST PUSH1 0x40 MLOAD PUSH2 0x21D SWAP2 SWAP1 PUSH2 0x1746 JUMP JUMPDEST PUSH1 0x40 MLOAD DUP1 SWAP2 SUB SWAP1 RETURN JUMPDEST PUSH2 0x240 PUSH1 0x4 DUP1 CALLDATASIZE SUB DUP2 ADD SWAP1 PUSH2 0x23B SWAP2 SWAP1 PUSH2 0x1472 JUMP JUMPDEST PUSH2 0x518 JUMP JUMPDEST STOP JUMPDEST PUSH2 0x24A PUSH2 0x51B JUMP JUMPDEST STOP JUMPDEST PUSH2 0x266 PUSH1 0x4 DUP1 CALLDATASIZE SUB DUP2 ADD SWAP1 PUSH2 0x261 SWAP2 SWAP1 PUSH2 0x1432 JUMP JUMPDEST PUSH2 0x52D JUMP JUMPDEST STOP JUMPDEST PUSH2 0x282 PUSH1 0x4 DUP1 CALLDATASIZE SUB DUP2 ADD SWAP1 PUSH2 0x27D SWAP2 SWAP1 PUSH2 0x149F JUMP JUMPDEST PUSH2 0x543 JUMP JUMPDEST STOP JUMPDEST PUSH2 0x28C PUSH2 0x557 JUMP JUMPDEST PUSH1 0x40 MLOAD PUSH2 0x299 SWAP2 SWAP1 PUSH2 0x1746 JUMP JUMPDEST PUSH1 0x40 MLOAD DUP1 SWAP2 SUB SWAP1 RETURN JUMPDEST PUSH2 0x2BC PUSH1 0x4 DUP1 CALLDATASIZE SUB DUP2 ADD SWAP1 PUSH2 0x2B7 SWAP2 SWAP1 PUSH2 0x1372 JUMP JUMPDEST PUSH2 0x56E JUMP JUMPDEST PUSH1 0x40 MLOAD PUSH2 0x2C9 SWAP2 SWAP1 PUSH2 0x1943 JUMP JUMPDEST PUSH1 0x40 MLOAD DUP1 SWAP2 SUB SWAP1 RETURN JUMPDEST PUSH2 0x2DA PUSH2 0x5B6 JUMP JUMPDEST STOP JUMPDEST PUSH2 0x2F6 PUSH1 0x4 DUP1 CALLDATASIZE SUB DUP2 ADD SWAP1 PUSH2 0x2F1 SWAP2 SWAP1 PUSH2 0x1432 JUMP JUMPDEST PUSH2 0x5CA JUMP JUMPDEST STOP JUMPDEST PUSH2 0x300 PUSH2 0x5EA JUMP JUMPDEST STOP JUMPDEST PUSH2 0x30A PUSH2 0x5FC JUMP JUMPDEST PUSH1 0x40 MLOAD PUSH2 0x317 SWAP2 SWAP1 PUSH2 0x172B JUMP JUMPDEST PUSH1 0x40 MLOAD DUP1 SWAP2 SUB SWAP1 RETURN JUMPDEST PUSH2 0x328 PUSH2 0x626 JUMP JUMPDEST PUSH1 0x40 MLOAD PUSH2 0x335 SWAP2 SWAP1 PUSH2 0x1761 JUMP JUMPDEST PUSH1 0x40 MLOAD DUP1 SWAP2 SUB SWAP1 RETURN JUMPDEST PUSH2 0x358 PUSH1 0x4 DUP1 CALLDATASIZE SUB DUP2 ADD SWAP1 PUSH2 0x353 SWAP2 SWAP1 PUSH2 0x1432 JUMP JUMPDEST PUSH2 0x6B8 JUMP JUMPDEST PUSH1 0x40 MLOAD PUSH2 0x365 SWAP2 SWAP1 PUSH2 0x1746 JUMP JUMPDEST PUSH1 0x40 MLOAD DUP1 SWAP2 SUB SWAP1 RETURN JUMPDEST PUSH2 0x388 PUSH1 0x4 DUP1 CALLDATASIZE SUB DUP2 ADD SWAP1 PUSH2 0x383 SWAP2 SWAP1 PUSH2 0x1432 JUMP JUMPDEST PUSH2 0x72F JUMP JUMPDEST PUSH1 0x40 MLOAD PUSH2 0x395 SWAP2 SWAP1 PUSH2 0x1746 JUMP JUMPDEST PUSH1 0x40 MLOAD DUP1 SWAP2 SUB SWAP1 RETURN JUMPDEST PUSH2 0x3B8 PUSH1 0x4 DUP1 CALLDATASIZE SUB DUP2 ADD SWAP1 PUSH2 0x3B3 SWAP2 SWAP1 PUSH2 0x139F JUMP JUMPDEST PUSH2 0x752 JUMP JUMPDEST PUSH1 0x40 MLOAD PUSH2 0x3C5 SWAP2 SWAP1 PUSH2 0x1943 JUMP JUMPDEST PUSH1 0x40 MLOAD DUP1 SWAP2 SUB SWAP1 RETURN JUMPDEST PUSH2 0x3E8 PUSH1 0x4 DUP1 CALLDATASIZE SUB DUP2 ADD SWAP1 PUSH2 0x3E3 SWAP2 SWAP1 PUSH2 0x1372 JUMP JUMPDEST PUSH2 0x7D9 JUMP JUMPDEST STOP JUMPDEST PUSH1 0x60 PUSH1 0x3 DUP1 SLOAD PUSH2 0x3F9 SWAP1 PUSH2 0x1AB1 JUMP JUMPDEST DUP1 PUSH1 0x1F ADD PUSH1 0x20 DUP1 SWAP2 DIV MUL PUSH1 0x20 ADD PUSH1 0x40 MLOAD SWAP1 DUP2 ADD PUSH1 0x40 MSTORE DUP1 SWAP3 SWAP2 SWAP1 DUP2 DUP2 MSTORE PUSH1 0x20 ADD DUP3 DUP1 SLOAD PUSH2 0x425 SWAP1 PUSH2 0x1AB1 JUMP JUMPDEST DUP1 ISZERO PUSH2 0x472 JUMPI DUP1 PUSH1 0x1F LT PUSH2 0x447 JUMPI PUSH2 0x100 DUP1 DUP4 SLOAD DIV MUL DUP4 MSTORE SWAP2 PUSH1 0x20 ADD SWAP2 PUSH2 0x472 JUMP JUMPDEST DUP3 ADD SWAP2 SWAP1 PUSH1 0x0 MSTORE PUSH1 0x20 PUSH1 0x0 KECCAK256 SWAP1 JUMPDEST DUP2 SLOAD DUP2 MSTORE SWAP1 PUSH1 0x1 ADD SWAP1 PUSH1 0x20 ADD DUP1 DUP4 GT PUSH2 0x455 JUMPI DUP3 SWAP1 SUB PUSH1 0x1F AND DUP3 ADD SWAP2 JUMPDEST POP POP POP POP POP SWAP1 POP SWAP1 JUMP JUMPDEST PUSH1 0x0 DUP1 PUSH2 0x487 PUSH2 0x85D JUMP JUMPDEST SWAP1 POP PUSH2 0x494 DUP2 DUP6 DUP6 PUSH2 0x865 JUMP JUMPDEST PUSH1 0x1 SWAP2 POP POP SWAP3 SWAP2 POP POP JUMP JUMPDEST PUSH1 0x0 PUSH1 0x2 SLOAD SWAP1 POP SWAP1 JUMP JUMPDEST PUSH1 0x0 DUP1 PUSH2 0x4B4 PUSH2 0x85D JUMP JUMPDEST SWAP1 POP PUSH2 0x4C1 DUP6 DUP3 DUP6 PUSH2 0xA30 JUMP JUMPDEST PUSH2 0x4CC DUP6 DUP6 DUP6 PUSH2 0xABC JUMP JUMPDEST PUSH1 0x1 SWAP2 POP POP SWAP4 SWAP3 POP POP POP JUMP JUMPDEST PUSH1 0x0 PUSH1 0x12 SWAP1 POP SWAP1 JUMP JUMPDEST PUSH1 0x0 DUP1 PUSH2 0x4EC PUSH2 0x85D JUMP JUMPDEST SWAP1 POP PUSH2 0x50D DUP2 DUP6 DUP6 PUSH2 0x4FE DUP6 DUP10 PUSH2 0x752 JUMP JUMPDEST PUSH2 0x508 SWAP2 SWAP1 PUSH2 0x1995 JUMP JUMPDEST PUSH2 0x865 JUMP JUMPDEST PUSH1 0x1 SWAP2 POP POP SWAP3 SWAP2 POP POP JUMP JUMPDEST POP JUMP JUMPDEST PUSH2 0x523 PUSH2 0xD3D JUMP JUMPDEST PUSH2 0x52B PUSH2 0xDBB JUMP JUMPDEST JUMP JUMPDEST PUSH2 0x535 PUSH2 0xD3D JUMP JUMPDEST PUSH2 0x53F DUP3 DUP3 PUSH2 0xE1E JUMP JUMPDEST POP POP JUMP JUMPDEST PUSH2 0x554 PUSH2 0x54E PUSH2 0x85D JUMP JUMPDEST DUP3 PUSH2 0xF7E JUMP JUMPDEST POP JUMP JUMPDEST PUSH1 0x0 PUSH1 0x5 PUSH1 0x0 SWAP1 SLOAD SWAP1 PUSH2 0x100 EXP SWAP1 DIV PUSH1 0xFF AND SWAP1 POP SWAP1 JUMP JUMPDEST PUSH1 0x0 DUP1 PUSH1 0x0 DUP4 PUSH20 0xFFFFFFFFFFFFFFFFFFFFFFFFFFFFFFFFFFFFFFFF AND PUSH20 0xFFFFFFFFFFFFFFFFFFFFFFFFFFFFFFFFFFFFFFFF AND DUP2 MSTORE PUSH1 0x20 ADD SWAP1 DUP2 MSTORE PUSH1 0x20 ADD PUSH1 0x0 KECCAK256 SLOAD SWAP1 POP SWAP2 SWAP1 POP JUMP JUMPDEST PUSH2 0x5BE PUSH2 0xD3D JUMP JUMPDEST PUSH2 0x5C8 PUSH1 0x0 PUSH2 0x1155 JUMP JUMPDEST JUMP JUMPDEST PUSH2 0x5DC DUP3 PUSH2 0x5D6 PUSH2 0x85D JUMP JUMPDEST DUP4 PUSH2 0xA30 JUMP JUMPDEST PUSH2 0x5E6 DUP3 DUP3 PUSH2 0xF7E JUMP JUMPDEST POP POP JUMP JUMPDEST PUSH2 0x5F2 PUSH2 0xD3D JUMP JUMPDEST PUSH2 0x5FA PUSH2 0x121B JUMP JUMPDEST JUMP JUMPDEST PUSH1 0x0 PUSH1 0x5 PUSH1 0x1 SWAP1 SLOAD SWAP1 PUSH2 0x100 EXP SWAP1 DIV PUSH20 0xFFFFFFFFFFFFFFFFFFFFFFFFFFFFFFFFFFFFFFFF AND SWAP1 POP SWAP1 JUMP JUMPDEST PUSH1 0x60 PUSH1 0x4 DUP1 SLOAD PUSH2 0x635 SWAP1 PUSH2 0x1AB1 JUMP JUMPDEST DUP1 PUSH1 0x1F ADD PUSH1 0x20 DUP1 SWAP2 DIV MUL PUSH1 0x20 ADD PUSH1 0x40 MLOAD SWAP1 DUP2 ADD PUSH1 0x40 MSTORE DUP1 SWAP3 SWAP2 SWAP1 DUP2 DUP2 MSTORE PUSH1 0x20 ADD DUP3 DUP1 SLOAD PUSH2 0x661 SWAP1 PUSH2 0x1AB1 JUMP JUMPDEST DUP1 ISZERO PUSH2 0x6AE JUMPI DUP1 PUSH1 0x1F LT PUSH2 0x683 JUMPI PUSH2 0x100 DUP1 DUP4 SLOAD DIV MUL DUP4 MSTORE SWAP2 PUSH1 0x20 ADD SWAP2 PUSH2 0x6AE JUMP JUMPDEST DUP3 ADD SWAP2 SWAP1 PUSH1 0x0 MSTORE PUSH1 0x20 PUSH1 0x0 KECCAK256 SWAP1 JUMPDEST DUP2 SLOAD DUP2 MSTORE SWAP1 PUSH1 0x1 ADD SWAP1 PUSH1 0x20 ADD DUP1 DUP4 GT PUSH2 0x691 JUMPI DUP3 SWAP1 SUB PUSH1 0x1F AND DUP3 ADD SWAP2 JUMPDEST POP POP POP POP POP SWAP1 POP SWAP1 JUMP JUMPDEST PUSH1 0x0 DUP1 PUSH2 0x6C3 PUSH2 0x85D JUMP JUMPDEST SWAP1 POP PUSH1 0x0 PUSH2 0x6D1 DUP3 DUP7 PUSH2 0x752 JUMP JUMPDEST SWAP1 POP DUP4 DUP2 LT ISZERO PUSH2 0x716 JUMPI PUSH1 0x40 MLOAD PUSH32 0x8C379A000000000000000000000000000000000000000000000000000000000 DUP2 MSTORE PUSH1 0x4 ADD PUSH2 0x70D SWAP1 PUSH2 0x1903 JUMP JUMPDEST PUSH1 0x40 MLOAD DUP1 SWAP2 SUB SWAP1 REVERT JUMPDEST PUSH2 0x723 DUP3 DUP7 DUP7 DUP5 SUB PUSH2 0x865 JUMP JUMPDEST PUSH1 0x1 SWAP3 POP POP POP SWAP3 SWAP2 POP POP JUMP JUMPDEST PUSH1 0x0 DUP1 PUSH2 0x73A PUSH2 0x85D JUMP JUMPDEST SWAP1 POP PUSH2 0x747 DUP2 DUP6 DUP6 PUSH2 0xABC JUMP JUMPDEST PUSH1 0x1 SWAP2 POP POP SWAP3 SWAP2 POP POP JUMP JUMPDEST PUSH1 0x0 PUSH1 0x1 PUSH1 0x0 DUP5 PUSH20 0xFFFFFFFFFFFFFFFFFFFFFFFFFFFFFFFFFFFFFFFF AND PUSH20 0xFFFFFFFFFFFFFFFFFFFFFFFFFFFFFFFFFFFFFFFF AND DUP2 MSTORE PUSH1 0x20 ADD SWAP1 DUP2 MSTORE PUSH1 0x20 ADD PUSH1 0x0 KECCAK256 PUSH1 0x0 DUP4 PUSH20 0xFFFFFFFFFFFFFFFFFFFFFFFFFFFFFFFFFFFFFFFF AND PUSH20 0xFFFFFFFFFFFFFFFFFFFFFFFFFFFFFFFFFFFFFFFF AND DUP2 MSTORE PUSH1 0x20 ADD SWAP1 DUP2 MSTORE PUSH1 0x20 ADD PUSH1 0x0 KECCAK256 SLOAD SWAP1 POP SWAP3 SWAP2 POP POP JUMP JUMPDEST PUSH2 0x7E1 PUSH2 0xD3D JUMP JUMPDEST PUSH1 0x0 PUSH20 0xFFFFFFFFFFFFFFFFFFFFFFFFFFFFFFFFFFFFFFFF AND DUP2 PUSH20 0xFFFFFFFFFFFFFFFFFFFFFFFFFFFFFFFFFFFFFFFF AND EQ ISZERO PUSH2 0x851 JUMPI PUSH1 0x40 MLOAD PUSH32 0x8C379A000000000000000000000000000000000000000000000000000000000 DUP2 MSTORE PUSH1 0x4 ADD PUSH2 0x848 SWAP1 PUSH2 0x17E3 JUMP JUMPDEST PUSH1 0x40 MLOAD DUP1 SWAP2 SUB SWAP1 REVERT JUMPDEST PUSH2 0x85A DUP2 PUSH2 0x1155 JUMP JUMPDEST POP JUMP JUMPDEST PUSH1 0x0 CALLER SWAP1 POP SWAP1 JUMP JUMPDEST PUSH1 0x0 PUSH20 0xFFFFFFFFFFFFFFFFFFFFFFFFFFFFFFFFFFFFFFFF AND DUP4 PUSH20 0xFFFFFFFFFFFFFFFFFFFFFFFFFFFFFFFFFFFFFFFF AND EQ ISZERO PUSH2 0x8D5 JUMPI PUSH1 0x40 MLOAD PUSH32 0x8C379A000000000000000000000000000000000000000000000000000000000 DUP2 MSTORE PUSH1 0x4 ADD PUSH2 0x8CC SWAP1 PUSH2 0x18E3 JUMP JUMPDEST PUSH1 0x40 MLOAD DUP1 SWAP2 SUB SWAP1 REVERT JUMPDEST PUSH1 0x0 PUSH20 0xFFFFFFFFFFFFFFFFFFFFFFFFFFFFFFFFFFFFFFFF AND DUP3 PUSH20 0xFFFFFFFFFFFFFFFFFFFFFFFFFFFFFFFFFFFFFFFF AND EQ ISZERO PUSH2 0x945 JUMPI PUSH1 0x40 MLOAD PUSH32 0x8C379A000000000000000000000000000000000000000000000000000000000 DUP2 MSTORE PUSH1 0x4 ADD PUSH2 0x93C SWAP1 PUSH2 0x1803 JUMP JUMPDEST PUSH1 0x40 MLOAD DUP1 SWAP2 SUB SWAP1 REVERT JUMPDEST DUP1 PUSH1 0x1 PUSH1 0x0 DUP6 PUSH20 0xFFFFFFFFFFFFFFFFFFFFFFFFFFFFFFFFFFFFFFFF AND PUSH20 0xFFFFFFFFFFFFFFFFFFFFFFFFFFFFFFFFFFFFFFFF AND DUP2 MSTORE PUSH1 0x20 ADD SWAP1 DUP2 MSTORE PUSH1 0x20 ADD PUSH1 0x0 KECCAK256 PUSH1 0x0 DUP5 PUSH20 0xFFFFFFFFFFFFFFFFFFFFFFFFFFFFFFFFFFFFFFFF AND PUSH20 0xFFFFFFFFFFFFFFFFFFFFFFFFFFFFFFFFFFFFFFFF AND DUP2 MSTORE PUSH1 0x20 ADD SWAP1 DUP2 MSTORE PUSH1 0x20 ADD PUSH1 0x0 KECCAK256 DUP2 SWAP1 SSTORE POP DUP2 PUSH20 0xFFFFFFFFFFFFFFFFFFFFFFFFFFFFFFFFFFFFFFFF AND DUP4 PUSH20 0xFFFFFFFFFFFFFFFFFFFFFFFFFFFFFFFFFFFFFFFF AND PUSH32 0x8C5BE1E5EBEC7D5BD14F71427D1E84F3DD0314C0F7B2291E5B200AC8C7C3B925 DUP4 PUSH1 0x40 MLOAD PUSH2 0xA23 SWAP2 SWAP1 PUSH2 0x1943 JUMP JUMPDEST PUSH1 0x40 MLOAD DUP1 SWAP2 SUB SWAP1 LOG3 POP POP POP JUMP JUMPDEST PUSH1 0x0 PUSH2 0xA3C DUP5 DUP5 PUSH2 0x752 JUMP JUMPDEST SWAP1 POP PUSH32 0xFFFFFFFFFFFFFFFFFFFFFFFFFFFFFFFFFFFFFFFFFFFFFFFFFFFFFFFFFFFFFFFF DUP2 EQ PUSH2 0xAB6 JUMPI DUP2 DUP2 LT ISZERO PUSH2 0xAA8 JUMPI PUSH1 0x40 MLOAD PUSH32 0x8C379A000000000000000000000000000000000000000000000000000000000 DUP2 MSTORE PUSH1 0x4 ADD PUSH2 0xA9F SWAP1 PUSH2 0x1823 JUMP JUMPDEST PUSH1 0x40 MLOAD DUP1 SWAP2 SUB SWAP1 REVERT JUMPDEST PUSH2 0xAB5 DUP5 DUP5 DUP5 DUP5 SUB PUSH2 0x865 JUMP JUMPDEST JUMPDEST POP POP POP POP JUMP JUMPDEST PUSH1 0x0 PUSH20 0xFFFFFFFFFFFFFFFFFFFFFFFFFFFFFFFFFFFFFFFF AND DUP4 PUSH20 0xFFFFFFFFFFFFFFFFFFFFFFFFFFFFFFFFFFFFFFFF AND EQ ISZERO PUSH2 0xB2C JUMPI PUSH1 0x40 MLOAD PUSH32 0x8C379A000000000000000000000000000000000000000000000000000000000 DUP2 MSTORE PUSH1 0x4 ADD PUSH2 0xB23 SWAP1 PUSH2 0x18C3 JUMP JUMPDEST PUSH1 0x40 MLOAD DUP1 SWAP2 SUB SWAP1 REVERT JUMPDEST PUSH1 0x0 PUSH20 0xFFFFFFFFFFFFFFFFFFFFFFFFFFFFFFFFFFFFFFFF AND DUP3 PUSH20 0xFFFFFFFFFFFFFFFFFFFFFFFFFFFFFFFFFFFFFFFF AND EQ ISZERO PUSH2 0xB9C JUMPI PUSH1 0x40 MLOAD PUSH32 0x8C379A000000000000000000000000000000000000000000000000000000000 DUP2 MSTORE PUSH1 0x4 ADD PUSH2 0xB93 SWAP1 PUSH2 0x1783 JUMP JUMPDEST PUSH1 0x40 MLOAD DUP1 SWAP2 SUB SWAP1 REVERT JUMPDEST PUSH2 0xBA7 DUP4 DUP4 DUP4 PUSH2 0x127E JUMP JUMPDEST PUSH1 0x0 DUP1 PUSH1 0x0 DUP6 PUSH20 0xFFFFFFFFFFFFFFFFFFFFFFFFFFFFFFFFFFFFFFFF AND PUSH20 0xFFFFFFFFFFFFFFFFFFFFFFFFFFFFFFFFFFFFFFFF AND DUP2 MSTORE PUSH1 0x20 ADD SWAP1 DUP2 MSTORE PUSH1 0x20 ADD PUSH1 0x0 KECCAK256 SLOAD SWAP1 POP DUP2 DUP2 LT ISZERO PUSH2 0xC2D JUMPI PUSH1 0x40 MLOAD PUSH32 0x8C379A000000000000000000000000000000000000000000000000000000000 DUP2 MSTORE PUSH1 0x4 ADD PUSH2 0xC24 SWAP1 PUSH2 0x1843 JUMP JUMPDEST PUSH1 0x40 MLOAD DUP1 SWAP2 SUB SWAP1 REVERT JUMPDEST DUP2 DUP2 SUB PUSH1 0x0 DUP1 DUP7 PUSH20 0xFFFFFFFFFFFFFFFFFFFFFFFFFFFFFFFFFFFFFFFF AND PUSH20 0xFFFFFFFFFFFFFFFFFFFFFFFFFFFFFFFFFFFFFFFF AND DUP2 MSTORE PUSH1 0x20 ADD SWAP1 DUP2 MSTORE PUSH1 0x20 ADD PUSH1 0x0 KECCAK256 DUP2 SWAP1 SSTORE POP DUP2 PUSH1 0x0 DUP1 DUP6 PUSH20 0xFFFFFFFFFFFFFFFFFFFFFFFFFFFFFFFFFFFFFFFF AND PUSH20 0xFFFFFFFFFFFFFFFFFFFFFFFFFFFFFFFFFFFFFFFF AND DUP2 MSTORE PUSH1 0x20 ADD SWAP1 DUP2 MSTORE PUSH1 0x20 ADD PUSH1 0x0 KECCAK256 PUSH1 0x0 DUP3 DUP3 SLOAD PUSH2 0xCC0 SWAP2 SWAP1 PUSH2 0x1995 JUMP JUMPDEST SWAP3 POP POP DUP2 SWAP1 SSTORE POP DUP3 PUSH20 0xFFFFFFFFFFFFFFFFFFFFFFFFFFFFFFFFFFFFFFFF AND DUP5 PUSH20 0xFFFFFFFFFFFFFFFFFFFFFFFFFFFFFFFFFFFFFFFF AND PUSH32 0xDDF252AD1BE2C89B69C2B068FC378DAA952BA7F163C4A11628F55A4DF523B3EF DUP5 PUSH1 0x40 MLOAD PUSH2 0xD24 SWAP2 SWAP1 PUSH2 0x1943 JUMP JUMPDEST PUSH1 0x40 MLOAD DUP1 SWAP2 SUB SWAP1 LOG3 PUSH2 0xD37 DUP5 DUP5 DUP5 PUSH2 0x1296 JUMP JUMPDEST POP POP POP POP JUMP JUMPDEST PUSH2 0xD45 PUSH2 0x85D JUMP JUMPDEST PUSH20 0xFFFFFFFFFFFFFFFFFFFFFFFFFFFFFFFFFFFFFFFF AND PUSH2 0xD63 PUSH2 0x5FC JUMP JUMPDEST PUSH20 0xFFFFFFFFFFFFFFFFFFFFFFFFFFFFFFFFFFFFFFFF AND EQ PUSH2 0xDB9 JUMPI PUSH1 0x40 MLOAD PUSH32 0x8C379A000000000000000000000000000000000000000000000000000000000 DUP2 MSTORE PUSH1 0x4 ADD PUSH2 0xDB0 SWAP1 PUSH2 0x1883 JUMP JUMPDEST PUSH1 0x40 MLOAD DUP1 SWAP2 SUB SWAP1 REVERT JUMPDEST JUMP JUMPDEST PUSH2 0xDC3 PUSH2 0x129B JUMP JUMPDEST PUSH1 0x0 PUSH1 0x5 PUSH1 0x0 PUSH2 0x100 EXP DUP2 SLOAD DUP2 PUSH1 0xFF MUL NOT AND SWAP1 DUP4 ISZERO ISZERO MUL OR SWAP1 SSTORE POP PUSH32 0x5DB9EE0A495BF2E6FF9C91A7834C1BA4FDD244A5E8AA4E537BD38AEAE4B073AA PUSH2 0xE07 PUSH2 0x85D JUMP JUMPDEST PUSH1 0x40 MLOAD PUSH2 0xE14 SWAP2 SWAP1 PUSH2 0x172B JUMP JUMPDEST PUSH1 0x40 MLOAD DUP1 SWAP2 SUB SWAP1 LOG1 JUMP JUMPDEST PUSH1 0x0 PUSH20 0xFFFFFFFFFFFFFFFFFFFFFFFFFFFFFFFFFFFFFFFF AND DUP3 PUSH20 0xFFFFFFFFFFFFFFFFFFFFFFFFFFFFFFFFFFFFFFFF AND EQ ISZERO PUSH2 0xE8E JUMPI PUSH1 0x40 MLOAD PUSH32 0x8C379A000000000000000000000000000000000000000000000000000000000 DUP2 MSTORE PUSH1 0x4 ADD PUSH2 0xE85 SWAP1 PUSH2 0x1923 JUMP JUMPDEST PUSH1 0x40 MLOAD DUP1 SWAP2 SUB SWAP1 REVERT JUMPDEST PUSH2 0xE9A PUSH1 0x0 DUP4 DUP4 PUSH2 0x127E JUMP JUMPDEST DUP1 PUSH1 0x2 PUSH1 0x0 DUP3 DUP3 SLOAD PUSH2 0xEAC SWAP2 SWAP1 PUSH2 0x1995 JUMP JUMPDEST SWAP3 POP POP DUP2 SWAP1 SSTORE POP DUP1 PUSH1 0x0 DUP1 DUP5 PUSH20 0xFFFFFFFFFFFFFFFFFFFFFFFFFFFFFFFFFFFFFFFF AND PUSH20 0xFFFFFFFFFFFFFFFFFFFFFFFFFFFFFFFFFFFFFFFF AND DUP2 MSTORE PUSH1 0x20 ADD SWAP1 DUP2 MSTORE PUSH1 0x20 ADD PUSH1 0x0 KECCAK256 PUSH1 0x0 DUP3 DUP3 SLOAD PUSH2 0xF01 SWAP2 SWAP1 PUSH2 0x1995 JUMP JUMPDEST SWAP3 POP POP DUP2 SWAP1 SSTORE POP DUP2 PUSH20 0xFFFFFFFFFFFFFFFFFFFFFFFFFFFFFFFFFFFFFFFF AND PUSH1 0x0 PUSH20 0xFFFFFFFFFFFFFFFFFFFFFFFFFFFFFFFFFFFFFFFF AND PUSH32 0xDDF252AD1BE2C89B69C2B068FC378DAA952BA7F163C4A11628F55A4DF523B3EF DUP4 PUSH1 0x40 MLOAD PUSH2 0xF66 SWAP2 SWAP1 PUSH2 0x1943 JUMP JUMPDEST PUSH1 0x40 MLOAD DUP1 SWAP2 SUB SWAP1 LOG3 PUSH2 0xF7A PUSH1 0x0 DUP4 DUP4 PUSH2 0x1296 JUMP JUMPDEST POP POP JUMP JUMPDEST PUSH1 0x0 PUSH20 0xFFFFFFFFFFFFFFFFFFFFFFFFFFFFFFFFFFFFFFFF AND DUP3 PUSH20 0xFFFFFFFFFFFFFFFFFFFFFFFFFFFFFFFFFFFFFFFF AND EQ ISZERO PUSH2 0xFEE JUMPI PUSH1 0x40 MLOAD PUSH32 0x8C379A000000000000000000000000000000000000000000000000000000000 DUP2 MSTORE PUSH1 0x4 ADD PUSH2 0xFE5 SWAP1 PUSH2 0x18A3 JUMP JUMPDEST PUSH1 0x40 MLOAD DUP1 SWAP2 SUB SWAP1 REVERT JUMPDEST PUSH2 0xFFA DUP3 PUSH1 0x0 DUP4 PUSH2 0x127E JUMP JUMPDEST PUSH1 0x0 DUP1 PUSH1 0x0 DUP5 PUSH20 0xFFFFFFFFFFFFFFFFFFFFFFFFFFFFFFFFFFFFFFFF AND PUSH20 0xFFFFFFFFFFFFFFFFFFFFFFFFFFFFFFFFFFFFFFFF AND DUP2 MSTORE PUSH1 0x20 ADD SWAP1 DUP2 MSTORE PUSH1 0x20 ADD PUSH1 0x0 KECCAK256 SLOAD SWAP1 POP DUP2 DUP2 LT ISZERO PUSH2 0x1080 JUMPI PUSH1 0x40 MLOAD PUSH32 0x8C379A000000000000000000000000000000000000000000000000000000000 DUP2 MSTORE PUSH1 0x4 ADD PUSH2 0x1077 SWAP1 PUSH2 0x17C3 JUMP JUMPDEST PUSH1 0x40 MLOAD DUP1 SWAP2 SUB SWAP1 REVERT JUMPDEST DUP2 DUP2 SUB PUSH1 0x0 DUP1 DUP6 PUSH20 0xFFFFFFFFFFFFFFFFFFFFFFFFFFFFFFFFFFFFFFFF AND PUSH20 0xFFFFFFFFFFFFFFFFFFFFFFFFFFFFFFFFFFFFFFFF AND DUP2 MSTORE PUSH1 0x20 ADD SWAP1 DUP2 MSTORE PUSH1 0x20 ADD PUSH1 0x0 KECCAK256 DUP2 SWAP1 SSTORE POP DUP2 PUSH1 0x2 PUSH1 0x0 DUP3 DUP3 SLOAD PUSH2 0x10D7 SWAP2 SWAP1 PUSH2 0x19EB JUMP JUMPDEST SWAP3 POP POP DUP2 SWAP1 SSTORE POP PUSH1 0x0 PUSH20 0xFFFFFFFFFFFFFFFFFFFFFFFFFFFFFFFFFFFFFFFF AND DUP4 PUSH20 0xFFFFFFFFFFFFFFFFFFFFFFFFFFFFFFFFFFFFFFFF AND PUSH32 0xDDF252AD1BE2C89B69C2B068FC378DAA952BA7F163C4A11628F55A4DF523B3EF DUP5 PUSH1 0x40 MLOAD PUSH2 0x113C SWAP2 SWAP1 PUSH2 0x1943 JUMP JUMPDEST PUSH1 0x40 MLOAD DUP1 SWAP2 SUB SWAP1 LOG3 PUSH2 0x1150 DUP4 PUSH1 0x0 DUP5 PUSH2 0x1296 JUMP JUMPDEST POP POP POP JUMP JUMPDEST PUSH1 0x0 PUSH1 0x5 PUSH1 0x1 SWAP1 SLOAD SWAP1 PUSH2 0x100 EXP SWAP1 DIV PUSH20 0xFFFFFFFFFFFFFFFFFFFFFFFFFFFFFFFFFFFFFFFF AND SWAP1 POP DUP2 PUSH1 0x5 PUSH1 0x1 PUSH2 0x100 EXP DUP2 SLOAD DUP2 PUSH20 0xFFFFFFFFFFFFFFFFFFFFFFFFFFFFFFFFFFFFFFFF MUL NOT AND SWAP1 DUP4 PUSH20 0xFFFFFFFFFFFFFFFFFFFFFFFFFFFFFFFFFFFFFFFF AND MUL OR SWAP1 SSTORE POP DUP2 PUSH20 0xFFFFFFFFFFFFFFFFFFFFFFFFFFFFFFFFFFFFFFFF AND DUP2 PUSH20 0xFFFFFFFFFFFFFFFFFFFFFFFFFFFFFFFFFFFFFFFF AND PUSH32 0x8BE0079C531659141344CD1FD0A4F28419497F9722A3DAAFE3B4186F6B6457E0 PUSH1 0x40 MLOAD PUSH1 0x40 MLOAD DUP1 SWAP2 SUB SWAP1 LOG3 POP POP JUMP JUMPDEST PUSH2 0x1223 PUSH2 0x12E4 JUMP JUMPDEST PUSH1 0x1 PUSH1 0x5 PUSH1 0x0 PUSH2 0x100 EXP DUP2 SLOAD DUP2 PUSH1 0xFF MUL NOT AND SWAP1 DUP4 ISZERO ISZERO MUL OR SWAP1 SSTORE POP PUSH32 0x62E78CEA01BEE320CD4E420270B5EA74000D11B0C9F74754EBDBFC544B05A258 PUSH2 0x1267 PUSH2 0x85D JUMP JUMPDEST PUSH1 0x40 MLOAD PUSH2 0x1274 SWAP2 SWAP1 PUSH2 0x172B JUMP JUMPDEST PUSH1 0x40 MLOAD DUP1 SWAP2 SUB SWAP1 LOG1 JUMP JUMPDEST PUSH2 0x1286 PUSH2 0x12E4 JUMP JUMPDEST PUSH2 0x1291 DUP4 DUP4 DUP4 PUSH2 0x132E JUMP JUMPDEST POP POP POP JUMP JUMPDEST POP POP POP JUMP JUMPDEST PUSH2 0x12A3 PUSH2 0x557 JUMP JUMPDEST PUSH2 0x12E2 JUMPI PUSH1 0x40 MLOAD PUSH32 0x8C379A000000000000000000000000000000000000000000000000000000000 DUP2 MSTORE PUSH1 0x4 ADD PUSH2 0x12D9 SWAP1 PUSH2 0x17A3 JUMP JUMPDEST PUSH1 0x40 MLOAD DUP1 SWAP2 SUB SWAP1 REVERT JUMPDEST JUMP JUMPDEST PUSH2 0x12EC PUSH2 0x557 JUMP JUMPDEST ISZERO PUSH2 0x132C JUMPI PUSH1 0x40 MLOAD PUSH32 0x8C379A000000000000000000000000000000000000000000000000000000000 DUP2 MSTORE PUSH1 0x4 ADD PUSH2 0x1323 SWAP1 PUSH2 0x1863 JUMP JUMPDEST PUSH1 0x40 MLOAD DUP1 SWAP2 SUB SWAP1 REVERT JUMPDEST JUMP JUMPDEST POP POP POP JUMP JUMPDEST PUSH1 0x0 DUP2 CALLDATALOAD SWAP1 POP PUSH2 0x1342 DUP2 PUSH2 0x1EEB JUMP JUMPDEST SWAP3 SWAP2 POP POP JUMP JUMPDEST PUSH1 0x0 DUP2 CALLDATALOAD SWAP1 POP PUSH2 0x1357 DUP2 PUSH2 0x1F02 JUMP JUMPDEST SWAP3 SWAP2 POP POP JUMP JUMPDEST PUSH1 0x0 DUP2 CALLDATALOAD SWAP1 POP PUSH2 0x136C DUP2 PUSH2 0x1F19 JUMP JUMPDEST SWAP3 SWAP2 POP POP JUMP JUMPDEST PUSH1 0x0 PUSH1 0x20 DUP3 DUP5 SUB SLT ISZERO PUSH2 0x1388 JUMPI PUSH2 0x1387 PUSH2 0x1B41 JUMP JUMPDEST JUMPDEST PUSH1 0x0 PUSH2 0x1396 DUP5 DUP3 DUP6 ADD PUSH2 0x1333 JUMP JUMPDEST SWAP2 POP POP SWAP3 SWAP2 POP POP JUMP JUMPDEST PUSH1 0x0 DUP1 PUSH1 0x40 DUP4 DUP6 SUB SLT ISZERO PUSH2 0x13B6 JUMPI PUSH2 0x13B5 PUSH2 0x1B41 JUMP JUMPDEST JUMPDEST PUSH1 0x0 PUSH2 0x13C4 DUP6 DUP3 DUP7 ADD PUSH2 0x1333 JUMP JUMPDEST SWAP3 POP POP PUSH1 0x20 PUSH2 0x13D5 DUP6 DUP3 DUP7 ADD PUSH2 0x1333 JUMP JUMPDEST SWAP2 POP POP SWAP3 POP SWAP3 SWAP1 POP JUMP JUMPDEST PUSH1 0x0 DUP1 PUSH1 0x0 PUSH1 0x60 DUP5 DUP7 SUB SLT ISZERO PUSH2 0x13F8 JUMPI PUSH2 0x13F7 PUSH2 0x1B41 JUMP JUMPDEST JUMPDEST PUSH1 0x0 PUSH2 0x1406 DUP7 DUP3 DUP8 ADD PUSH2 0x1333 JUMP JUMPDEST SWAP4 POP POP PUSH1 0x20 PUSH2 0x1417 DUP7 DUP3 DUP8 ADD PUSH2 0x1333 JUMP JUMPDEST SWAP3 POP POP PUSH1 0x40 PUSH2 0x1428 DUP7 DUP3 DUP8 ADD PUSH2 0x135D JUMP JUMPDEST SWAP2 POP POP SWAP3 POP SWAP3 POP SWAP3 JUMP JUMPDEST PUSH1 0x0 DUP1 PUSH1 0x40 DUP4 DUP6 SUB SLT ISZERO PUSH2 0x1449 JUMPI PUSH2 0x1448 PUSH2 0x1B41 JUMP JUMPDEST JUMPDEST PUSH1 0x0 PUSH2 0x1457 DUP6 DUP3 DUP7 ADD PUSH2 0x1333 JUMP JUMPDEST SWAP3 POP POP PUSH1 0x20 PUSH2 0x1468 DUP6 DUP3 DUP7 ADD PUSH2 0x135D JUMP JUMPDEST SWAP2 POP POP SWAP3 POP SWAP3 SWAP1 POP JUMP JUMPDEST PUSH1 0x0 PUSH1 0x20 DUP3 DUP5 SUB SLT ISZERO PUSH2 0x1488 JUMPI PUSH2 0x1487 PUSH2 0x1B41 JUMP JUMPDEST JUMPDEST PUSH1 0x0 PUSH2 0x1496 DUP5 DUP3 DUP6 ADD PUSH2 0x1348 JUMP JUMPDEST SWAP2 POP POP SWAP3 SWAP2 POP POP JUMP JUMPDEST PUSH1 0x0 PUSH1 0x20 DUP3 DUP5 SUB SLT ISZERO PUSH2 0x14B5 JUMPI PUSH2 0x14B4 PUSH2 0x1B41 JUMP JUMPDEST JUMPDEST PUSH1 0x0 PUSH2 0x14C3 DUP5 DUP3 DUP6 ADD PUSH2 0x135D JUMP JUMPDEST SWAP2 POP POP SWAP3 SWAP2 POP POP JUMP JUMPDEST PUSH2 0x14D5 DUP2 PUSH2 0x1A1F JUMP JUMPDEST DUP3 MSTORE POP POP JUMP JUMPDEST PUSH2 0x14E4 DUP2 PUSH2 0x1A31 JUMP JUMPDEST DUP3 MSTORE POP POP JUMP JUMPDEST PUSH1 0x0 PUSH2 0x14F5 DUP3 PUSH2 0x1979 JUMP JUMPDEST PUSH2 0x14FF DUP2 DUP6 PUSH2 0x1984 JUMP JUMPDEST SWAP4 POP PUSH2 0x150F DUP2 DUP6 PUSH1 0x20 DUP7 ADD PUSH2 0x1A7E JUMP JUMPDEST PUSH2 0x1518 DUP2 PUSH2 0x1B46 JUMP JUMPDEST DUP5 ADD SWAP2 POP POP SWAP3 SWAP2 POP POP JUMP JUMPDEST PUSH1 0x0 PUSH2 0x1530 PUSH1 0x23 DUP4 PUSH2 0x1984 JUMP JUMPDEST SWAP2 POP PUSH2 0x153B DUP3 PUSH2 0x1B57 JUMP JUMPDEST PUSH1 0x40 DUP3 ADD SWAP1 POP SWAP2 SWAP1 POP JUMP JUMPDEST PUSH1 0x0 PUSH2 0x1553 PUSH1 0x14 DUP4 PUSH2 0x1984 JUMP JUMPDEST SWAP2 POP PUSH2 0x155E DUP3 PUSH2 0x1BA6 JUMP JUMPDEST PUSH1 0x20 DUP3 ADD SWAP1 POP SWAP2 SWAP1 POP JUMP JUMPDEST PUSH1 0x0 PUSH2 0x1576 PUSH1 0x22 DUP4 PUSH2 0x1984 JUMP JUMPDEST SWAP2 POP PUSH2 0x1581 DUP3 PUSH2 0x1BCF JUMP JUMPDEST PUSH1 0x40 DUP3 ADD SWAP1 POP SWAP2 SWAP1 POP JUMP JUMPDEST PUSH1 0x0 PUSH2 0x1599 PUSH1 0x26 DUP4 PUSH2 0x1984 JUMP JUMPDEST SWAP2 POP PUSH2 0x15A4 DUP3 PUSH2 0x1C1E JUMP JUMPDEST PUSH1 0x40 DUP3 ADD SWAP1 POP SWAP2 SWAP1 POP JUMP JUMPDEST PUSH1 0x0 PUSH2 0x15BC PUSH1 0x22 DUP4 PUSH2 0x1984 JUMP JUMPDEST SWAP2 POP PUSH2 0x15C7 DUP3 PUSH2 0x1C6D JUMP JUMPDEST PUSH1 0x40 DUP3 ADD SWAP1 POP SWAP2 SWAP1 POP JUMP JUMPDEST PUSH1 0x0 PUSH2 0x15DF PUSH1 0x1D DUP4 PUSH2 0x1984 JUMP JUMPDEST SWAP2 POP PUSH2 0x15EA DUP3 PUSH2 0x1CBC JUMP JUMPDEST PUSH1 0x20 DUP3 ADD SWAP1 POP SWAP2 SWAP1 POP JUMP JUMPDEST PUSH1 0x0 PUSH2 0x1602 PUSH1 0x26 DUP4 PUSH2 0x1984 JUMP JUMPDEST SWAP2 POP PUSH2 0x160D DUP3 PUSH2 0x1CE5 JUMP JUMPDEST PUSH1 0x40 DUP3 ADD SWAP1 POP SWAP2 SWAP1 POP JUMP JUMPDEST PUSH1 0x0 PUSH2 0x1625 PUSH1 0x10 DUP4 PUSH2 0x1984 JUMP JUMPDEST SWAP2 POP PUSH2 0x1630 DUP3 PUSH2 0x1D34 JUMP JUMPDEST PUSH1 0x20 DUP3 ADD SWAP1 POP SWAP2 SWAP1 POP JUMP JUMPDEST PUSH1 0x0 PUSH2 0x1648 PUSH1 0x20 DUP4 PUSH2 0x1984 JUMP JUMPDEST SWAP2 POP PUSH2 0x1653 DUP3 PUSH2 0x1D5D JUMP JUMPDEST PUSH1 0x20 DUP3 ADD SWAP1 POP SWAP2 SWAP1 POP JUMP JUMPDEST PUSH1 0x0 PUSH2 0x166B PUSH1 0x21 DUP4 PUSH2 0x1984 JUMP JUMPDEST SWAP2 POP PUSH2 0x1676 DUP3 PUSH2 0x1D86 JUMP JUMPDEST PUSH1 0x40 DUP3 ADD SWAP1 POP SWAP2 SWAP1 POP JUMP JUMPDEST PUSH1 0x0 PUSH2 0x168E PUSH1 0x25 DUP4 PUSH2 0x1984 JUMP JUMPDEST SWAP2 POP PUSH2 0x1699 DUP3 PUSH2 0x1DD5 JUMP JUMPDEST PUSH1 0x40 DUP3 ADD SWAP1 POP SWAP2 SWAP1 POP JUMP JUMPDEST PUSH1 0x0 PUSH2 0x16B1 PUSH1 0x24 DUP4 PUSH2 0x1984 JUMP JUMPDEST SWAP2 POP PUSH2 0x16BC DUP3 PUSH2 0x1E24 JUMP JUMPDEST PUSH1 0x40 DUP3 ADD SWAP1 POP SWAP2 SWAP1 POP JUMP JUMPDEST PUSH1 0x0 PUSH2 0x16D4 PUSH1 0x25 DUP4 PUSH2 0x1984 JUMP JUMPDEST SWAP2 POP PUSH2 0x16DF DUP3 PUSH2 0x1E73 JUMP JUMPDEST PUSH1 0x40 DUP3 ADD SWAP1 POP SWAP2 SWAP1 POP JUMP JUMPDEST PUSH1 0x0 PUSH2 0x16F7 PUSH1 0x1F DUP4 PUSH2 0x1984 JUMP JUMPDEST SWAP2 POP PUSH2 0x1702 DUP3 PUSH2 0x1EC2 JUMP JUMPDEST PUSH1 0x20 DUP3 ADD SWAP1 POP SWAP2 SWAP1 POP JUMP JUMPDEST PUSH2 0x1716 DUP2 PUSH2 0x1A67 JUMP JUMPDEST DUP3 MSTORE POP POP JUMP JUMPDEST PUSH2 0x1725 DUP2 PUSH2 0x1A71 JUMP JUMPDEST DUP3 MSTORE POP POP JUMP JUMPDEST PUSH1 0x0 PUSH1 0x20 DUP3 ADD SWAP1 POP PUSH2 0x1740 PUSH1 0x0 DUP4 ADD DUP5 PUSH2 0x14CC JUMP JUMPDEST SWAP3 SWAP2 POP POP JUMP JUMPDEST PUSH1 0x0 PUSH1 0x20 DUP3 ADD SWAP1 POP PUSH2 0x175B PUSH1 0x0 DUP4 ADD DUP5 PUSH2 0x14DB JUMP JUMPDEST SWAP3 SWAP2 POP POP JUMP JUMPDEST PUSH1 0x0 PUSH1 0x20 DUP3 ADD SWAP1 POP DUP2 DUP2 SUB PUSH1 0x0 DUP4 ADD MSTORE PUSH2 0x177B DUP2 DUP5 PUSH2 0x14EA JUMP JUMPDEST SWAP1 POP SWAP3 SWAP2 POP POP JUMP JUMPDEST PUSH1 0x0 PUSH1 0x20 DUP3 ADD SWAP1 POP DUP2 DUP2 SUB PUSH1 0x0 DUP4 ADD MSTORE PUSH2 0x179C DUP2 PUSH2 0x1523 JUMP JUMPDEST SWAP1 POP SWAP2 SWAP1 POP JUMP JUMPDEST PUSH1 0x0 PUSH1 0x20 DUP3 ADD SWAP1 POP DUP2 DUP2 SUB PUSH1 0x0 DUP4 ADD MSTORE PUSH2 0x17BC DUP2 PUSH2 0x1546 JUMP JUMPDEST SWAP1 POP SWAP2 SWAP1 POP JUMP JUMPDEST PUSH1 0x0 PUSH1 0x20 DUP3 ADD SWAP1 POP DUP2 DUP2 SUB PUSH1 0x0 DUP4 ADD MSTORE PUSH2 0x17DC DUP2 PUSH2 0x1569 JUMP JUMPDEST SWAP1 POP SWAP2 SWAP1 POP JUMP JUMPDEST PUSH1 0x0 PUSH1 0x20 DUP3 ADD SWAP1 POP DUP2 DUP2 SUB PUSH1 0x0 DUP4 ADD MSTORE PUSH2 0x17FC DUP2 PUSH2 0x158C JUMP JUMPDEST SWAP1 POP SWAP2 SWAP1 POP JUMP JUMPDEST PUSH1 0x0 PUSH1 0x20 DUP3 ADD SWAP1 POP DUP2 DUP2 SUB PUSH1 0x0 DUP4 ADD MSTORE PUSH2 0x181C DUP2 PUSH2 0x15AF JUMP JUMPDEST SWAP1 POP SWAP2 SWAP1 POP JUMP JUMPDEST PUSH1 0x0 PUSH1 0x20 DUP3 ADD SWAP1 POP DUP2 DUP2 SUB PUSH1 0x0 DUP4 ADD MSTORE PUSH2 0x183C DUP2 PUSH2 0x15D2 JUMP JUMPDEST SWAP1 POP SWAP2 SWAP1 POP JUMP JUMPDEST PUSH1 0x0 PUSH1 0x20 DUP3 ADD SWAP1 POP DUP2 DUP2 SUB PUSH1 0x0 DUP4 ADD MSTORE PUSH2 0x185C DUP2 PUSH2 0x15F5 JUMP JUMPDEST SWAP1 POP SWAP2 SWAP1 POP JUMP JUMPDEST PUSH1 0x0 PUSH1 0x20 DUP3 ADD SWAP1 POP DUP2 DUP2 SUB PUSH1 0x0 DUP4 ADD MSTORE PUSH2 0x187C DUP2 PUSH2 0x1618 JUMP JUMPDEST SWAP1 POP SWAP2 SWAP1 POP JUMP JUMPDEST PUSH1 0x0 PUSH1 0x20 DUP3 ADD SWAP1 POP DUP2 DUP2 SUB PUSH1 0x0 DUP4 ADD MSTORE PUSH2 0x189C DUP2 PUSH2 0x163B JUMP JUMPDEST SWAP1 POP SWAP2 SWAP1 POP JUMP JUMPDEST PUSH1 0x0 PUSH1 0x20 DUP3 ADD SWAP1 POP DUP2 DUP2 SUB PUSH1 0x0 DUP4 ADD MSTORE PUSH2 0x18BC DUP2 PUSH2 0x165E JUMP JUMPDEST SWAP1 POP SWAP2 SWAP1 POP JUMP JUMPDEST PUSH1 0x0 PUSH1 0x20 DUP3 ADD SWAP1 POP DUP2 DUP2 SUB PUSH1 0x0 DUP4 ADD MSTORE PUSH2 0x18DC DUP2 PUSH2 0x1681 JUMP JUMPDEST SWAP1 POP SWAP2 SWAP1 POP JUMP JUMPDEST PUSH1 0x0 PUSH1 0x20 DUP3 ADD SWAP1 POP DUP2 DUP2 SUB PUSH1 0x0 DUP4 ADD MSTORE PUSH2 0x18FC DUP2 PUSH2 0x16A4 JUMP JUMPDEST SWAP1 POP SWAP2 SWAP1 POP JUMP JUMPDEST PUSH1 0x0 PUSH1 0x20 DUP3 ADD SWAP1 POP DUP2 DUP2 SUB PUSH1 0x0 DUP4 ADD MSTORE PUSH2 0x191C DUP2 PUSH2 0x16C7 JUMP JUMPDEST SWAP1 POP SWAP2 SWAP1 POP JUMP JUMPDEST PUSH1 0x0 PUSH1 0x20 DUP3 ADD SWAP1 POP DUP2 DUP2 SUB PUSH1 0x0 DUP4 ADD MSTORE PUSH2 0x193C DUP2 PUSH2 0x16EA JUMP JUMPDEST SWAP1 POP SWAP2 SWAP1 POP JUMP JUMPDEST PUSH1 0x0 PUSH1 0x20 DUP3 ADD SWAP1 POP PUSH2 0x1958 PUSH1 0x0 DUP4 ADD DUP5 PUSH2 0x170D JUMP JUMPDEST SWAP3 SWAP2 POP POP JUMP JUMPDEST PUSH1 0x0 PUSH1 0x20 DUP3 ADD SWAP1 POP PUSH2 0x1973 PUSH1 0x0 DUP4 ADD DUP5 PUSH2 0x171C JUMP JUMPDEST SWAP3 SWAP2 POP POP JUMP JUMPDEST PUSH1 0x0 DUP2 MLOAD SWAP1 POP SWAP2 SWAP1 POP JUMP JUMPDEST PUSH1 0x0 DUP3 DUP3 MSTORE PUSH1 0x20 DUP3 ADD SWAP1 POP SWAP3 SWAP2 POP POP JUMP JUMPDEST PUSH1 0x0 PUSH2 0x19A0 DUP3 PUSH2 0x1A67 JUMP JUMPDEST SWAP2 POP PUSH2 0x19AB DUP4 PUSH2 0x1A67 JUMP JUMPDEST SWAP3 POP DUP3 PUSH32 0xFFFFFFFFFFFFFFFFFFFFFFFFFFFFFFFFFFFFFFFFFFFFFFFFFFFFFFFFFFFFFFFF SUB DUP3 GT ISZERO PUSH2 0x19E0 JUMPI PUSH2 0x19DF PUSH2 0x1AE3 JUMP JUMPDEST JUMPDEST DUP3 DUP3 ADD SWAP1 POP SWAP3 SWAP2 POP POP JUMP JUMPDEST PUSH1 0x0 PUSH2 0x19F6 DUP3 PUSH2 0x1A67 JUMP JUMPDEST SWAP2 POP PUSH2 0x1A01 DUP4 PUSH2 0x1A67 JUMP JUMPDEST SWAP3 POP DUP3 DUP3 LT ISZERO PUSH2 0x1A14 JUMPI PUSH2 0x1A13 PUSH2 0x1AE3 JUMP JUMPDEST JUMPDEST DUP3 DUP3 SUB SWAP1 POP SWAP3 SWAP2 POP POP JUMP JUMPDEST PUSH1 0x0 PUSH2 0x1A2A DUP3 PUSH2 0x1A47 JUMP JUMPDEST SWAP1 POP SWAP2 SWAP1 POP JUMP JUMPDEST PUSH1 0x0 DUP2 ISZERO ISZERO SWAP1 POP SWAP2 SWAP1 POP JUMP JUMPDEST PUSH1 0x0 DUP2 SWAP1 POP SWAP2 SWAP1 POP JUMP JUMPDEST PUSH1 0x0 PUSH20 0xFFFFFFFFFFFFFFFFFFFFFFFFFFFFFFFFFFFFFFFF DUP3 AND SWAP1 POP SWAP2 SWAP1 POP JUMP JUMPDEST PUSH1 0x0 DUP2 SWAP1 POP SWAP2 SWAP1 POP JUMP JUMPDEST PUSH1 0x0 PUSH1 0xFF DUP3 AND SWAP1 POP SWAP2 SWAP1 POP JUMP JUMPDEST PUSH1 0x0 JUMPDEST DUP4 DUP2 LT ISZERO PUSH2 0x1A9C JUMPI DUP1 DUP3 ADD MLOAD DUP2 DUP5 ADD MSTORE PUSH1 0x20 DUP2 ADD SWAP1 POP PUSH2 0x1A81 JUMP JUMPDEST DUP4 DUP2 GT ISZERO PUSH2 0x1AAB JUMPI PUSH1 0x0 DUP5 DUP5 ADD MSTORE JUMPDEST POP POP POP POP JUMP JUMPDEST PUSH1 0x0 PUSH1 0x2 DUP3 DIV SWAP1 POP PUSH1 0x1 DUP3 AND DUP1 PUSH2 0x1AC9 JUMPI PUSH1 0x7F DUP3 AND SWAP2 POP JUMPDEST PUSH1 0x20 DUP3 LT DUP2 EQ ISZERO PUSH2 0x1ADD JUMPI PUSH2 0x1ADC PUSH2 0x1B12 JUMP JUMPDEST JUMPDEST POP SWAP2 SWAP1 POP JUMP JUMPDEST PUSH32 0x4E487B7100000000000000000000000000000000000000000000000000000000 PUSH1 0x0 MSTORE PUSH1 0x11 PUSH1 0x4 MSTORE PUSH1 0x24 PUSH1 0x0 REVERT JUMPDEST PUSH32 0x4E487B7100000000000000000000000000000000000000000000000000000000 PUSH1 0x0 MSTORE PUSH1 0x22 PUSH1 0x4 MSTORE PUSH1 0x24 PUSH1 0x0 REVERT JUMPDEST PUSH1 0x0 DUP1 REVERT JUMPDEST PUSH1 0x0 PUSH1 0x1F NOT PUSH1 0x1F DUP4 ADD AND SWAP1 POP SWAP2 SWAP1 POP JUMP JUMPDEST PUSH32 0x45524332303A207472616E7366657220746F20746865207A65726F2061646472 PUSH1 0x0 DUP3 ADD MSTORE PUSH32 0x6573730000000000000000000000000000000000000000000000000000000000 PUSH1 0x20 DUP3 ADD MSTORE POP JUMP JUMPDEST PUSH32 0x5061757361626C653A206E6F7420706175736564000000000000000000000000 PUSH1 0x0 DUP3 ADD MSTORE POP JUMP JUMPDEST PUSH32 0x45524332303A206275726E20616D6F756E7420657863656564732062616C616E PUSH1 0x0 DUP3 ADD MSTORE PUSH32 0x6365000000000000000000000000000000000000000000000000000000000000 PUSH1 0x20 DUP3 ADD MSTORE POP JUMP JUMPDEST PUSH32 0x4F776E61626C653A206E6577206F776E657220697320746865207A65726F2061 PUSH1 0x0 DUP3 ADD MSTORE PUSH32 0x6464726573730000000000000000000000000000000000000000000000000000 PUSH1 0x20 DUP3 ADD MSTORE POP JUMP JUMPDEST PUSH32 0x45524332303A20617070726F766520746F20746865207A65726F206164647265 PUSH1 0x0 DUP3 ADD MSTORE PUSH32 0x7373000000000000000000000000000000000000000000000000000000000000 PUSH1 0x20 DUP3 ADD MSTORE POP JUMP JUMPDEST PUSH32 0x45524332303A20696E73756666696369656E7420616C6C6F77616E6365000000 PUSH1 0x0 DUP3 ADD MSTORE POP JUMP JUMPDEST PUSH32 0x45524332303A207472616E7366657220616D6F756E7420657863656564732062 PUSH1 0x0 DUP3 ADD MSTORE PUSH32 0x616C616E63650000000000000000000000000000000000000000000000000000 PUSH1 0x20 DUP3 ADD MSTORE POP JUMP JUMPDEST PUSH32 0x5061757361626C653A2070617573656400000000000000000000000000000000 PUSH1 0x0 DUP3 ADD MSTORE POP JUMP JUMPDEST PUSH32 0x4F776E61626C653A2063616C6C6572206973206E6F7420746865206F776E6572 PUSH1 0x0 DUP3 ADD MSTORE POP JUMP JUMPDEST PUSH32 0x45524332303A206275726E2066726F6D20746865207A65726F20616464726573 PUSH1 0x0 DUP3 ADD MSTORE PUSH32 0x7300000000000000000000000000000000000000000000000000000000000000 PUSH1 0x20 DUP3 ADD MSTORE POP JUMP JUMPDEST PUSH32 0x45524332303A207472616E736665722066726F6D20746865207A65726F206164 PUSH1 0x0 DUP3 ADD MSTORE PUSH32 0x6472657373000000000000000000000000000000000000000000000000000000 PUSH1 0x20 DUP3 ADD MSTORE POP JUMP JUMPDEST PUSH32 0x45524332303A20617070726F76652066726F6D20746865207A65726F20616464 PUSH1 0x0 DUP3 ADD MSTORE PUSH32 0x7265737300000000000000000000000000000000000000000000000000000000 PUSH1 0x20 DUP3 ADD MSTORE POP JUMP JUMPDEST PUSH32 0x45524332303A2064656372656173656420616C6C6F77616E63652062656C6F77 PUSH1 0x0 DUP3 ADD MSTORE PUSH32 0x207A65726F000000000000000000000000000000000000000000000000000000 PUSH1 0x20 DUP3 ADD MSTORE POP JUMP JUMPDEST PUSH32 0x45524332303A206D696E7420746F20746865207A65726F206164647265737300 PUSH1 0x0 DUP3 ADD MSTORE POP JUMP JUMPDEST PUSH2 0x1EF4 DUP2 PUSH2 0x1A1F JUMP JUMPDEST DUP2 EQ PUSH2 0x1EFF JUMPI PUSH1 0x0 DUP1 REVERT JUMPDEST POP JUMP JUMPDEST PUSH2 0x1F0B DUP2 PUSH2 0x1A3D JUMP JUMPDEST DUP2 EQ PUSH2 0x1F16 JUMPI PUSH1 0x0 DUP1 REVERT JUMPDEST POP JUMP JUMPDEST PUSH2 0x1F22 DUP2 PUSH2 0x1A67 JUMP JUMPDEST DUP2 EQ PUSH2 0x1F2D JUMPI PUSH1 0x0 DUP1 REVERT JUMPDEST POP JUMP INVALID LOG2 PUSH5 0x6970667358 0x22 SLT KECCAK256 0x5C 0xCA DELEGATECALL ADD 0xB1 SIGNEXTEND EXTCODEHASH PUSH21 0xA6C8ABD212E731F0876134AE3E534D061D6184FA4B SWAP12 PUSH6 0xE964736F6C63 NUMBER STOP ADDMOD SMOD STOP CALLER "
				},
				"gasEstimates": {
					"creation": {
						"codeDepositCost": "1607600",
						"executionCost": "infinite",
						"totalCost": "infinite"
					},
					"external": {
						"allowance(address,address)": "infinite",
						"approve(address,uint256)": "infinite",
						"balanceOf(address)": "2886",
						"burn(uint256)": "infinite",
						"burnFrom(address,uint256)": "infinite",
						"decimals()": "455",
						"decreaseAllowance(address,uint256)": "infinite",
						"game(int256)": "451",
						"increaseAllowance(address,uint256)": "infinite",
						"mint(address,uint256)": "infinite",
						"name()": "infinite",
						"owner()": "2594",
						"pause()": "infinite",
						"paused()": "2502",
						"renounceOwnership()": "30615",
						"symbol()": "infinite",
						"totalSupply()": "2505",
						"transfer(address,uint256)": "infinite",
						"transferFrom(address,address,uint256)": "infinite",
						"transferOwnership(address)": "31029",
						"unpause()": "infinite"
					},
					"internal": {
						"_beforeTokenTransfer(address,address,uint256)": "infinite"
					}
				},
				"methodIdentifiers": {
					"allowance(address,address)": "dd62ed3e",
					"approve(address,uint256)": "095ea7b3",
					"balanceOf(address)": "70a08231",
					"burn(uint256)": "42966c68",
					"burnFrom(address,uint256)": "79cc6790",
					"decimals()": "313ce567",
					"decreaseAllowance(address,uint256)": "a457c2d7",
					"game(int256)": "3badee64",
					"increaseAllowance(address,uint256)": "39509351",
					"mint(address,uint256)": "40c10f19",
					"name()": "06fdde03",
					"owner()": "8da5cb5b",
					"pause()": "8456cb59",
					"paused()": "5c975abb",
					"renounceOwnership()": "715018a6",
					"symbol()": "95d89b41",
					"totalSupply()": "18160ddd",
					"transfer(address,uint256)": "a9059cbb",
					"transferFrom(address,address,uint256)": "23b872dd",
					"transferOwnership(address)": "f2fde38b",
					"unpause()": "3f4ba83a"
				}
			},
			"storageLayout": {
				"storage": [
					{
						"astId": 236,
						"contract": "InVisiDots.sol:InVisiDots",
						"label": "_balances",
						"offset": 0,
						"slot": "0",
						"type": "t_mapping(t_address,t_uint256)"
					},
					{
						"astId": 242,
						"contract": "InVisiDots.sol:InVisiDots",
						"label": "_allowances",
						"offset": 0,
						"slot": "1",
						"type": "t_mapping(t_address,t_mapping(t_address,t_uint256))"
					},
					{
						"astId": 244,
						"contract": "InVisiDots.sol:InVisiDots",
						"label": "_totalSupply",
						"offset": 0,
						"slot": "2",
						"type": "t_uint256"
					},
					{
						"astId": 246,
						"contract": "InVisiDots.sol:InVisiDots",
						"label": "_name",
						"offset": 0,
						"slot": "3",
						"type": "t_string_storage"
					},
					{
						"astId": 248,
						"contract": "InVisiDots.sol:InVisiDots",
						"label": "_symbol",
						"offset": 0,
						"slot": "4",
						"type": "t_string_storage"
					},
					{
						"astId": 130,
						"contract": "InVisiDots.sol:InVisiDots",
						"label": "_paused",
						"offset": 0,
						"slot": "5",
						"type": "t_bool"
					},
					{
						"astId": 7,
						"contract": "InVisiDots.sol:InVisiDots",
						"label": "_owner",
						"offset": 1,
						"slot": "5",
						"type": "t_address"
					}
				],
				"types": {
					"t_address": {
						"encoding": "inplace",
						"label": "address",
						"numberOfBytes": "20"
					},
					"t_bool": {
						"encoding": "inplace",
						"label": "bool",
						"numberOfBytes": "1"
					},
					"t_mapping(t_address,t_mapping(t_address,t_uint256))": {
						"encoding": "mapping",
						"key": "t_address",
						"label": "mapping(address => mapping(address => uint256))",
						"numberOfBytes": "32",
						"value": "t_mapping(t_address,t_uint256)"
					},
					"t_mapping(t_address,t_uint256)": {
						"encoding": "mapping",
						"key": "t_address",
						"label": "mapping(address => uint256)",
						"numberOfBytes": "32",
						"value": "t_uint256"
					},
					"t_string_storage": {
						"encoding": "bytes",
						"label": "string",
						"numberOfBytes": "32"
					},
					"t_uint256": {
						"encoding": "inplace",
						"label": "uint256",
						"numberOfBytes": "32"
					}
				}
			},
			"userdoc": {
				"kind": "user",
				"methods": {},
				"version": 1
			}
		}
	}
}